:100000000C9455330C946A330C946A330C946A3311
:100010000C946A330C946A330C946A330C946A33EC
:100020000C946A330C946A330C946A330C946A33DC
:100030000C946A330C946A330C946A330C946A33CC
:100040000C946A330C946A330C946A330C946A33BC
:100050000C946A330C946A330C946A330C946A33AC
:100060000C946A330C946A3348008497005F01480B
:1000700002F3BEF600F448030DBEF600F4828200DF
:10008000C300133E07BEF6008C380201D3002AE3FA
:10009000001DBEF60042B102FFD30037E3001D4849
:1000A0000339BEF600F4FEE3000048033482820008
:1000B000BEF600DD380200D30056C3FF3DFD480305
:1000C00044828200BEF600DD380200D30074BEF622
:1000D000017848030DBEF600F4E3007B48033EBE02
:1000E000F600F4828200C300133E3DFD480323BEA8
:1000F000F600F4859FBD10D300D907020AD300C2D1
:10010000020DD300C2027FD300B12FB102802AD3E7
:1001100000D90927ACF4E300D9B10200D300D91308
:100120007FF3ABA1050083E300D9130A130D23006D
:10013000B10200D300D2C5013DFD828200C300138D
:100140003EC5003DFDC501910F6742D500F002009C
:10015000D300F25CACE300DFC5003DFD910200D3AB
:1001600000FF095CE300F4130A130D3DFD380200A3
:10017000D3010F13301378C502B1E7E7E7E740304A
:10018000023ADF011F400709FBD3012AB1BD0FE38B
:1001900001163DFDB5C380910223D301450F67428F
:1001A000D5014D0200D3014F5CACE3012F67375CF2
:1001B000ACF8E3012FC500CB3DFDB10130C2BD104D
:1001C000B1D3015E0107BD0FF0F0F0F0C23801308D
:1001D000C4BD1038D301710107BD0FB29BC43DFDF2
:1001E000890E480349BEF600F45CA3D5017D8282E6
:1001F00000C300133FBEF6008C380201D3019AE31E
:10020000018DBEF601A6B10200D3018D3DFDC300F4
:100210008205E8B1F06084A10400836749AC6747B8
:10022000828200C502BEF6012C380200D501D9B188
:1002300000C2020DD501A848033EBEF600F4E30259
:10024000D04802D9B1F0904793040049912F5C91B6
:100250002F0A1E023A0AE302D01E023A0BE302D032
:100260006A0A4E0B1E0257E302D0C902C603BEF64D
:1002700001523F0CE302D0C60C6A0A4E0B9FBD1020
:10028000D30215070957380200D302CCFB5CE30206
:1002900015C60C6A0A4E0B9FBD20D5022F91093856
:1002A0000200D302CCFB5CE3022FC902C603BEF6F8
:1002B00001523F0AE302D0C902C603BEF601523F13
:1002C0000BE302D0C501C90ABEF60105C500C90B82
:1002D000BEF60105E302CC6A0A4E0B91C501C2BE0F
:1002E000F60105E302CCC902C603BEF60152386A24
:1002F0000A4E0B57E302D06A0A4E0B5C970A5F0B5B
:10030000E302D01E0B033A0B1E0A05003A0AE30271
:10031000D01E0A2F5C1E0B2F0AE302D048063CC5F4
:1003200001D1BEF60105C500D8BEF60105E302CC39
:10033000C3FF3DFD130A130D828200C300133F3D2E
:10034000FD0242024F025C026F027E028F029B029C
:10035000A90202020F022902B402C857656C636F3A
:100360006D6520746F2044756E636174726F6E20CA
:1003700076312E300052454144590048656C6C6F0F
:1003800020776F726C6420403D2900496E7465725D
:100390007570742063616C6C6564210065786974A4
:1003A0000042796521004552524F520070726F67CA
:1003B00000456E746572696E672050524F47524116
:1003C0004D4D494E47206D6F64652E20436F6D6D16
:1003D000616E64733A0009090968203078232309A3
:1003E0003B20736574206869676820616464726586
:1003F000737320746F20307823232028233D627983
:10040000746529000909096C2030782323093B20F1
:10041000736574206C6F77206164647265737320F8
:10042000746F2030782323000909096109093B20F2
:10043000646973706C61792063757272656E742083
:1004400061646472657373000909097209093B20CC
:1004500072656164207468652062797465206174D6
:100460002063757272656E74206164647265737363
:1004700000090909772030782323093B2077726926
:100480007465207468652062797465203078232350
:100490002061742063757272656E74206164647289
:1004A000657373000909092B09093B20696E6372A2
:1004B000656D656E742061646472657373202B31A1
:1004C000000909092D09093B2064656372656D65A2
:1004D0006E742061646472657373202D31000909A4
:1004E000096A09093B206A756D7020746F20637575
:1004F0007272656E742061646472657373000909B9
:10050000096E2030782323093B20736574206E75B3
:100510006D2062797465732028302D32353529209D
:10052000666F722073657269616C20772F720009A3
:100530000909777309093B2077726974652073652F
:100540007269616C2073747265616D2028777269BD
:10055000746573206E2B31292062797465730009EC
:100560000909727309093B20726561642073657221
:1005700069616C2073747265616D202872656164B5
:1005800073206E2B31292062797465730009090983
:10059000656F6309093B20646973706C617920653C
:1005A0006E64206F6620636F6465206164647265A9
:1005B0007373000909097809093B206C6561766548
:1005C0002070726F6772616D6D696E67206D6F6408
:1005D000650009090968232020093B207365742000
:1005E00068696768206164647265737320746F2042
:1005F000232028233D6279746529000909096C23A9
:1006000009093B20736574206C6F77206164647204
:1006100065737320746F20232028233D62797465ED
:10062000290009090977232020093B207772697482
:1006300065207468652062797465202320617420C8
:1006400063757272656E74206164647265737300A1
:1006500006020609061006120614061B061D061FD2
:1006600006210628062B062E063268203078232322
:10067000006C2030782323006100720077203078EE
:100680002323002B002D006A006E203078232300E6
:10069000777300727300656F630078004A756D7040
:1006A00065642100BEBF1340FE00AEAEAEAEAEAE7E
:1006B000AEAEAEAEAEAEAEAEAEAEAEAEAEAEAEAE5A
:1006C000AEAEAEAEAEAEAEAEAEAEAEAEAEAEAEAE4A
:1006D000AEAEAEAEAEAEAEAEAEAEAEAEAEAEAEAE3A
:1006E000AEAEAEAEAEAEAEAEAEAEAEAEAEAEAEAE2A
:1006F000AEAEAEAEAEAEAEAEAEAEAEAEAEAEAEAE1A
:10070000AEAEAEAEAEAEAEAEAEAEAEAEAEAEAEAE09
:10071000AEAEAEAEAEAEAEAEAEAEAEAEAEAEAEAEF9
:10072000AEAEAEAEAEAEAEAEAEAEAEAEAEAEAEAEE9
:10073000AEAEAEAEAEAEAEAEAEAEAEAEAEAEAEAED9
:10074000AEAEAEAEAEAEAEAEAEAEAEAEAEAEAEAEC9
:10075000AEAEAEAEAEAEAEAEAEAEAEAEAEAEAEAEB9
:10076000AEAEAEAEAEAEAEAEAEAEAEAEAEAEAEAEA9
:10077000AEAEAEAEAEAEAEAEAEAEAEAEAEAEAEAE99
:10078000AEAEAEAEAEAEAEAEAEAEAEAEAEAEAEAE89
:10079000AEAEAEAEAEAEAEAEAEAEAEAEAEAEAEAE79
:1007A000AEAEAEAEAEAEAEAEAEAEAEAEAEAEAEAE69
:1007B000AEAEAEAEAEAEAEAEAEAEAEAEAEAEAEAE59
:1007C000AEAEAEAEAEAEAEAEAEAEAEAEAEAEAEAE49
:1007D000AEAEAEAEAEAEAEAEAEAEAEAEAEAEAEAE39
:1007E000AEAEAEAEAEAEAEAEAEAEAEAEAEAEAEAE29
:1007F000AEAEAEAEAEAEAEAEAEAEAEAEAEAEAEAE19
:10080000AEAEAEAEAEAEAEAEAEAEAEAEAEAEAEAE08
:10081000AEAEAEAEAEAEAEAEAEAEAEAEAEAEAEAEF8
:10082000AEAEAEAEAEAEAEAEAEAEAEAEAEAEAEAEE8
:10083000AEAEAEAEAEAEAEAEAEAEAEAEAEAEAEAED8
:10084000AEAEAEAEAEAEAEAEAEAEAEAEAEAEAEAEC8
:10085000AEAEAEAEAEAEAEAEAEAEAEAEAEAEAEAEB8
:10086000AEAEAEAEAEAEAEAEAEAEAEAEAEAEAEAEA8
:10087000AEAEAEAEAEAEAEAEAEAEAEAEAEAEAEAE98
:10088000AEAEAEAEAEAEAEAEAEAEAEAEAEAEAEAE88
:10089000AEAEAEAEAEAEAEAEAEAEAEAEAEAEAEAE78
:1008A000AEAEAEAEAEAEAEAEAEAEBEAEAEAEAEAE58
:1008B000AEA6BEA42EAAA6AEAAACAAAAAAAEAAAA00
:1008C000AAAEBABABAAAAAAEAEAEAAAAAAAEAAAA44
:1008D000AAAAAAAA2EAEAEAE2EAEAAAAAAAEAAAA5C
:1008E000AAAAAAAAAEAEAE2EAEAEAEAEAEB2AEAEB4
:1008F000AEA4AEA4A2AEA2AEAEAEBEBABAAABABA08
:10090000BAAABEA2B2AAAA2EAEAEBABABAB2BABA3F
:10091000BAAAA2B2AEAEB2A2AEAEBABABAB2BABABF
:10092000BAAAA2B22EAEB2A2AEAEAEB2AEA4A42EFF
:10093000AEAEA2AEAEAEA2AE2EAEBAAAB2AAAAA277
:10094000AEAEA22EAEAEB2A2AE8EBEAAAAAAA2AE83
:10095000AEAEBEA2AEAAAAAEAE2EB2AAAAA2A2AE57
:10096000AEAEA2AEAEAEA2AEAEAEB2AEA4AEA4AECF
:10097000AEAEA2AEAE2EA22EAEAEB2A2AEAEA2AEC3
:10098000AEAEA2AEAEAEA2AEAEAEB2A2AEAEA2AEB3
:10099000AEACA2AEAEAEA2AEAEAEBEAEAEAABEA281
:1009A000AEAEBEA2AEAAAA2EEEAEAEAEAEAEAEAEAB
:1009B000AEAEBEAEAEBEAEAEAEAEAEAEAEA6AEAE3F
:1009C000AEAEAAAAAAAEAEAEAEAEAEAEAEAEAEAE53
:1009D000AEBAAEAEAEAEAEAEAE2EAEAEAEAEAEAEAB
:1009E000AEBAAEAEAEAEAEAE2EAEAEAEAEA4AEAEA5
:1009F000AEAEA6AEAEA6AEA6AEAEAAAEAEA6AEAE3B
:100A0000AEBAAAAEAEB6BEA62EAEAEAEAEA2AEAE7A
:100A1000AEBAAEAEAEAEAEAE2EAEAEAEAEA2AEAE76
:100A2000AEBAAEAEA6AEAEAEAEAEAEA4A6AEAEAEF4
:100A3000A6AEAEA6AEAEAEAEA62EAEBAA2AEAEAE6E
:100A40002EAEAEA6AEAEAEAEAEAEAAAEAEA6AE2EDA
:100A5000AEAEAAAEAEB6BEAE2EAEA2AEAEAEAE2EAE
:100A6000AEAEAEAEAEAEAEAE2EAEA4A6AEA6AEA648
:100A7000AEAEAEAEAEA6AEA6AEAEA2AEAEAEAEAEB2
:100A8000AEAEAEAEAEAEAEAEAEAEA2AEAEAEAEAE92
:100A9000AEBEAEAEAEAEAEAEAEAEAEAEAEA6AAAE72
:100AA000AEAEAAAEAEB6BEAFAEAEAEAEAEAEAEAE51
:100AB000AEAEAEAE2EAEAEAEAEAEAEAEAEAEAEAED6
:100AC000AEAAAEAEAEAEAEAEAEAEAEAEAEAAAEAE4E
:100AD000AEACAEAEAEAEAEAEAEACAEAEAEAAAEAE3E
:100AE000AEACAEAEACAE2EAEAAAAAEAEAEAEAEAEB2
:100AF000AEAEAEAEAEAEAEAEA6AEA6AEAEAEAEAE26
:100B0000AEACB6AEAEAEA6AEAAAAAEAEAEAEAEAE0F
:100B1000AEAEAEAEA6AEAEAEAAAAAEAEAEAEAEAE05
:100B2000AEAEAEAEAEAEAEAEAEAEAEAEAEAEAE2E65
:100B3000AEA6AEAEA6AEAEAEAEAAAEAEAEAEAEAEE9
:100B4000AAAAAEAEAEAEAEAEAEAEA6AEAEAEAEAAD9
:100B5000AAAEB6AEAEAEA6AE8EAEAEAEAEAEAEAADD
:100B6000AAAEAEAEAEAEAEAEAEBEAEAEAEAEAEAE99
:100B7000A6AEAEA6AEAEAEAEAAAEAEAEAEAEAEAEA9
:100B8000AEAEAEAEAEAEAEAEAEAEAEAEAEAEAEAE85
:100B9000AEAEAEAEAEAEAEAEAEAEAEAEAEAEB6AE6D
:100BA000AEAEB6AEAEAEA6AEAEAEAEAEAEAEAEAE65
:100BB000AEAEAEAEAEAEAEAEAEAEAEAEAEAEAEAE55
:100BC000AEBAAEAEAEAEAEAEAEAEAEAEAEBAAEAE2D
:100BD000AEAEAEAEAEAEAEAEAEAEAEAEAEBAAEAE29
:100BE000AEAEAEAEAEAEAEAEAEAEAEAEAEAEAEAE25
:100BF000AEAEB6AEAEAEAEAEAEAEAEAEAEAEAEAE0D
:100C0000AEAEAEAEAEAEBAAEAEAEAEAEAEAEAEAEF8
:100C1000AEAEAEAEAEAEAEAEAEAEAEAEAEAEAEAEF4
:100C2000AEAEAEAEAEAEAEAEAEAEAEAEB6AEAEAFDB
:100C3000AEAEAEAEAEAEAEAEAEAEAEAEAEAEAEAED4
:100C4000AEAEAEAEAEAEAEAEAEAEAEAEAEAEAEAEC4
:100C5000AEAEAEAEAEAEBAAEAEAEAEAEAEAEAEAEA8
:100C6000AEAEAEAEAEAEAEAE2EAFAEB6AEAEAEAE1B
:100C7000AEAEAEAEAEAEAEAEAEAEAEAEAEAEAEAF93
:100C8000AEAEAEAEAEAFAEAFAFAEAEAEAEAFAEAF7F
:100C9000AEAEAEAEAFAEAEAFAFAFAEAEAEAEAEAE70
:100CA000AFAFAEAEAEAEBAAEAEAEAEAEAEAEAEAE56
:100CB000AEAEAEAEABAEAEAEAEAEAEAEAEAEAEAE57
:100CC000AEACAEAEAEAEAEAEAEAEAEAEAEACAEAE48
:100CD000AEAEAEAEAEAEAEAEAEAEAEAEAEACAEAE36
:100CE000AEAEAEAEAEACAEAEAEAEAEAEAEAEAEAE26
:100CF000AEAEAEAEAEAEAEAEAEA6AEAEAEAEAEAE1C
:100D0000AEAEAEAEAEAEAEAEAEAEAEAEAEAEAEAE03
:100D1000AEAEAEAEAEA6AEAEAEAEAEAEAEAEAEAEFB
:100D2000AEAEAEAEAEAAAEAEAEAEAEAEAEAEAEAAEB
:100D3000AEAEAEAEAEA6AEA6AEAEAEAEAEAEAEAEE3
:100D4000AEAEAEAEAAAEAEAEAEAEAEAEAEAEAEAEC7
:100D5000AEAAAEAEAAAEAEAEAEAEAEAEAEAEAEAEBB
:100D6000AEAAAEAEAEAEAEAEAEAEAEAEAEAEAEAEA7
:100D7000AEA6AEAEA6AEAEAEAEAAAEAEAAAEAEAEAB
:100D8000AEAEAEAEAEAEAEAEAEAEAEAEAEAEAEAE83
:100D9000AEAEAEAEAEAEAEAEAEAEAEAEAEAEAEAE73
:100DA000AEAEAEAEAEAEAEAEAEAEAEAEAEAEAEAE63
:100DB000AEAEAEAEAEAEAEAEAEAEAEAEAEAEAEAE53
:100DC000AEAEAEAEAEAEAEAEAEAEAEAEAEAEAEAE43
:100DD000AEAEAEAEAEAEAEAEAEAEAEAEAEAEAEAE33
:100DE000AEAEAEAEAEAEAEAEAEAEAEAEAEAEAEAE23
:100DF000AEAEAEAEAEAEAEAEAEAEAEAEAEAEAEAE13
:100E0000AEAEAEAEAEAEB6AEAEAEAEAEAEAEAEAEFA
:100E1000AEAEAEAEAEAEAEAEAEAEAEAEAEAEAEAEF2
:100E2000AEAEAEAEAEAEAEAEAEAEAEAEAEAEAEAEE2
:100E3000AEAEAEAEAEAEAEAEAEAEAEAEAEAEAEAED2
:100E4000AEAEAEAEAEAEAEAEAEAEAEAEAEAEAEAEC2
:100E5000AEAEAEAEAEAEB6AEAEAEAEAEAEAEAEAEAA
:100E6000AEAEAEAEAEAEAEAEAEAEAEAEAEAEAEAEA2
:100E7000AEAEAEAEAEAEAEAEAEAEAEAEAEAEAEAE92
:100E8000AEAEAEAEAEAEAEAEAEAEAEAEAEAEAEAE82
:100E9000AEAEAEAEAEAEAEAEAEAEAEAEAEAEAEAE72
:100EA000AEAEAEAEAEAEB6AEAEAEAEAEAEAEAEAE5A
:100EB000AEAEAEAEAEAEAEAEAEAEAEAEAEAEAEAE52
:100EC000AEAEAEAEAEAEAEAEAEAEAEAEAEAEAEAE42
:100ED000AEAEAEAEAEAEAEAEAEAEAEAEAEAEAEAE32
:100EE000AEAEAEAEAEAEAEAEAEAEAEAEAEAEAEAE22
:100EF000AEAEAEAEAEAEAEAEAEAEAEAEAEAEAEAE12
:100F0000AEAEAEAEAEAEAEAEAEAEAEAEAEAEAEAE01
:100F1000AEAEAEAEAEAEAEAEAEAEAEAEAEAEAEAEF1
:100F2000AEAEAEAEAEAEAEAEAEAEAEAEAEAEAEAEE1
:100F3000AEAEAEAEAEAEAEAEAEAEAEAEAEAEAEAED1
:100F4000AEAEAEAEAEAEAEAEAEAEAEAEAEAEAEAEC1
:100F5000AEAEAEAEAEAEAEAEAEAEAEAEAEAEAEAEB1
:100F6000AEAEAEAEAEAEAEAEAEAEAEAEAEAEAEAEA1
:100F7000AEAEAEAEAEAEAEAEAEAEAEAEAEAEAEAE91
:100F8000AEAEAEAEAEAEAEAEAEAEAEAEAEAEAEAE81
:100F9000AEAEAEAEAEAEAEAEAEAEAEAEAEAEAEAE71
:100FA000AEAEAEAEAEAEAEAEAEAEAEAEAEAEAEAE61
:100FB000AEAEAEAEAEAEAEAEAEAEAEAEAEAEAEAE51
:100FC000AEAEAEAEAEAEAEAEAEAEAEAEAEAEAEAE41
:100FD000AEAEAEAEAEAEAEAEAEAEAEAEAEAEAEAE31
:100FE000AEAEAEAEAEAEAEAEAEAEAEAEAEAEAEAE21
:100FF000AEAEAEAEAEAEAEAEAEAEAEAEAEAEAEAE11
:10100000AEAEAEAEAEAEAEAEAEAEAEAEAEAEAEAE00
:10101000AEAEAEAEAEAEAEAEAEAEAEAEAEAEAEAEF0
:10102000AEAEAEAEAEAEAEAEAEAEAEAEAEAEAEAEE0
:10103000AEAEAEAEAEAEAEAEAEAEAEAEAEAEAEAED0
:10104000AEAEAEAEAEAEAEAEAEAEAEAEAEAEAEAEC0
:10105000AEAEAEAEAEAEAEAEAEAEAEAEAEAEAEAEB0
:10106000AEAEAEAEAEAEAEAEAEAEAEAEAEAEAEAEA0
:10107000AEAEAEAEAEAEAEAEAEAEAEAEAEAEAEAE90
:10108000AEAEAEAEAEAEAEAEAEAEAEAEAEAEAEAE80
:10109000AEAEAEAEAEAEAEAEAEAEAEAEAEAEAEAE70
:1010A000AEAEAEAEAEAEAEAEAEAEBEAEAEAEAEAE50
:1010B000AEA6BEA42EAAA6AEAAACAAAAAAAEAAAAF8
:1010C000AAAEBABABAAAAAAEAEAEAAAAAAAEAAAA3C
:1010D000AAAAAAAA2EAEAEAE2EAEAAAAAAAEAAAA54
:1010E000AAAAAAAAAEAEAE2EAEAEAEAEAEB2AEAEAC
:1010F000AEA4AEA4A2AEA2AEAEAEBEBABAAABABA00
:10110000BAAABEA2B2AAAA2EAEAEBABABAB2BABA37
:10111000BAAAA2B2AEAEB2A2AEAEBABABAB2BABAB7
:10112000BAAAA2B22EAEB2A2AEAEAEB2AEA4A42EF7
:10113000AEAEA2AEAEAEA2AE2EAEBAAAB2AAAAA26F
:10114000AEAEA22EAEAEB2A2AE8EBEAAAAAAA2AE7B
:10115000AEAEBEA2AEAAAAAEAE2EB2AAAAA2A2AE4F
:10116000AEAEA2AEAEAEA2AEAEAEB2AEA4AEA4AEC7
:10117000AEAEA2AEAE2EA22EAEAEB2A2AEAEA2AEBB
:10118000AEAEA2AEAEAEA2AEAEAEB2A2AEAEA2AEAB
:10119000AEACA2AEAEAEA2AEAEAEBEAEAEAABEA279
:1011A000AEAEBEA2AEAAAA2EEEAEAEAEAEAEAEAEA3
:1011B000AEAEBEAEAEBEAEAEAEAEAEAEAEA6AEAE37
:1011C000AEAEAAAAAAAEAEAEAEAEAEAEAEAEAEAE4B
:1011D000AEBAAEAEAEAEAEAEAE2EAEAEAEAEAEAEA3
:1011E000AEBAAEAEAEAEAEAE2EAEAEAEAEA4AEAE9D
:1011F000AEAEA6AEAEA6AEA6AEAEAAAEAEA6AEAE33
:10120000AEBAAAAEAEB6BEA62EAEAEAEAEA2AEAE72
:10121000AEBAAEAEAEAEAEAE2EAEAEAEAEA2AEAE6E
:10122000AEBAAEAEA6AEAEAEAEAEAEA4A6AEAEAEEC
:10123000A6AEAEA6AEAEAEAEA62EAEBAA2AEAEAE66
:101240002EAEAEA6AEAEAEAEAEAEAAAEAEA6AE2ED2
:10125000AEAEAAAEAEB6BEAE2EAEA2AEAEAEAE2EA6
:10126000AEAEAEAEAEAEAEAE2EAEA4A6AEA6AEA640
:10127000AEAEAEAEAEA6AEA6AEAEA2AEAEAEAEAEAA
:10128000AEAEAEAEAEAEAEAEAEAEA2AEAEAEAEAE8A
:10129000AEBEAEAEAEAEAEAEAEAEAEAEAEA6AAAE6A
:1012A000AEAEAAAEAEB6BEAFAEAEAEAEAEAEAEAE49
:1012B000AEAEAEAE2EAEAEAEAEAEAEAEAEAEAEAECE
:1012C000AEAAAEAEAEAEAEAEAEAEAEAEAEAAAEAE46
:1012D000AEACAEAEAEAEAEAEAEACAEAEAEAAAEAE36
:1012E000AEACAEAEACAE2EAEAAAAAEAEAEAEAEAEAA
:1012F000AEAEAEAEAEAEAEAEA6AEA6AEAEAEAEAE1E
:10130000AEACB6AEAEAEA6AEAAAAAEAEAEAEAEAE07
:10131000AEAEAEAEA6AEAEAEAAAAAEAEAEAEAEAEFD
:10132000AEAEAEAEAEAEAEAEAEAEAEAEAEAEAE2E5D
:10133000AEA6AEAEA6AEAEAEAEAAAEAEAEAEAEAEE1
:10134000AAAAAEAEAEAEAEAEAEAEA6AEAEAEAEAAD1
:10135000AAAEB6AEAEAEA6AE8EAEAEAEAEAEAEAAD5
:10136000AAAEAEAEAEAEAEAEAEBEAEAEAEAEAEAE91
:10137000A6AEAEA6AEAEAEAEAAAEAEAEAEAEAEAEA1
:10138000AEAEAEAEAEAEAEAEAEAEAEAEAEAEAEAE7D
:10139000AEAEAEAEAEAEAEAEAEAEAEAEAEAEB6AE65
:1013A000AEAEB6AEAEAEA6AEAEAEAEAEAEAEAEAE5D
:1013B000AEAEAEAEAEAEAEAEAEAEAEAEAEAEAEAE4D
:1013C000AEBAAEAEAEAEAEAEAEAEAEAEAEBAAEAE25
:1013D000AEAEAEAEAEAEAEAEAEAEAEAEAEBAAEAE21
:1013E000AEAEAEAEAEAEAEAEAEAEAEAEAEAEAEAE1D
:1013F000AEAEB6AEAEAEAEAEAEAEAEAEAEAEAEAE05
:10140000AEAEAEAEAEAEBAAEAEAEAEAEAEAEAEAEF0
:10141000AEAEAEAEAEAEAEAEAEAEAEAEAEAEAEAEEC
:10142000AEAEAEAEAEAEAEAEAEAEAEAEB6AEAEAFD3
:10143000AEAEAEAEAEAEAEAEAEAEAEAEAEAEAEAECC
:10144000AEAEAEAEAEAEAEAEAEAEAEAEAEAEAEAEBC
:10145000AEAEAEAEAEAEBAAEAEAEAEAEAEAEAEAEA0
:10146000AEAEAEAEAEAEAEAE2EAFAEB6AEAEAEAE13
:10147000AEAEAEAEAEAEAEAEAEAEAEAEAEAEAEAF8B
:10148000AEAEAEAEAEAFAEAEAEAFAEAEAFAFAEAE78
:10149000AFAEAEAEAFAEAEAFAEAEAEAFAFAEAEAE67
:1014A000AFAEAEAEAFAEBAAEAEAEAEAEAEAEAEAE4E
:1014B000AEAEAEAEABAEAEAEAEAEAEAEAEAEAEAE4F
:1014C000AEACAEAEAEAEAEAEAEAEAEAEAEACAEAE40
:1014D000AEAEAEAEAEAEAEAEAEAEAEAEAEACAEAE2E
:1014E000AEAEAEAEAEACAEAEAEAEAEAEAEAEAEAE1E
:1014F000AEAEAEAEAEAEAEAEAEA6AEAEAEAEAEAE14
:10150000AEAEAEAEAEAEAEAEAEAEAEAEAEAEAEAEFB
:10151000AEAEAEAEAEA6AEAEAEAEAEAEAEAEAEAEF3
:10152000AEAEAEAEAEAAAEAEAEAEAEAEAEAEAEAAE3
:10153000AEAEAEAEAEA6AEA6AEAEAEAEAEAEAEAEDB
:10154000AEAEAEAEAAAEAEAEAEAEAEAEAEAEAEAEBF
:10155000AEAAAEAEAAAEAEAEAEAEAEAEAEAEAEAEB3
:10156000AEAAAEAEAEAEAEAEAEAEAEAEAEAEAEAE9F
:10157000AEA6AEAEA6AEAEAEAEAAAEAEAAAEAEAEA3
:10158000AEAEAEAEAEAEAEAEAEAEAEAEAEAEAEAE7B
:10159000AEAEAEAEAEAEAEAEAEAEAEAEAEAEAEAE6B
:1015A000AEAEAEAEAEAEAEAEAEAEAEAEAEAEAEAE5B
:1015B000AEAEAEAEAEAEAEAEAEAEAEAEAEAEAEAE4B
:1015C000AEAEAEAEAEAEAEAEAEAEAEAEAEAEAEAE3B
:1015D000AEAEAEAEAEAEAEAEAEAEAEAEAEAEAEAE2B
:1015E000AEAEAEAEAEAEAEAEAEAEAEAEAEAEAEAE1B
:1015F000AEAEAEAEAEAEAEAEAEAEAEAEAEAEAEAE0B
:10160000AEAEAEAEAEAEB6AEAEAEAEAEAEAEAEAEF2
:10161000AEAEAEAEAEAEAEAEAEAEAEAEAEAEAEAEEA
:10162000AEAEAEAEAEAEAEAEAEAEAEAEAEAEAEAEDA
:10163000AEAEAEAEAEAEAEAEAEAEAEAEAEAEAEAECA
:10164000AEAEAEAEAEAEAEAEAEAEAEAEAEAEAEAEBA
:10165000AEAEAEAEAEAEB6AEAEAEAEAEAEAEAEAEA2
:10166000AEAEAEAEAEAEAEAEAEAEAEAEAEAEAEAE9A
:10167000AEAEAEAEAEAEAEAEAEAEAEAEAEAEAEAE8A
:10168000AEAEAEAEAEAEAEAEAEAEAEAEAEAEAEAE7A
:10169000AEAEAEAEAEAEAEAEAEAEAEAEAEAEAEAE6A
:1016A000AEAEAEAEAEAEB6AEAEAEAEAEAEAEAEAE52
:1016B000AEAEAEAEAEAEAEAEAEAEAEAEAEAEAEAE4A
:1016C000AEAEAEAEAEAEAEAEAEAEAEAEAEAEAEAE3A
:1016D000AEAEAEAEAEAEAEAEAEAEAEAEAEAEAEAE2A
:1016E000AEAEAEAEAEAEAEAEAEAEAEAEAEAEAEAE1A
:1016F000AEAEAEAEAEAEAEAEAEAEAEAEAEAEAEAE0A
:10170000AEAEAEAEAEAEAEAEAEAEAEAEAEAEAEAEF9
:10171000AEAEAEAEAEAEAEAEAEAEAEAEAEAEAEAEE9
:10172000AEAEAEAEAEAEAEAEAEAEAEAEAEAEAEAED9
:10173000AEAEAEAEAEAEAEAEAEAEAEAEAEAEAEAEC9
:10174000AEAEAEAEAEAEAEAEAEAEAEAEAEAEAEAEB9
:10175000AEAEAEAEAEAEAEAEAEAEAEAEAEAEAEAEA9
:10176000AEAEAEAEAEAEAEAEAEAEAEAEAEAEAEAE99
:10177000AEAEAEAEAEAEAEAEAEAEAEAEAEAEAEAE89
:10178000AEAEAEAEAEAEAEAEAEAEAEAEAEAEAEAE79
:10179000AEAEAEAEAEAEAEAEAEAEAEAEAEAEAEAE69
:1017A000AEAEAEAEAEAEAEAEAEAEAEAEAEAEAEAE59
:1017B000AEAEAEAEAEAEAEAEAEAEAEAEAEAEAEAE49
:1017C000AEAEAEAEAEAEAEAEAEAEAEAEAEAEAEAE39
:1017D000AEAEAEAEAEAEAEAEAEAEAEAEAEAEAEAE29
:1017E000AEAEAEAEAEAEAEAEAEAEAEAEAEAEAEAE19
:1017F000AEAEAEAEAEAEAEAEAEAEAEAEAEAEAEAE09
:10180000AEAEAEAEAEAEAEAEAEAEAEAEAEAEAEAEF8
:10181000AEAEAEAEAEAEAEAEAEAEAEAEAEAEAEAEE8
:10182000AEAEAEAEAEAEAEAEAEAEAEAEAEAEAEAED8
:10183000AEAEAEAEAEAEAEAEAEAEAEAEAEAEAEAEC8
:10184000AEAEAEAEAEAEAEAEAEAEAEAEAEAEAEAEB8
:10185000AEAEAEAEAEAEAEAEAEAEAEAEAEAEAEAEA8
:10186000AEAEAEAEAEAEAEAEAEAEAEAEAEAEAEAE98
:10187000AEAEAEAEAEAEAEAEAEAEAEAEAEAEAEAE88
:10188000AEAEAEAEAEAEAEAEAEAEAEAEAEAEAEAE78
:10189000AEAEAEAEAEAEAEAEAEAEAEAEAEAEAEAE68
:1018A000AEAEAEAEAEAEAEAEAEAEBEAEAEAEAEAE48
:1018B000AEA6BEA42EAAA6AEAAACAAAAAAAEAAAAF0
:1018C000AAAEBABABAAAAAAEAEAEAAAAAAAEAAAA34
:1018D000AAAAAAAA2EAEAEAE2EAEAAAAAAAEAAAA4C
:1018E000AAAAAAAAAEAEAE2EAEAEAEAEAEB2AEAEA4
:1018F000AEA4AEA4A2AEA2AEAEAEBEBABAAABABAF8
:10190000BAAABEA2B2AAAA2EAEAEBABABAB2BABA2F
:10191000BAAAA2B2AEAEB2A2AEAEBABABAB2BABAAF
:10192000BAAAA2B22EAEB2A2AEAEAEB2AEA4A42EEF
:10193000AEAEA2AEAEAEA2AE2EAEBAAAB2AAAAA267
:10194000AEAEA22EAEAEB2A2AE8EBEAAAAAAA2AE73
:10195000AEAEBEA2AEAAAAAEAE2EB2AAAAA2A2AE47
:10196000AEAEA2AEAEAEA2AEAEAEB2AEA4AEA4AEBF
:10197000AEAEA2AEAE2EA22EAEAEB2A2AEAEA2AEB3
:10198000AEAEA2AEAEAEA2AEAEAEB2A2AEAEA2AEA3
:10199000AEACA2AEAEAEA2AEAEAEBEAEAEAABEA271
:1019A000AEAEBEA2AEAAAA2EEEAEAEAEAEAEAEAE9B
:1019B000AEAEBEAEAEBEAEAEAEAEAEAEAEA6AEAE2F
:1019C000AEAEAAAAAAAEAEAEAEAEAEAEAEAEAEAE43
:1019D000AEBAAEAEAEAEAEAEAE2EAEAEAEAEAEAE9B
:1019E000AEBAAEAEAEAEAEAE2EAEAEAEAEA4AEAE95
:1019F000AEAEA6AEAEA6AEA6AEAEAAAEAEA6AEAE2B
:101A0000AEBAAAAEAEB6BEA62EAEAEAEAEA2AEAE6A
:101A1000AEBAAEAEAEAEAEAE2EAEAEAEAEA2AEAE66
:101A2000AEBAAEAEA6AEAEAEAEAEAEA4A6AEAEAEE4
:101A3000A6AEAEA6AEAEAEAEA62EAEBAA2AEAEAE5E
:101A40002EAEAEA6AEAEAEAEAEAEAAAEAEA6AE2ECA
:101A5000AEAEAAAEAEB6BEAE2EAEA2AEAEAEAE2E9E
:101A6000AEAEAEAEAEAEAEAE2EAEA4A6AEA6AEA638
:101A7000AEAEAEAEAEA6AEA6AEAEA2AEAEAEAEAEA2
:101A8000AEAEAEAEAEAEAEAEAEAEA2AEAEAEAEAE82
:101A9000AEBEAEAEAEAEAEAEAEAEAEAEAEA6AAAE62
:101AA000AEAEAAAEAEB6BEAFAEAEAEAEAEAEAEAE41
:101AB000AEAEAEAE2EAEAEAEAEAEAEAEAEAEAEAEC6
:101AC000AEAAAEAEAEAEAEAEAEAEAEAEAEAAAEAE3E
:101AD000AEACAEAEAEAEAEAEAEACAEAEAEAAAEAE2E
:101AE000AEACAEAEACAE2EAEAAAAAEAEAEAEAEAEA2
:101AF000AEAEAEAEAEAEAEAEA6AEA6AEAEAEAEAE16
:101B0000AEACB6AEAEAEA6AEAAAAAEAEAEAEAEAEFF
:101B1000AEAEAEAEA6AEAEAEAAAAAEAEAEAEAEAEF5
:101B2000AEAEAEAEAEAEAEAEAEAEAEAEAEAEAE2E55
:101B3000AEA6AEAEA6AEAEAEAEAAAEAEAEAEAEAED9
:101B4000AAAAAEAEAEAEAEAEAEAEA6AEAEAEAEAAC9
:101B5000AAAEB6AEAEAEA6AE8EAEAEAEAEAEAEAACD
:101B6000AAAEAEAEAEAEAEAEAEBEAEAEAEAEAEAE89
:101B7000A6AEAEA6AEAEAEAEAAAEAEAEAEAEAEAE99
:101B8000AEAEAEAEAEAEAEAEAEAEAEAEAEAEAEAE75
:101B9000AEAEAEAEAEAEAEAEAEAEAEAEAEAEB6AE5D
:101BA000AEAEB6AEAEAEA6AEAEAEAEAEAEAEAEAE55
:101BB000AEAEAEAEAEAEAEAEAEAEAEAEAEAEAEAE45
:101BC000AEBAAEAEAEAEAEAEAEAEAEAEAEBAAEAE1D
:101BD000AEAEAEAEAEAEAEAEAEAEAEAEAEBAAEAE19
:101BE000AEAEAEAEAEAEAEAEAEAEAEAEAEAEAEAE15
:101BF000AEAEB6AEAEAEAEAEAEAEAEAEAEAEAEAEFD
:101C0000AEAEAEAEAEAEBAAEAEAEAEAEAEAEAEAEE8
:101C1000AEAEAEAEAEAEAEAEAEAEAEAEAEAEAEAEE4
:101C2000AEAEAEAEAEAEAEAEAEAEAEAEB6AEAEAFCB
:101C3000AEAEAEAEAEAEAEAEAEAEAEAEAEAEAEAEC4
:101C4000AEAEAEAEAEAEAEAEAEAEAEAEAEAEAEAEB4
:101C5000AEAEAEAEAEAEBAAEAEAEAEAEAEAEAEAE98
:101C6000AEAEAEAEAEAEAEAE2EAFAEB6AEAEAEAE0B
:101C7000AEAEAEAEAEAEAEAEAEAEAEAEAEAFAEAE83
:101C8000AFAEAEAEAEAEAEAEAFAEAEAEAFAFAEAF6F
:101C9000AEAEAEAFAEAFAEAEAEAFAEAEAFAEAEAE60
:101CA000AFAFAEAEAEAEBAAEAEAEAEAEAEAEAEAE46
:101CB000AEAEAEAEABAEAEAEAEAEAEAEAEAEAEAE47
:101CC000AEACAEAEAEAEAEAEAEAEAEAEAEACAEAE38
:101CD000AEAEAEAEAEAEAEAEAEAEAEAEAEACAEAE26
:101CE000AEAEAEAEAEACAEAEAEAEAEAEAEAEAEAE16
:101CF000AEAEAEAEAEAEAEAEAEA6AEAEAEAEAEAE0C
:101D0000AEAEAEAEAEAEAEAEAEAEAEAEAEAEAEAEF3
:101D1000AEAEAEAEAEA6AEAEAEAEAEAEAEAEAEAEEB
:101D2000AEAEAEAEAEAAAEAEAEAEAEAEAEAEAEAADB
:101D3000AEAEAEAEAEA6AEA6AEAEAEAEAEAEAEAED3
:101D4000AEAEAEAEAAAEAEAEAEAEAEAEAEAEAEAEB7
:101D5000AEAAAEAEAAAEAEAEAEAEAEAEAEAEAEAEAB
:101D6000AEAAAEAEAEAEAEAEAEAEAEAEAEAEAEAE97
:101D7000AEA6AEAEA6AEAEAEAEAAAEAEAAAEAEAE9B
:101D8000AEAEAEAEAEAEAEAEAEAEAEAEAEAEAEAE73
:101D9000AEAEAEAEAEAEAEAEAEAEAEAEAEAEAEAE63
:101DA000AEAEAEAEAEAEAEAEAEAEAEAEAEAEAEAE53
:101DB000AEAEAEAEAEAEAEAEAEAEAEAEAEAEAEAE43
:101DC000AEAEAEAEAEAEAEAEAEAEAEAEAEAEAEAE33
:101DD000AEAEAEAEAEAEAEAEAEAEAEAEAEAEAEAE23
:101DE000AEAEAEAEAEAEAEAEAEAEAEAEAEAEAEAE13
:101DF000AEAEAEAEAEAEAEAEAEAEAEAEAEAEAEAE03
:101E0000AEAEAEAEAEAEB6AEAEAEAEAEAEAEAEAEEA
:101E1000AEAEAEAEAEAEAEAEAEAEAEAEAEAEAEAEE2
:101E2000AEAEAEAEAEAEAEAEAEAEAEAEAEAEAEAED2
:101E3000AEAEAEAEAEAEAEAEAEAEAEAEAEAEAEAEC2
:101E4000AEAEAEAEAEAEAEAEAEAEAEAEAEAEAEAEB2
:101E5000AEAEAEAEAEAEB6AEAEAEAEAEAEAEAEAE9A
:101E6000AEAEAEAEAEAEAEAEAEAEAEAEAEAEAEAE92
:101E7000AEAEAEAEAEAEAEAEAEAEAEAEAEAEAEAE82
:101E8000AEAEAEAEAEAEAEAEAEAEAEAEAEAEAEAE72
:101E9000AEAEAEAEAEAEAEAEAEAEAEAEAEAEAEAE62
:101EA000AEAEAEAEAEAEB6AEAEAEAEAEAEAEAEAE4A
:101EB000AEAEAEAEAEAEAEAEAEAEAEAEAEAEAEAE42
:101EC000AEAEAEAEAEAEAEAEAEAEAEAEAEAEAEAE32
:101ED000AEAEAEAEAEAEAEAEAEAEAEAEAEAEAEAE22
:101EE000AEAEAEAEAEAEAEAEAEAEAEAEAEAEAEAE12
:101EF000AEAEAEAEAEAEAEAEAEAEAEAEAEAEAEAE02
:101F0000AEAEAEAEAEAEAEAEAEAEAEAEAEAEAEAEF1
:101F1000AEAEAEAEAEAEAEAEAEAEAEAEAEAEAEAEE1
:101F2000AEAEAEAEAEAEAEAEAEAEAEAEAEAEAEAED1
:101F3000AEAEAEAEAEAEAEAEAEAEAEAEAEAEAEAEC1
:101F4000AEAEAEAEAEAEAEAEAEAEAEAEAEAEAEAEB1
:101F5000AEAEAEAEAEAEAEAEAEAEAEAEAEAEAEAEA1
:101F6000AEAEAEAEAEAEAEAEAEAEAEAEAEAEAEAE91
:101F7000AEAEAEAEAEAEAEAEAEAEAEAEAEAEAEAE81
:101F8000AEAEAEAEAEAEAEAEAEAEAEAEAEAEAEAE71
:101F9000AEAEAEAEAEAEAEAEAEAEAEAEAEAEAEAE61
:101FA000AEAEAEAEAEAEAEAEAEAEAEAEAEAEAEAE51
:101FB000AEAEAEAEAEAEAEAEAEAEAEAEAEAEAEAE41
:101FC000AEAEAEAEAEAEAEAEAEAEAEAEAEAEAEAE31
:101FD000AEAEAEAEAEAEAEAEAEAEAEAEAEAEAEAE21
:101FE000AEAEAEAEAEAEAEAEAEAEAEAEAEAEAEAE11
:101FF000AEAEAEAEAEAEAEAEAEAEAEAEAEAEAEAE01
:10200000AEAEAEAEAEAEAEAEAEAEAEAEAEAEAEAEF0
:10201000AEAEAEAEAEAEAEAEAEAEAEAEAEAEAEAEE0
:10202000AEAEAEAEAEAEAEAEAEAEAEAEAEAEAEAED0
:10203000AEAEAEAEAEAEAEAEAEAEAEAEAEAEAEAEC0
:10204000AEAEAEAEAEAEAEAEAEAEAEAEAEAEAEAEB0
:10205000AEAEAEAEAEAEAEAEAEAEAEAEAEAEAEAEA0
:10206000AEAEAEAEAEAEAEAEAEAEAEAEAEAEAEAE90
:10207000AEAEAEAEAEAEAEAEAEAEAEAEAEAEAEAE80
:10208000AEAEAEAEAEAEAEAEAEAEAEAEAEAEAEAE70
:10209000AEAEAEAEAEAEAEAEAEAEAEAEAEAEAEAE60
:1020A000AEAEAEAEAEAEAEAEAEAEBEAEAEAEAEAE40
:1020B000AEA6BEA42EAAA6AEAAACAAAAAAAEAAAAE8
:1020C000AAAEBABABAAAAAAEAEAEAAAAAAAEAAAA2C
:1020D000AAAAAAAA2EAEAEAE2EAEAAAAAAAEAAAA44
:1020E000AAAAAAAAAEAEAE2EAEAEAEAEAEB2AEAE9C
:1020F000AEA4AEA4A2AEA2AEAEAEBEBABAAABABAF0
:10210000BAAABEA2B2AAAA2EAEAEBABABAB2BABA27
:10211000BAAAA2B2AEAEB2A2AEAEBABABAB2BABAA7
:10212000BAAAA2B22EAEB2A2AEAEAEB2AEA4A42EE7
:10213000AEAEA2AEAEAEA2AE2EAEBAAAB2AAAAA25F
:10214000AEAEA22EAEAEB2A2AE8EBEAAAAAAA2AE6B
:10215000AEAEBEA2AEAAAAAEAE2EB2AAAAA2A2AE3F
:10216000AEAEA2AEAEAEA2AEAEAEB2AEA4AEA4AEB7
:10217000AEAEA2AEAE2EA22EAEAEB2A2AEAEA2AEAB
:10218000AEAEA2AEAEAEA2AEAEAEB2A2AEAEA2AE9B
:10219000AEACA2AEAEAEA2AEAEAEBEAEAEAABEA269
:1021A000AEAEBEA2AEAAAA2EEEAEAEAEAEAEAEAE93
:1021B000AEAEBEAEAEBEAEAEAEAEAEAEAEA6AEAE27
:1021C000AEAEAAAAAAAEAEAEAEAEAEAEAEAEAEAE3B
:1021D000AEBAAEAEAEAEAEAEAE2EAEAEAEAEAEAE93
:1021E000AEBAAEAEAEAEAEAE2EAEAEAEAEA4AEAE8D
:1021F000AEAEA6AEAEA6AEA6AEAEAAAEAEA6AEAE23
:10220000AEBAAAAEAEB6BEA62EAEAEAEAEA2AEAE62
:10221000AEBAAEAEAEAEAEAE2EAEAEAEAEA2AEAE5E
:10222000AEBAAEAEA6AEAEAEAEAEAEA4A6AEAEAEDC
:10223000A6AEAEA6AEAEAEAEA62EAEBAA2AEAEAE56
:102240002EAEAEA6AEAEAEAEAEAEAAAEAEA6AE2EC2
:10225000AEAEAAAEAEB6BEAE2EAEA2AEAEAEAE2E96
:10226000AEAEAEAEAEAEAEAE2EAEA4A6AEA6AEA630
:10227000AEAEAEAEAEA6AEA6AEAEA2AEAEAEAEAE9A
:10228000AEAEAEAEAEAEAEAEAEAEA2AEAEAEAEAE7A
:10229000AEBEAEAEAEAEAEAEAEAEAEAEAEA6AAAE5A
:1022A000AEAEAAAEAEB6BEAFAEAEAEAEAEAEAEAE39
:1022B000AEAEAEAE2EAEAEAEAEAEAEAEAEAEAEAEBE
:1022C000AEAAAEAEAEAEAEAEAEAEAEAEAEAAAEAE36
:1022D000AEACAEAEAEAEAEAEAEACAEAEAEAAAEAE26
:1022E000AEACAEAEACAE2EAEAAAAAEAEAEAEAEAE9A
:1022F000AEAEAEAEAEAEAEAEA6AEA6AEAEAEAEAE0E
:10230000AEACB6AEAEAEA6AEAAAAAEAEAEAEAEAEF7
:10231000AEAEAEAEA6AEAEAEAAAAAEAEAEAEAEAEED
:10232000AEAEAEAEAEAEAEAEAEAEAEAEAEAEAE2E4D
:10233000AEA6AEAEA6AEAEAEAEAAAEAEAEAEAEAED1
:10234000AAAAAEAEAEAEAEAEAEAEA6AEAEAEAEAAC1
:10235000AAAEB6AEAEAEA6AE8EAEAEAEAEAEAEAAC5
:10236000AAAEAEAEAEAEAEAEAEBEAEAEAEAEAEAE81
:10237000A6AEAEA6AEAEAEAEAAAEAEAEAEAEAEAE91
:10238000AEAEAEAEAEAEAEAEAEAEAEAEAEAEAEAE6D
:10239000AEAEAEAEAEAEAEAEAEAEAEAEAEAEB6AE55
:1023A000AEAEB6AEAEAEA6AEAEAEAEAEAEAEAEAE4D
:1023B000AEAEAEAEAEAEAEAEAEAEAEAEAEAEAEAE3D
:1023C000AEBAAEAEAEAEAEAEAEAEAEAEAEBAAEAE15
:1023D000AEAEAEAEAEAEAEAEAEAEAEAEAEBAAEAE11
:1023E000AEAEAEAEAEAEAEAEAEAEAEAEAEAEAEAE0D
:1023F000AEAEB6AEAEAEAEAEAEAEAEAEAEAEAEAEF5
:10240000AEAEAEAEAEAEBAAEAEAEAEAEAEAEAEAEE0
:10241000AEAEAEAEAEAEAEAEAEAEAEAEAEAEAEAEDC
:10242000AEAEAEAEAEAEAEAEAEAEAEAEB6AEAEAFC3
:10243000AEAEAEAEAEAEAEAEAEAEAEAEAEAEAEAEBC
:10244000AEAEAEAEAEAEAEAEAEAEAEAEAEAEAEAEAC
:10245000AEAEAEAEAEAEBAAEAEAEAEAEAEAEAEAE90
:10246000AEAEAEAEAEAEAEAE2EAFAEB6AEAEAEAE03
:10247000AEAEAEAEAEAEAEAEAEAEAEAEAEAFAEAE7B
:10248000AEAEAEAEAEAEAEAEAEAEAEAEAEAFAEAE6B
:10249000AFAEAEAFAEAEAEAEAEAEAEAEAEAEAEAE5A
:1024A000AFAEAEAEAFAEBAAEAEAEAEAEAEAEAEAE3E
:1024B000AEAEAEAEABAEAEAEAEAEAEAEAEAEAEAE3F
:1024C000AEACAEAEAEAEAEAEAEAEAEAEAEACAEAE30
:1024D000AEAEAEAEAEAEAEAEAEAEAEAEAEACAEAE1E
:1024E000AEAEAEAEAEACAEAEAEAEAEAEAEAEAEAE0E
:1024F000AEAEAEAEAEAEAEAEAEA6AEAEAEAEAEAE04
:10250000AEAEAEAEAEAEAEAEAEAEAEAEAEAEAEAEEB
:10251000AEAEAEAEAEA6AEAEAEAEAEAEAEAEAEAEE3
:10252000AEAEAEAEAEAAAEAEAEAEAEAEAEAEAEAAD3
:10253000AEAEAEAEAEA6AEA6AEAEAEAEAEAEAEAECB
:10254000AEAEAEAEAAAEAEAEAEAEAEAEAEAEAEAEAF
:10255000AEAAAEAEAAAEAEAEAEAEAEAEAEAEAEAEA3
:10256000AEAAAEAEAEAEAEAEAEAEAEAEAEAEAEAE8F
:10257000AEA6AEAEA6AEAEAEAEAAAEAEAAAEAEAE93
:10258000AEAEAEAEAEAEAEAEAEAEAEAEAEAEAEAE6B
:10259000AEAEAEAEAEAEAEAEAEAEAEAEAEAEAEAE5B
:1025A000AEAEAEAEAEAEAEAEAEAEAEAEAEAEAEAE4B
:1025B000AEAEAEAEAEAEAEAEAEAEAEAEAEAEAEAE3B
:1025C000AEAEAEAEAEAEAEAEAEAEAEAEAEAEAEAE2B
:1025D000AEAEAEAEAEAEAEAEAEAEAEAEAEAEAEAE1B
:1025E000AEAEAEAEAEAEAEAEAEAEAEAEAEAEAEAE0B
:1025F000AEAEAEAEAEAEAEAEAEAEAEAEAEAEAEAEFB
:10260000AEAEAEAEAEAEB6AEAEAEAEAEAEAEAEAEE2
:10261000AEAEAEAEAEAEAEAEAEAEAEAEAEAEAEAEDA
:10262000AEAEAEAEAEAEAEAEAEAEAEAEAEAEAEAECA
:10263000AEAEAEAEAEAEAEAEAEAEAEAEAEAEAEAEBA
:10264000AEAEAEAEAEAEAEAEAEAEAEAEAEAEAEAEAA
:10265000AEAEAEAEAEAEB6AEAEAEAEAEAEAEAEAE92
:10266000AEAEAEAEAEAEAEAEAEAEAEAEAEAEAEAE8A
:10267000AEAEAEAEAEAEAEAEAEAEAEAEAEAEAEAE7A
:10268000AEAEAEAEAEAEAEAEAEAEAEAEAEAEAEAE6A
:10269000AEAEAEAEAEAEAEAEAEAEAEAEAEAEAEAE5A
:1026A000AEAEAEAEAEAEB6AEAEAE909090909090F6
:1026B000909090909090909090909090909090901A
:1026C000909090909090909090909090909090900A
:1026D00090909090909090909090909090909090FA
:1026E00090909090909090909090909090909090EA
:1026F00090909090909090909090909090909090DA
:1027000090909090909090909090909090909090C9
:1027100090909090909090909090909090909090B9
:1027200090909090909090909090909090909090A9
:102730009090909090909090909090909090909099
:102740009090909090909090909090909090909089
:102750009090909090909090909090909090909079
:102760009090909090909090909090909090909069
:102770009090909090909090909090909090909059
:102780009090909090909090909090909090909049
:102790009090909090909090909090909090909039
:1027A0009090909090909090909090909090909029
:1027B0009090909090909090909090909090909019
:1027C0009090909090909090909090909090909009
:1027D00090909090909090909090909090909090F9
:1027E00090909090909090909090909090909090E9
:1027F00090909090909090909090909090909090D9
:1028000090909090909090909090909090909090C8
:1028100090909090909090909090909090909090B8
:1028200090909090909090909090909090909090A8
:102830009090909090909090909090909090909098
:102840009090909090909090909090909090909088
:102850009090909090909090909090909090909078
:102860009090909090909090909090909090909068
:102870009090909090909090909090909090909058
:102880009090909090909090909090909090909048
:102890009090909090909090909090909090909038
:1028A00090909090909090909090109090829090B6
:1028B0009090909090901090901010101090101098
:1028C0001090101010901090909010101090101008
:1028D000109490109090909090B010101090101054
:1028E000109490109090B090B090908282908282DC
:1028F0008290909090909090909010101090101066
:102900001094109090909090B09010101090101023
:102910001094909090909090B09010101090101093
:10292000109490909090909082828290909090904D
:10293000909090909090909090B010949090109073
:10294000B09090909082909090901090109090B055
:102950009090109090909082B0909090109090B045
:102960009090908282909090B09090909090909063
:102970009090909090909090909090909090909057
:102980009082909090909090909090909090909055
:10299000909490D090D09090909082D0D0901090C1
:1029A00090901090D0909090909082101090101075
:1029B0001090029050029090909082828290828239
:1029C0008290909090909090909482828290828257
:1029D00082979090D01090945090828282908282C0
:1029E00082979090909494D4909010909090909022
:1029F0009090909090909090909490828282828219
:102A000082979090908210D0909082828290828261
:102A100082979090909490909090828282908282FF
:102A200082979090D094909090909090909090D425
:102A30009090909090949094D09082979090909055
:102A4000909090D0949090901090909090829090D0
:102A5000909490909482109090C0909090909090CC
:102A6000909490909010901090949090909090905E
:102A70009094909094D090D09094909094909094C2
:102A80009090901010949094949090909094909432
:102A9000909490D094D09094949490D0D082909030
:102AA00094949090D08210D790909082829082825D
:102AB0008290909090909090909090909090909024
:102AC00090949090909090909090909090949090FE
:102AD0009098909090901090909890909094909062
:102AE00090989090989090909898829090909090D4
:102AF00090909090909090909090829090909090E4
:102B000090988290909082909898909090909090C9
:102B100090909090909090909898909090909090A5
:102B200090909090909090909090909090909090A5
:102B3000909090909090909090989090909090908D
:102B40009898909090909090829082909090909889
:102B50009890829090908290989090909090909879
:102B60009890909090829082BD909090909090904C
:102B7000909090909090909098909090909090904D
:102B80009090908282909090909090909090909061
:102B9000909690909090909090909090909082903D
:102BA0009090829090908290909090909090909041
:102BB00090909090D4909010909090909090909051
:102BC00090979090909090909097909090979090F0
:102BD00090909090909090979090909090979090E7
:102BE0009090909090979E909090909090909090D0
:102BF00090909090909090909097909090909090CE
:102C000090909090909090909090909090909090C4
:102C100090909090909790909090909090909090AD
:102C2000909090909097909090909090909090D756
:102C30009090909090979097909090909090909086
:102C4000909090909790909090909090909090907D
:102C50009097909097909090909090909090909066
:102C60009097909090909090909790909090909056
:102C70009097909097909090909790909790909731
:102C80009090909090979097979090909097909721
:102C90009090909097909097979790909090909018
:102CA0009797909090909090909090909090909016
:102CB000909090909790909090909090909090900D
:102CC00090989090909090909090909090989090F4
:102CD000909090909090901090909090909890906C
:102CE00090909090909890909090909090909090DC
:102CF00090909090909090909090909090909090D4
:102D00009090909090901090909090909090909043
:102D100090909090909090909090909090909090B3
:102D2000909090909098909090909090909090909B
:102D30009090909090909090909090909090909093
:102D4000909090909890909090909090909090907B
:102D500090989090989010909090909090909090E3
:102D600090989090909090909E909090909090904D
:102D70009090909090909090909890909890909043
:102D80009090909090909090909090909090909043
:102D90009090909090909090909090909090909033
:102DA00090909090909010909090909090909090A3
:102DB0009090909090909090909090909090909013
:102DC0009090909090909090909090909090909003
:102DD00090909090909090909090909090909090F3
:102DE00090909090909090909090909090909090E3
:102DF00090909090909090909090909090909090D3
:102E000090909090909082909090909090909090D0
:102E100090909090909090909090909090909090B2
:102E200090909090909090909090909090909090A2
:102E30009090909090909090909090909090909092
:102E40009090909090909090909090909090909082
:102E50009090909090908290909090909090909080
:102E60009090909090909090909090909090909062
:102E70009090909090909090909090909090909052
:102E80009090909090909090909090909090909042
:102E90009090909090909090909090909090909032
:102EA0009090909090908290909090909090909030
:102EB0009090909090909090909090909090909012
:102EC0009090909090909090909090909090909002
:102ED00090909090909090909090909090909090F2
:102EE00090909090909090909090909090909090E2
:102EF00090909090909090909090909090909090D2
:102F000090909090909090909090909090909090C1
:102F100090909090909090909090909090909090B1
:102F200090909090909090909090909090909090A1
:102F30009090909090909090909090909090909091
:102F40009090909090909090909090909090909081
:102F50009090909090909090909090909090909071
:102F60009090909090909090909090909090909061
:102F70009090909090909090909090909090909051
:102F80009090909090909090909090909090909041
:102F90009090909090909090909090909090909031
:102FA0009090909090909090909090909090909021
:102FB0009090909090909090909090909090909011
:102FC0009090909090909090909090909090909001
:102FD00090909090909090909090909090909090F1
:102FE00090909090909090909090909090909090E1
:102FF00090909090909090909090909090909090D1
:1030000090909090909090909090909090909090C0
:1030100090909090909090909090909090909090B0
:1030200090909090909090909090909090909090A0
:103030009090909090909090909090909090909090
:103040009090909090909090909090909090909080
:103050009090909090909090909090909090909070
:103060009090909090909090909090909090909060
:103070009090909090909090909090909090909050
:103080009090909090909090909090909090909040
:103090009090909090909090909090909090909030
:1030A00090909090909090909090109090829090AE
:1030B0009090909090901090901010101090101090
:1030C0001090101010901090909010101090101000
:1030D000109490109090909090B01010109010104C
:1030E000109490109090B090B090908282908282D4
:1030F000829090909090909090901010109010105E
:103100001094109090909090B0901010109010101B
:103110001094909090909090B0901010109010108B
:103120001094909090909090828282909090909045
:10313000909090909090909090B01094909010906B
:10314000B09090909082909090901090109090B04D
:103150009090109090909082B0909090109090B03D
:103160009090908282909090B0909090909090905B
:10317000909090909090909090909090909090904F
:10318000908290909090909090909090909090904D
:10319000909490D090D09090D0D0829090901090B9
:1031A00090D010909090909090908210109010106D
:1031B0001090029050029090909082828290828231
:1031C000829090909090909090948282829082824F
:1031D00082979090D01090945090828282908282B8
:1031E00082979090909494D490901090909090901A
:1031F0009090909090909090909490828282828211
:1032000082979090908210D0909082828290828259
:1032100082979090909490909090828282908282F7
:1032200082979090D094909090909090909090D41D
:103230009090909090949094D0908297909090904D
:10324000909090D0949090901090909090829090C8
:10325000909490909482109090C0909090909090C4
:103260009094909090109010909490909090909056
:103270009094909094D090D09094909094909094BA
:10328000909090101094909090949090949490902E
:10329000949490D094D09094D0D090949482909024
:1032A00094D09090948210D7909090828290828255
:1032B000829090909090909090909090909090901C
:1032C00090949090909090909090909090949090F6
:1032D000909890909090109090989090909490905A
:1032E00090989090989090909898829090909090CC
:1032F00090909090909090909090829090909090DC
:1033000090988290909082909898909090909090C1
:10331000909090909090909098989090909090909D
:10332000909090909090909090909090909090909D
:103330009090909090909090909890909090909085
:103340009898909090909090829082909090909881
:103350009890829090908290989090909090909871
:103360009890909090829082BD9090909090909044
:103370009090909090909090989090909090909045
:103380009090908282909090909090909090909059
:103390009096909090909090909090909090829035
:1033A0009090829090908290909090909090909039
:1033B00090909090D4909010909090909090909049
:1033C00090979090909090909097909090979090E8
:1033D00090909090909090979090909090979090DF
:1033E0009090909090979E909090909090909090C8
:1033F00090909090909090909097909090909090C6
:1034000090909090909090909090909090909090BC
:1034100090909090909790909090909090909090A5
:10342000909090909097909090909090909090D74E
:10343000909090909097909790909090909090907E
:103440009090909097909090909090909090909075
:10345000909790909790909090909090909090905E
:10346000909790909090909090979090909090904E
:103470009097909097909090909790909790909729
:103480009090909090979090909790909797909020
:103490009790909097909097909090979790909009
:1034A000979090909790909090909090909090900E
:1034B0009090909097909090909090909090909005
:1034C00090989090909090909090909090989090EC
:1034D0009090909090909010909090909098909064
:1034E00090909090909890909090909090909090D4
:1034F00090909090909090909090909090909090CC
:10350000909090909090109090909090909090903B
:1035100090909090909090909090909090909090AB
:103520009090909090989090909090909090909093
:10353000909090909090909090909090909090908B
:103540009090909098909090909090909090909073
:1035500090989090989010909090909090909090DB
:1035600090989090909090909E9090909090909045
:10357000909090909090909090989090989090903B
:10358000909090909090909090909090909090903B
:10359000909090909090909090909090909090902B
:1035A000909090909090109090909090909090909B
:1035B000909090909090909090909090909090900B
:1035C00090909090909090909090909090909090FB
:1035D00090909090909090909090909090909090EB
:1035E00090909090909090909090909090909090DB
:1035F00090909090909090909090909090909090CB
:1036000090909090909082909090909090909090C8
:1036100090909090909090909090909090909090AA
:10362000909090909090909090909090909090909A
:10363000909090909090909090909090909090908A
:10364000909090909090909090909090909090907A
:103650009090909090908290909090909090909078
:10366000909090909090909090909090909090905A
:10367000909090909090909090909090909090904A
:10368000909090909090909090909090909090903A
:10369000909090909090909090909090909090902A
:1036A0009090909090908290909090909090909028
:1036B000909090909090909090909090909090900A
:1036C00090909090909090909090909090909090FA
:1036D00090909090909090909090909090909090EA
:1036E00090909090909090909090909090909090DA
:1036F00090909090909090909090909090909090CA
:1037000090909090909090909090909090909090B9
:1037100090909090909090909090909090909090A9
:103720009090909090909090909090909090909099
:103730009090909090909090909090909090909089
:103740009090909090909090909090909090909079
:103750009090909090909090909090909090909069
:103760009090909090909090909090909090909059
:103770009090909090909090909090909090909049
:103780009090909090909090909090909090909039
:103790009090909090909090909090909090909029
:1037A0009090909090909090909090909090909019
:1037B0009090909090909090909090909090909009
:1037C00090909090909090909090909090909090F9
:1037D00090909090909090909090909090909090E9
:1037E00090909090909090909090909090909090D9
:1037F00090909090909090909090909090909090C9
:1038000090909090909090909090909090909090B8
:1038100090909090909090909090909090909090A8
:103820009090909090909090909090909090909098
:103830009090909090909090909090909090909088
:103840009090909090909090909090909090909078
:103850009090909090909090909090909090909068
:103860009090909090909090909090909090909058
:103870009090909090909090909090909090909048
:103880009090909090909090909090909090909038
:103890009090909090909090909090909090909028
:1038A00090909090909090909090109090829090A6
:1038B0009090909090901090901010101090101088
:1038C00010901010109010909090101010901010F8
:1038D000109490109090909090B010101090101044
:1038E000109490109090B090B090908282908282CC
:1038F0008290909090909090909010101090101056
:103900001094109090909090B09010101090101013
:103910001094909090909090B09010101090101083
:10392000109490909090909082828290909090903D
:10393000909090909090909090B010949090109063
:10394000B09090909082909090901090109090B045
:103950009090109090909082B0909090109090B035
:103960009090908282909090B09090909090909053
:103970009090909090909090909090909090909047
:103980009082909090909090909090909090909045
:1039900090949090D09090D0D09082D090901090B1
:1039A00090901090D0909090909082101090101065
:1039B0001090029050029090909082828290828229
:1039C0008290909090909090909482828290828247
:1039D00082979090D01090945090828282908282B0
:1039E00082979090909494D4909010909090909012
:1039F0009090909090909090909490828282828209
:103A000082979090908210D0909082828290828251
:103A100082979090909490909090828282908282EF
:103A200082979090D094909090909090909090D415
:103A30009090909090949094D09082979090909045
:103A4000909090D0949090901090909090829090C0
:103A5000909490909482109090C0909090909090BC
:103A6000909490909010901090949090909090904E
:103A70009094909094D090D09094909094949090B2
:103A80009490901010909090949090909494909422
:103A900090949094D09490D0D09490D09482909020
:103AA00094949090D08210D790909082829082824D
:103AB0008290909090909090909090909090909014
:103AC00090949090909090909090909090949090EE
:103AD0009098909090901090909890909094909052
:103AE00090989090989090909898829090909090C4
:103AF00090909090909090909090829090909090D4
:103B000090988290909082909898909090909090B9
:103B10009090909090909090989890909090909095
:103B20009090909090909090909090909090909095
:103B3000909090909090909090989090909090907D
:103B40009898909090909090829082909090909879
:103B50009890829090908290989090909090909869
:103B60009890909090829082BD909090909090903C
:103B7000909090909090909098909090909090903D
:103B80009090908282909090909090909090909051
:103B9000909690909090909090909090909082902D
:103BA0009090829090908290909090909090909031
:103BB00090909090D4909010909090909090909041
:103BC00090979090909090909097909090979090E0
:103BD00090909090909090979090909090979090D7
:103BE0009090909090979E909090909090909090C0
:103BF00090909090909090909097909090909090BE
:103C000090909090909090909090909090909090B4
:103C1000909090909097909090909090909090909D
:103C2000909090909097909090909090909090D746
:103C30009090909090979097909090909090909076
:103C4000909090909790909090909090909090906D
:103C50009097909097909090909090909090909056
:103C60009097909090909090909790909090909046
:103C70009097909097909090909790909797909021
:103C80009790909090909090979090909797909711
:103C90009090909790979090909790909790909008
:103CA0009797909090909090909090909090909006
:103CB00090909090979090909090909090909090FD
:103CC00090989090909090909090909090989090E4
:103CD000909090909090901090909090909890905C
:103CE00090909090909890909090909090909090CC
:103CF00090909090909090909090909090909090C4
:103D00009090909090901090909090909090909033
:103D100090909090909090909090909090909090A3
:103D2000909090909098909090909090909090908B
:103D30009090909090909090909090909090909083
:103D4000909090909890909090909090909090906B
:103D500090989090989010909090909090909090D3
:103D600090989090909090909E909090909090903D
:103D70009090909090909090909890909890909033
:103D80009090909090909090909090909090909033
:103D90009090909090909090909090909090909023
:103DA0009090909090901090909090909090909093
:103DB0009090909090909090909090909090909003
:103DC00090909090909090909090909090909090F3
:103DD00090909090909090909090909090909090E3
:103DE00090909090909090909090909090909090D3
:103DF00090909090909090909090909090909090C3
:103E000090909090909082909090909090909090C0
:103E100090909090909090909090909090909090A2
:103E20009090909090909090909090909090909092
:103E30009090909090909090909090909090909082
:103E40009090909090909090909090909090909072
:103E50009090909090908290909090909090909070
:103E60009090909090909090909090909090909052
:103E70009090909090909090909090909090909042
:103E80009090909090909090909090909090909032
:103E90009090909090909090909090909090909022
:103EA0009090909090908290909090909090909020
:103EB0009090909090909090909090909090909002
:103EC00090909090909090909090909090909090F2
:103ED00090909090909090909090909090909090E2
:103EE00090909090909090909090909090909090D2
:103EF00090909090909090909090909090909090C2
:103F000090909090909090909090909090909090B1
:103F100090909090909090909090909090909090A1
:103F20009090909090909090909090909090909091
:103F30009090909090909090909090909090909081
:103F40009090909090909090909090909090909071
:103F50009090909090909090909090909090909061
:103F60009090909090909090909090909090909051
:103F70009090909090909090909090909090909041
:103F80009090909090909090909090909090909031
:103F90009090909090909090909090909090909021
:103FA0009090909090909090909090909090909011
:103FB0009090909090909090909090909090909001
:103FC00090909090909090909090909090909090F1
:103FD00090909090909090909090909090909090E1
:103FE00090909090909090909090909090909090D1
:103FF00090909090909090909090909090909090C1
:1040000090909090909090909090909090909090B0
:1040100090909090909090909090909090909090A0
:104020009090909090909090909090909090909090
:104030009090909090909090909090909090909080
:104040009090909090909090909090909090909070
:104050009090909090909090909090909090909060
:104060009090909090909090909090909090909050
:104070009090909090909090909090909090909040
:104080009090909090909090909090909090909030
:104090009090909090909090909090909090909020
:1040A000909090909090909090901090908290909E
:1040B0009090909090901090901010101090101080
:1040C00010901010109010909090101010901010F0
:1040D000109490109090909090B01010109010103C
:1040E000109490109090B090B090908282908282C4
:1040F000829090909090909090901010109010104E
:104100001094109090909090B0901010109010100B
:104110001094909090909090B0901010109010107B
:104120001094909090909090828282909090909035
:10413000909090909090909090B01094909010905B
:10414000B09090909082909090901090109090B03D
:104150009090109090909082B0909090109090B02D
:104160009090908282909090B0909090909090904B
:10417000909090909090909090909090909090903F
:10418000908290909090909090909090909090903D
:1041900090949090D0D090D0D0D082D0D0901090E9
:1041A00090D010909090909090908210109010105D
:1041B0001090029050029090909082828290828221
:1041C000829090909090909090948282829082823F
:1041D00082979090D01090945090828282908282A8
:1041E00082979090909494D490901090909090900A
:1041F0009090909090909090909490828282828201
:1042000082979090908210D0909082828290828249
:1042100082979090909490909090828282908282E7
:1042200082979090D094909090909090909090D40D
:104230009090909090949094D0908297909090903D
:10424000909090D0949090901090909090829090B8
:10425000909490909482109090C0909090909090B4
:104260009094909090109010909490909090909046
:104270009094909094D090D09094909094949090AA
:10428000909090101090909090909090909490902A
:1042900094949094D0D090D0D0D090D0D082909060
:1042A00094D09090948210D7909090828290828245
:1042B000829090909090909090909090909090900C
:1042C00090949090909090909090909090949090E6
:1042D000909890909090109090989090909490904A
:1042E00090989090989090909898829090909090BC
:1042F00090909090909090909090829090909090CC
:1043000090988290909082909898909090909090B1
:10431000909090909090909098989090909090908D
:10432000909090909090909090909090909090908D
:104330009090909090909090909890909090909075
:104340009898909090909090829082909090909871
:104350009890829090908290989090909090909861
:104360009890909090829082BD9090909090909034
:104370009090909090909090989090909090909035
:104380009090908282909090909090909090909049
:104390009096909090909090909090909090829025
:1043A0009090829090908290909090909090909029
:1043B00090909090D4909010909090909090909039
:1043C00090979090909090909097909090979090D8
:1043D00090909090909090979090909090979090CF
:1043E0009090909090979E909090909090909090B8
:1043F00090909090909090909097909090909090B6
:1044000090909090909090909090909090909090AC
:104410009090909090979090909090909090909095
:10442000909090909097909090909090909090D73E
:10443000909090909097909790909090909090906E
:104440009090909097909090909090909090909065
:10445000909790909790909090909090909090904E
:10446000909790909090909090979090909090903E
:104470009097909097909090909790909797909019
:104480009090909090909090909090909097909025
:10449000979090979090909090909090909090900E
:1044A00097909090979090909090909090909090FE
:1044B00090909090979090909090909090909090F5
:1044C00090989090909090909090909090989090DC
:1044D0009090909090909010909090909098909054
:1044E00090909090909890909090909090909090C4
:1044F00090909090909090909090909090909090BC
:10450000909090909090109090909090909090902B
:10451000909090909090909090909090909090909B
:104520009090909090989090909090909090909083
:10453000909090909090909090909090909090907B
:104540009090909098909090909090909090909063
:1045500090989090989010909090909090909090CB
:1045600090989090909090909E9090909090909035
:10457000909090909090909090989090989090902B
:10458000909090909090909090909090909090902B
:10459000909090909090909090909090909090901B
:1045A000909090909090109090909090909090908B
:1045B00090909090909090909090909090909090FB
:1045C00090909090909090909090909090909090EB
:1045D00090909090909090909090909090909090DB
:1045E00090909090909090909090909090909090CB
:1045F00090909090909090909090909090909090BB
:1046000090909090909082909090909090909090B8
:10461000909090909090909090909090909090909A
:10462000909090909090909090909090909090908A
:10463000909090909090909090909090909090907A
:10464000909090909090909090909090909090906A
:104650009090909090908290909090909090909068
:10466000909090909090909090909090909090904A
:10467000909090909090909090909090909090903A
:10468000909090909090909090909090909090902A
:10469000909090909090909090909090909090901A
:1046A00090909090909082909090474747474747CE
:1046B000474747474747474747474747474747478A
:1046C000474747474747474747474747474747477A
:1046D000474747474747474747474747474747476A
:1046E000474747474747474747474747474747475A
:1046F000474747474747474747474747474747474A
:104700004747474747474747474747474747474739
:104710004747474747474747474747474747474729
:104720004747474747474747474747474747474719
:104730004747474747474747474747474747474709
:1047400047474747474747474747474747474747F9
:1047500047474747474747474747474747474747E9
:1047600047474747474747474747474747474747D9
:1047700047474747474747474747474747474747C9
:1047800047474747474747474747474747474747B9
:1047900047474747474747474747474747474747A9
:1047A000474747474747474747473B3B3B3B3B3BE1
:1047B0003B3B3B3B3B3B3B3B3B3B3B3B3B3B3B3B49
:1047C0003B3B3B3B3B3B3B3B3B3B3B3B3B3B3B3B39
:1047D0003B3B3B3B3B3B3B3B3B3B3B3B3B3B3B3B29
:1047E0003B3B3B3B3B3B3B3B3B3B3B3B3B3B3B3B19
:1047F0003B3B3B3B3B3B3B3B3B3B3B3B3B3B3B3B09
:104800003B3B3B3B3B3B3B3B3B3B3B3B3B3B3B3BF8
:104810003B3B3B3B3B3B3B3B3B3B3B3B3B3B3B3BE8
:104820003B3B3B3B3B3B3B3B3B3B3B3B3B3B3B3BD8
:104830003B3B3B3B3B3B3B3B3B3B3B3B3B3B3B3BC8
:104840003B3B3B3B3B3B3B3B3B3B3B3B3B3B3B3BB8
:104850003B3B3B3B3B3B3B3B3B3B3B3B3B3B3B3BA8
:104860003B3B3B3B3B3B3B3B3B3B3B3B3B3B3B3B98
:104870003B3B3B3B3B3B3B3B3B3B3B3B3B3B3B3B88
:104880003B3B3B3B3B3B3B3B3B3B3B3B3B3B3B3B78
:104890003B3B3B3B3B3B3B3B3B3B3B3B3B3B3B3B68
:1048A0003B3B3B3B3B3B3B3B3B3B6F4747EC474743
:1048B00047EE6EEF4F6EEF47EEEF6F6F6F476F6F24
:1048C0006F476F6F6FEEEF4747476F6F6F476F6FC1
:1048D0006F6FEEEF4F4747474F6F6F6F6F476F6FC9
:1048E0006F6FEEEF4747474F6F4747ECEF6FECECCA
:1048F000EFEF47EFEF47EF4747476F6F6F6E6F6F11
:104900006F6F6FEFEF6E6E4F6F476F6F6F6F6F6F01
:104910006F6FEFEF4747EFEF6F476F6F6F6F6F6F1F
:104920006F6FEFEF4F47EFEFECECEC6F47EFEF4FB0
:104930004747EF474747EF474F6F6F6F6FEEEFEF18
:104940006F47EF4F47ECEFEF47EE6FEEEF6EEF6F15
:1049500047476FEF476E6EEC6F4F6FEEEFEFEF6F05
:104960004747EFECEC47EF476F4F6F47EF47EF4795
:104970004747EF47474FEF4F47476FEF477FEF47B7
:104980007FECEF474747EF47477F6FEF7F47EF47A2
:104990007F6FEF7F477FEF474747EC7F7F6E6FEF7B
:1049A00047476FEF7F6E6E4FEFEFEC3F3F6F3F3F3C
:1049B0003F6FED6F2FED6F3E6F6FECECEFBFECECE8
:1049C000EF3EEEEEEE6F6FBE1F3FECECEF3EECEC19
:1049D000EF4F6F6FAEBF1F3FAF4FECECEF3EECEC15
:1049E000EF4F6F6F1F3F3FAF4F1F3F6F6FEF6F6F07
:1049F0006F6F3F6F6FBF6FBF1F3F6EECEFEDECEC63
:104A0000EF4F6E6F6FED6FAF4F1FECECEFEFECEC15
:104A1000EF4F6F6F1F3F6F6F4F1FECECEFEFECEC42
:104A2000EF4F6F6FAF3F6F6F6F6F6FEF3F6F6F2F16
:104A3000BF1F6FBF1F3F6F3FAF4FEC4FEF6F6F6FE9
:104A40004F1F6FAF3F6F6F6F3F6F6E6F6FED6F4FA9
:104A50001F3F6E6F3FED6F6F4FAFEF6F6F6F6F4F19
:104A60001F3F6F6F6F3F6F3F4F2FEF3F6FBF6FBFA6
:104A70001F3F6F1F3FAF6FAF1F3FEF6F3FFF6F3F96
:104A8000FF6F6F3F3F3F6F3F3FFFEF6FFF3F6F3F56
:104A9000FF6F6FFF3FFF6F3F3F3F6FFFFFED6E6F99
:104AA0003F3F6E6FFFED6F2F6F6F6FECEF6FECECB2
:104AB000EF6F6F6F4F6F6F476F6F6F6F6F6F6F6FCE
:104AC0006F6F6F6F6F6F6F6FAE476F6F6F6F6F6FDF
:104AD0006FEF6F6F6F6FAF476FEF6F6F6F6F6F6FCE
:104AE0006FEF6F6FEF474F6FEFEFEC6F6F6F6F6FA1
:104AF0006F6F476F6F6F6F6FAF47ED6F6F6F6F6F58
:104B00006FEFED6F6F6F6D6FEFEF6F6F6F6F6F6FB9
:104B10006FAE6F6FAF476F6FEFEF6F6F6F6F6F6F4E
:104B20006FAE6F6F6F476F6F6F6F6F6F476F6F4FC6
:104B30006FAF6F6FAF476F476FEF6FAE6F6F6F6F96
:104B4000EFEF6F6F476F6F6FEC6FED6F6F6F6FEF22
:104B5000EF47ED6F476F6D6FEF6F6F6F6F6F6FEFB9
:104B6000EF476F6F6FEC6FEC674F6F476F6F6F6F53
:104B7000AF476FAF476F6F6FEF476F6F476F6F470D
:104B80006F6F6FECEC476F47476F6F6F6F476F4703
:104B90006FEE6F6F476F6F4747476F6F6F6FED6FC8
:104BA0004747ED6F6F6F6D7F6F6F6F6F6F6F6F6FD9
:104BB0006F6F6F6F2F6F6FBF6F6F6F6F6F6F6F6FF5
:104BC0006F4F6F6F6F6F6F6F6F1F6F6F6F4F6F6F85
:104BD0006F6F6F6F6F6F6F1F6F6F6F6F6F4F6F6F55
:104BE0006F6F6F6F6F1FEF6F6F6F6F6F6F6F6F6FA5
:104BF0006F6FBF6F6F6F6F6F6F1F6F6F6F6F6F6FC5
:104C00006F6F6F6F6F6F6E6F6F6F6F6F6F6F6F6FB5
:104C10006F6F6F6F6F1F6F6F6F6F6F6F6F6F6F6FF4
:104C20006F6F6F6F6F1F6F6F6F6F6F6FBF6F6F2FD4
:104C30006F6F6F6F6F1F6F1F6F6F6F6F6F6F6F6F24
:104C40006F6F6F6F1F6F6F6F6F6F6F6F6F6F6F6FC4
:104C50006F1F6F6F1F6F6E6F6F6F6F6F6F6F6F6F05
:104C60006F1F6F6F6F6F6F6F4FAF6FBF6F6F6F6F34
:104C70006F1F6F6F1F6F6F6F6F1F6F6F1F6F6FAF44
:104C80006F6F6F6F6FAF6FAFAF6F6F6F6FAF6FAFF4
:104C90006F6F6F6FAF6F6FAFAFAF6F6F6F6F6F6F24
:104CA000AFAF6F6F6F6F6E7F6F6F6F6F6F6F6F6F85
:104CB0006F6F6F6FEF6F6F6F6F6F6F6F6F6F6F6F84
:104CC0006FEF6F6F6F6F6F6F6FAE6F6F6FEF6F6FB5
:104CD0006F6F6F6F6F6F6FAF6F6F6F6F6FEF6F6F24
:104CE0006F6F6F6F6FEF6F6F6F6F6F6F6F6F6F6F54
:104CF0006F6F6F6F6F6F6F6F6FAF6F6F6F6F6F6F84
:104D00006F6F6F6F6F6F6F6F6F6F6F6F6F6F6F6FB3
:104D10006F6F6F6F6FAF6F6F6F6F6F6F6F6F6F6F63
:104D20006F6F6F6F6FEF6F6F6F6F6F6F6F6F6FFF83
:104D30006F6F6F6F6FAF6FAF6F6F6F6F6F6F6F6F03
:104D40006F6F6F6FEF6F6F6F6F6F6F6F6F6F6F6FF3
:104D50006FEF6F6FEF6F6F6F6F6F6F6F6F6F6F6F63
:104D60006FEF6F6F6F6F6F6FEF6F6F6F6F6F6F6F53
:104D70006FAF6F6FAF6F6F6F6FEF6F6FEF6F6F6FC3
:104D80006F6F6F6F6F6F6F6F6F6F6F6F6F6F6F6F33
:104D90006F6F6F6F6F6F6F6F6F6F6F6F6F6F6F6F23
:104DA0006F6F6F6F6F6F6FFF6F6F6F6F6F6F6F6F83
:104DB0006F6F6F6F6F6F6F6F6F6F6F6F6F6F6F6F03
:104DC0006F6F6F6F6F6F6F6F6F6F6F6F6F6F6F6FF3
:104DD0006F6F6F6F6F6F6F6F6F6F6F6F6F6F6F6FE3
:104DE0006F6F6F6F6F6F6F6F6F6F6F6F6F6F6F6FD3
:104DF0006F6F6F6F6F6F6F6F6F6F6F6F6F6F6F6FC3
:104E00006F6F6F6F6F6FED6F6F6F6F6F6F6F6F6F34
:104E10006F6F6F6F6F6F6F6F6F6F6F6F6F6F6F6FA2
:104E20006F6F6F6F6F6F6F6F6F6F6F6F6F6F6F6F92
:104E30006F6F6F6F6F6F6F6F6F6F6F6F6F6F6F6F82
:104E40006F6F6F6F6F6F6F6F6F6F6F6F6F6F6F6F72
:104E50006F6F6F6F6F6FED6F6F6F6F6F6F6F6F6FE4
:104E60006F6F6F6F6F6F6F6F6F6F6F6F6F6F6F6F52
:104E70006F6F6F6F6F6F6F6F6F6F6F6F6F6F6F6F42
:104E80006F6F6F6F6F6F6F6F6F6F6F6F6F6F6F6F32
:104E90006F6F6F6F6F6F6F6F6F6F6F6F6F6F6F6F22
:104EA0006F6F6F6F6F6FED6F6F6F47474747474784
:104EB0004747474747474747474747474747474782
:104EC0004747474747474747474747474747474772
:104ED0004747474747474747474747474747474762
:104EE0004747474747474747474747474747474752
:104EF0004747474747474747474747474747474742
:104F00004747474747474747474747474747474731
:104F10004747474747474747474747474747474721
:104F20004747474747474747474747474747474711
:104F30004747474747474747474747474747474701
:104F400047474747474747474747474747474747F1
:104F500047474747474747474747474747474747E1
:104F600047474747474747474747474747474747D1
:104F700047474747474747474747474747474747C1
:104F800047474747474747474747474747474747B1
:104F900047474747474747474747474747474747A1
:104FA000474747474747474747473B3B3B3B3B3BD9
:104FB0003B3B3B3B3B3B3B3B3B3B3B3B3B3B3B3B41
:104FC0003B3B3B3B3B3B3B3B3B3B3B3B3B3B3B3B31
:104FD0003B3B3B3B3B3B3B3B3B3B3B3B3B3B3B3B21
:104FE0003B3B3B3B3B3B3B3B3B3B3B3B3B3B3B3B11
:104FF0003B3B3B3B3B3B3B3B3B3B3B3B3B3B3B3B01
:105000003B3B3B3B3B3B3B3B3B3B3B3B3B3B3B3BF0
:105010003B3B3B3B3B3B3B3B3B3B3B3B3B3B3B3BE0
:105020003B3B3B3B3B3B3B3B3B3B3B3B3B3B3B3BD0
:105030003B3B3B3B3B3B3B3B3B3B3B3B3B3B3B3BC0
:105040003B3B3B3B3B3B3B3B3B3B3B3B3B3B3B3BB0
:105050003B3B3B3B3B3B3B3B3B3B3B3B3B3B3B3BA0
:105060003B3B3B3B3B3B3B3B3B3B3B3B3B3B3B3B90
:105070003B3B3B3B3B3B3B3B3B3B3B3B3B3B3B3B80
:105080003B3B3B3B3B3B3B3B3B3B3B3B3B3B3B3B70
:105090003B3B3B3B3B3B3B3B3B3B3B3B3B3B3B3B60
:1050A0003B3B3B3B3B3B3B3B3B3B6F4747EC47473B
:1050B00047EE6EEF4F6EEF47EEEF6F6F6F476F6F1C
:1050C0006F476F6F6FEEEF4747476F6F6F476F6FB9
:1050D0006F6FEEEF4F4747474F6F6F6F6F476F6FC1
:1050E0006F6FEEEF4747474F6F4747ECEF6FECECC2
:1050F000EFEF47EFEF47EF4747476F6F6F6E6F6F09
:105100006F6F6FEFEF6E6E4F6F476F6F6F6F6F6FF9
:105110006F6FEFEF4747EFEF6F476F6F6F6F6F6F17
:105120006F6FEFEF4F47EFEFECECEC6F47EFEF4FA8
:105130004747EF474747EF474F6F6F6F6FEEEFEF10
:105140006F47EF4F47ECEFEF47EE6FEEEF6EEF6F0D
:1051500047476FEF476E6EEC6F4F6FEEEFEFEF6FFD
:105160004747EFECEC47EF476F4F6F47EF47EF478D
:105170004747EF47474FEF4F47476FEF477FEF47AF
:105180007FECEF474747EF7F7F476FEF4747EF7F62
:10519000476FEF7F477FEF477F7FEC47476E6FEFAB
:1051A000477F6FEF476E6E4FEFEFEC3F3F6F3F3F34
:1051B0003F6FED6F2FED6F3E6F6FECECEFBFECECE0
:1051C000EF3EEEEEEE6F6FBE1F3FECECEF3EECEC11
:1051D000EF4F6F6FAEBF1F3FAF4FECECEF3EECEC0D
:1051E000EF4F6F6F1F3F3FAF4F1F3F6F6FEF6F6FFF
:1051F0006F6F3F6F6FBF6FBF1F3F6EECEFEDECEC5B
:10520000EF4F6E6F6FED6FAF4F1FECECEFEFECEC0D
:10521000EF4F6F6F1F3F6F6F4F1FECECEFEFECEC3A
:10522000EF4F6F6FAF3F6F6F6F6F6FEF3F6F6F2F0E
:10523000BF1F6FBF1F3F6F3FAF4FEC4FEF6F6F6FE1
:105240004F1F6FAF3F6F6F6F3F6F6E6F6FED6F4FA1
:105250001F3F6E6F3FED6F6F4FAFEF6F6F6F6F4F11
:105260001F3F6F6F6F3F6F3F4F2FEF3F6FBF6FBF9E
:105270001F3F6F1F3FAF6FAF1F3FEF6F3FFF6F3F8E
:10528000FF6F6F3F3F3F6FFFFF3FEF6F3F3F6FFF8E
:105290003F6F6FFF3FFF6F3FFFFF6F3F3FED6E6F51
:1052A0003FFF6E6F3FED6F2F6F6F6FECEF6FECECAA
:1052B000EF6F6F6F4F6F6F476F6F6F6F6F6F6F6FC6
:1052C0006F6F6F6F6F6F6F6FAE476F6F6F6F6F6FD7
:1052D0006FEF6F6F6F6FAF476FEF6F6F6F6F6F6FC6
:1052E0006FEF6F6FEF474F6FEFEFEC6F6F6F6F6F99
:1052F0006F6F476F6F6F6F6FAF47ED6F6F6F6F6F50
:105300006FEFED6F6F6F6D6FEFEF6F6F6F6F6F6FB1
:105310006FAE6F6FAF476F6FEFEF6F6F6F6F6F6F46
:105320006FAE6F6F6F476F6F6F6F6F6F476F6F4FBE
:105330006FAF6F6FAF476F476FEF6FAE6F6F6F6F8E
:10534000EFEF6F6F476F6F6FEC6FED6F6F6F6FEF1A
:10535000EF47ED6F476F6D6FEF6F6F6F6F6F6FEFB1
:10536000EF476F6F6FEC6FEC674F6F476F6F6F6F4B
:10537000AF476FAF476F6F6FEF476F6F476F6F4705
:105380006F6F6FECEC476F6F6F476F6F47476F6FD3
:1053900047EE6F6F476F6F476F6F6F47476FED6FE8
:1053A000476FED6F476F6D7F6F6F6F6F6F6F6F6FD1
:1053B0006F6F6F6F2F6F6FBF6F6F6F6F6F6F6F6FED
:1053C0006F4F6F6F6F6F6F6F6F1F6F6F6F4F6F6F7D
:1053D0006F6F6F6F6F6F6F1F6F6F6F6F6F4F6F6F4D
:1053E0006F6F6F6F6F1FEF6F6F6F6F6F6F6F6F6F9D
:1053F0006F6FBF6F6F6F6F6F6F1F6F6F6F6F6F6FBD
:105400006F6F6F6F6F6F6E6F6F6F6F6F6F6F6F6FAD
:105410006F6F6F6F6F1F6F6F6F6F6F6F6F6F6F6FEC
:105420006F6F6F6F6F1F6F6F6F6F6F6FBF6F6F2FCC
:105430006F6F6F6F6F1F6F1F6F6F6F6F6F6F6F6F1C
:105440006F6F6F6F1F6F6F6F6F6F6F6F6F6F6F6FBC
:105450006F1F6F6F1F6F6E6F6F6F6F6F6F6F6F6FFD
:105460006F1F6F6F6F6F6F6F4FAF6FBF6F6F6F6F2C
:105470006F1F6F6F1F6F6F6F6F1F6F6F1F6F6FAF3C
:105480006F6F6F6F6FAF6F6F6FAF6F6FAFAF6F6F2C
:10549000AF6F6F6FAF6F6FAF6F6F6FAFAF6F6F6FDC
:1054A000AF6F6F6FAF6F6E7F6F6F6F6F6F6F6F6F7D
:1054B0006F6F6F6FEF6F6F6F6F6F6F6F6F6F6F6F7C
:1054C0006FEF6F6F6F6F6F6F6FAE6F6F6FEF6F6FAD
:1054D0006F6F6F6F6F6F6FAF6F6F6F6F6FEF6F6F1C
:1054E0006F6F6F6F6FEF6F6F6F6F6F6F6F6F6F6F4C
:1054F0006F6F6F6F6F6F6F6F6FAF6F6F6F6F6F6F7C
:105500006F6F6F6F6F6F6F6F6F6F6F6F6F6F6F6FAB
:105510006F6F6F6F6FAF6F6F6F6F6F6F6F6F6F6F5B
:105520006F6F6F6F6FEF6F6F6F6F6F6F6F6F6FFF7B
:105530006F6F6F6F6FAF6FAF6F6F6F6F6F6F6F6FFB
:105540006F6F6F6FEF6F6F6F6F6F6F6F6F6F6F6FEB
:105550006FEF6F6FEF6F6F6F6F6F6F6F6F6F6F6F5B
:105560006FEF6F6F6F6F6F6FEF6F6F6F6F6F6F6F4B
:105570006FAF6F6FAF6F6F6F6FEF6F6FEF6F6F6FBB
:105580006F6F6F6F6F6F6F6F6F6F6F6F6F6F6F6F2B
:105590006F6F6F6F6F6F6F6F6F6F6F6F6F6F6F6F1B
:1055A0006F6F6F6F6F6F6FFF6F6F6F6F6F6F6F6F7B
:1055B0006F6F6F6F6F6F6F6F6F6F6F6F6F6F6F6FFB
:1055C0006F6F6F6F6F6F6F6F6F6F6F6F6F6F6F6FEB
:1055D0006F6F6F6F6F6F6F6F6F6F6F6F6F6F6F6FDB
:1055E0006F6F6F6F6F6F6F6F6F6F6F6F6F6F6F6FCB
:1055F0006F6F6F6F6F6F6F6F6F6F6F6F6F6F6F6FBB
:105600006F6F6F6F6F6FED6F6F6F6F6F6F6F6F6F2C
:105610006F6F6F6F6F6F6F6F6F6F6F6F6F6F6F6F9A
:105620006F6F6F6F6F6F6F6F6F6F6F6F6F6F6F6F8A
:105630006F6F6F6F6F6F6F6F6F6F6F6F6F6F6F6F7A
:105640006F6F6F6F6F6F6F6F6F6F6F6F6F6F6F6F6A
:105650006F6F6F6F6F6FED6F6F6F6F6F6F6F6F6FDC
:105660006F6F6F6F6F6F6F6F6F6F6F6F6F6F6F6F4A
:105670006F6F6F6F6F6F6F6F6F6F6F6F6F6F6F6F3A
:105680006F6F6F6F6F6F6F6F6F6F6F6F6F6F6F6F2A
:105690006F6F6F6F6F6F6F6F6F6F6F6F6F6F6F6F1A
:1056A0006F6F6F6F6F6FED6F6F6F4747474747477C
:1056B000474747474747474747474747474747477A
:1056C000474747474747474747474747474747476A
:1056D000474747474747474747474747474747475A
:1056E000474747474747474747474747474747474A
:1056F000474747474747474747474747474747473A
:105700004747474747474747474747474747474729
:105710004747474747474747474747474747474719
:105720004747474747474747474747474747474709
:1057300047474747474747474747474747474747F9
:1057400047474747474747474747474747474747E9
:1057500047474747474747474747474747474747D9
:1057600047474747474747474747474747474747C9
:1057700047474747474747474747474747474747B9
:1057800047474747474747474747474747474747A9
:105790004747474747474747474747474747474799
:1057A000474747474747474747473B3B3B3B3B3BD1
:1057B0003B3B3B3B3B3B3B3B3B3B3B3B3B3B3B3B39
:1057C0003B3B3B3B3B3B3B3B3B3B3B3B3B3B3B3B29
:1057D0003B3B3B3B3B3B3B3B3B3B3B3B3B3B3B3B19
:1057E0003B3B3B3B3B3B3B3B3B3B3B3B3B3B3B3B09
:1057F0003B3B3B3B3B3B3B3B3B3B3B3B3B3B3B3BF9
:105800003B3B3B3B3B3B3B3B3B3B3B3B3B3B3B3BE8
:105810003B3B3B3B3B3B3B3B3B3B3B3B3B3B3B3BD8
:105820003B3B3B3B3B3B3B3B3B3B3B3B3B3B3B3BC8
:105830003B3B3B3B3B3B3B3B3B3B3B3B3B3B3B3BB8
:105840003B3B3B3B3B3B3B3B3B3B3B3B3B3B3B3BA8
:105850003B3B3B3B3B3B3B3B3B3B3B3B3B3B3B3B98
:105860003B3B3B3B3B3B3B3B3B3B3B3B3B3B3B3B88
:105870003B3B3B3B3B3B3B3B3B3B3B3B3B3B3B3B78
:105880003B3B3B3B3B3B3B3B3B3B3B3B3B3B3B3B68
:105890003B3B3B3B3B3B3B3B3B3B3B3B3B3B3B3B58
:1058A0003B3B3B3B3B3B3B3B3B3B6F4747EC474733
:1058B00047EE6EEF4F6EEF47EEEF6F6F6F476F6F14
:1058C0006F476F6F6FEEEF4747476F6F6F476F6FB1
:1058D0006F6FEEEF4F4747474F6F6F6F6F476F6FB9
:1058E0006F6FEEEF4747474F6F4747ECEF6FECECBA
:1058F000EFEF47EFEF47EF4747476F6F6F6E6F6F01
:105900006F6F6FEFEF6E6E4F6F476F6F6F6F6F6FF1
:105910006F6FEFEF4747EFEF6F476F6F6F6F6F6F0F
:105920006F6FEFEF4F47EFEFECECEC6F47EFEF4FA0
:105930004747EF474747EF474F6F6F6F6FEEEFEF08
:105940006F47EF4F47ECEFEF47EE6FEEEF6EEF6F05
:1059500047476FEF476E6EEC6F4F6FEEEFEFEF6FF5
:105960004747EFECEC47EF476F4F6F47EF47EF4785
:105970004747EF47474FEF4F47476FEF4747EF7FA7
:1059800047ECEF47477FEF7F477F6FEF4747EF4792
:105990007F6FEF477F47EF7F7F47EC7F476E6FEF6B
:1059A00047476FEF7F6E6E4FEFEFEC3F3F6F3F3F2C
:1059B0003F6FED6F2FED6F3E6F6FECECEFBFECECD8
:1059C000EF3EEEEEEE6F6FBE1F3FECECEF3EECEC09
:1059D000EF4F6F6FAEBF1F3FAF4FECECEF3EECEC05
:1059E000EF4F6F6F1F3F3FAF4F1F3F6F6FEF6F6FF7
:1059F0006F6F3F6F6FBF6FBF1F3F6EECEFEDECEC53
:105A0000EF4F6E6F6FED6FAF4F1FECECEFEFECEC05
:105A1000EF4F6F6F1F3F6F6F4F1FECECEFEFECEC32
:105A2000EF4F6F6FAF3F6F6F6F6F6FEF3F6F6F2F06
:105A3000BF1F6FBF1F3F6F3FAF4FEC4FEF6F6F6FD9
:105A40004F1F6FAF3F6F6F6F3F6F6E6F6FED6F4F99
:105A50001F3F6E6F3FED6F6F4FAFEF6F6F6F6F4F09
:105A60001F3F6F6F6F3F6F3F4F2FEF3F6FBF6FBF96
:105A70001F3F6F1F3FAF6FAF1F3FEF6F3F3F6FFF86
:105A80003F6F6F3F3FFF6FFF3FFFEF6F3F3F6F3F46
:105A9000FF6F6F3FFF3F6FFFFF3F6FFF3FED6E6F89
:105AA0003F3F6E6FFFED6F2F6F6F6FECEF6FECECA2
:105AB000EF6F6F6F4F6F6F476F6F6F6F6F6F6F6FBE
:105AC0006F6F6F6F6F6F6F6FAE476F6F6F6F6F6FCF
:105AD0006FEF6F6F6F6FAF476FEF6F6F6F6F6F6FBE
