:100000000C9499350C94B6350C94B6350C94B635E1
:100010000C94B6350C94B6350C94B6350C94B635B4
:100020000C94B6350C94B6350C94B6350C94B635A4
:100030000C94B6350C94B6350C94B6350C94B63594
:100040000C94B6350C94B6350C94B6350C94B63584
:100050000C94B6350C94B6350C94B6350C94B63574
:100060000C94B6350C94B63548075197005F011DC6
:100070000B3A0D130A130DBEF60094BEF600C8BE6F
:10008000F6006F480853BEF607C11F81000200D377
:10009000003148088EBEF607C1480888BEF607C181
:1000A000BEF600C8828200C300133E07BEF6068279
:1000B000BEF60759380201D50044BEF60260B1020F
:1000C000FFD6006402FED60000E300444808B5BE37
:1000D000F607C1FEE300004808C0BEF607C14808A5
:1000E000E4BEF607C1480918BEF607C148094DBE6F
:1000F000F607C1480982BEF607C13DFD1D9F3B8141
:10010000011DBF3B81011DDF3B81011DFF3B8101C3
:100110001D013A131D223A161D443A191D683A1C56
:100120001D003A113A143A173A1A3A1D3A213DFD88
:100130001D003A1048015DBEF601024800AEBEF651
:100140000102480057BEF6010248002EBEF6010229
:10015000BEF600943DFD932C109B3B81011B9B3B05
:1001600081011D902C109B3B81011BBD0FBB802C7E
:10017000109B3B810193F0F0F0F00F1BE7E7E7E7FE
:100180009B3B81011D902C109B3B81013DFD016635
:1001900001760184018D019901A501B501BB01C062
:1001A00001D401E0020B021C022D023E024F02FFAD
:1001B00002B702DE037903D8047802B3073805D00A
:1001C00005F1061F00000000000000000000686547
:1001D00078203078232323232030782323007720AE
:1001E0003078232323232030782323007220307893
:1001F000232323230063616C6C2030782323232383
:10020000006C6F61642030782323232300616464D1
:10021000636D6420307823232323202A00726573C2
:1002200065740068656C70006D69646920307823BE
:10023000232030782323203078232300706C6179C9
:100240002030782323232300706C6179206F666649
:10025000000000000000000000000000000000009E
:10026000000000000000000000000000000000008E
:10027000000000000000000000000000000000007E
:10028000000000000000000000000000000000006E
:10029000000000000000000000000000000000005E
:1002A000000000000000000000000000000000004E
:1002B000000000000000000000000000000000003E
:1002C0000000000000000000820126C3006749AC66
:1002D0006747A56E828200C502BEF607F9380200A4
:1002E0008E99D50296ACF4B12C0D42D50265480822
:1002F000BABEF607C1828200C300133E3DFD48012D
:1003000046B1F090479304004991C25C91C4B1BDDD
:1003100080D302ADBEB53E0AE3028DC3FE3DFDC9EA
:1003200002C603BEF6082D78C904C605BEF6082D20
:100330007DC906C607BEF6082D3857134F134B1359
:100340000A130DE3028DC902C603BEF6082D78C953
:1003500004C605BEF6082D7DC50191C2BEF607D2C2
:10036000130A130DE3028DC902C603BEF6082D78E9
:10037000C904C605BEF6082D7DC906C607BEF60827
:100380002DBCA88900130A130DC501D1BEF607D2F2
:10039000D8C500BEF607D2133A132091C2C500BEDD
:1003A000F607D213205CA0A103BD0F020FD6034DA8
:1003B000A162DB0333D1DC380110C4B10500C21DDA
:1003C000003A02770220DE03631D2E09FC1E0200A4
:1003D0000210DB0359A162DB031D130A130DE302B4
:1003E0008DC902C603BEF6082D78C904C605BEF63F
:1003F000082D7DBE965E0AE3028D9FBD10D3039249
:10040000073DFD4C4F4144206661696C65642100E5
:1004100057616974696E6720666F722068616E64E7
:100420007368616B6520616E64207472616E7366BF
:1004300065722E2E2E00436F6D706C657465210001
:100440004803A8BEF607C1C902C603BEF6082D7848
:10045000C904C605BEF6082D7DBEF60392020AD574
:1004600004581DA009BEF603920255D504581DAAD2
:1004700009BEF6039202AAD504581D55099309BE78
:10048000F6039212D504581B09BEF6039252D50406
:10049000581340BEF603920983BEF603920984BE48
:1004A000F6039209575CABA10500830200D504371F
:1004B000280200D504374803CEBEF607C1E3028DFB
:1004C000132148039BBEF607C1E3028D436F6D6D98
:1004D000616E6420736C6F74732066756C6C2100A0
:1004E0004801461E0D0210DE04C8F0904793040038
:1004F00049C902C603BEF6082D38575CC904C605B3
:10050000BEF6082D3857C101261E0DF070C4B10487
:1005100000C27783FC77846A0E4E0F912709020090
:10052000D304C05CACE304B31E0D003A0DE3028DAE
:10053000480464BEF607C1E3028D8F3F8F3F8F3FB3
:100540008F3F8F3F8F3F8F3F8F3F8F3F8F3F8F3F3B
:100550008F3F8F3F8F3F8F3F8F3F8F3F8F3F8F3F2B
:100560008F3F8F3F8F3F8F3F8F3F8F3F8F3F8F3F1B
:100570008F3F8F3F8F3F8F3F8F3F8F3F8F3F8F3F0B
:100580008F3F8F3F8F3F8B3D843A80378E33803152
:10059000842E8A2B83298E268B248A228B208E1EE2
:1005A000821D881B8F19881882178D15891487134F
:1005B000861285118610870F890E8C0D800D840C94
:1005C000890B8F0A850A8C0983098B0883088B079E
:1005D00084078E06880682068C05870582058E04B0
:1005E0008904850481048E038A03870384038103BD
:1005F0008E028C02890287028502830281028F01AA
:100600008D018B018A0188018701860185018301A3
:100610008201810180018F008F008E008D008C008F
:100620008C008B008A008A0089008900880088007D
:100630008700870086008600C902C603BEF6082D23
:1006400078C904C605BEF6082D7DC906C607BEF6E4
:10065000082DBEF606F9E3028DC902C603BEF608F0
:100660002D78C904C605BEF6082D7D971F5F20BEF4
:10067000F60094C500BEF606376A1F4E20913A1D5B
:100680001D013A1EE3028DBEF60094E3028D4E6F0B
:100690002066726565206368616E6E656C21008AF4
:1006A0001F8720380202DD0647670200D5067CC599
:1006B000001E21BD01D3066CC5011E21BD02D3065B
:1006C0006CC5021E21BD04D3066C480626BEF60783
:1006D000C1E3067CAC6749AC6747AC3EBEF606F9A1
:1006E000CDE3063BA61F6F203DFD965EA56EB53E91
:1006F0004880118900910200D306DB58910357020C
:1007000000D506DC17015B9103570200D506DBA17B
:100710000204D606C2585891BB9F3B810191BD0F80
:10072000D70F1E21AD3A21E306DDC503BEF606371D
:100730006A1F4E209102FFD606ED3A1D1D013A1E9A
:10074000E306E5585858A0A10205D5068DCDCB8EFD
:10075000995D7A3DFD1D003A1DCDCB8E995D7A3DA8
:10076000FD38F070C1801170C41B37FC1D0137FCCF
:1007700077BDF03A1077BD0F0F1E219B3A219303EE
:10078000F0C104D270C4B10400C2772C109B3B812D
:1007900001FC773B81011D902C109B3B81013DFDAD
:1007A000C90D8201266749AC6747BEF607C1ACF3A5
:1007B000B10200D5073DE3028D4808A4BEF607C18B
:1007C000859FBD10D307A607020AD3078F020DD35A
:1007D000078F027FD3077E2FB102802AD307A60995
:1007E00027ACF4E307A6B10200D307A6137FF3AB4F
:1007F000A1050083E307A6130A130D2300B102002D
:10080000D3079FC5013DFD828200C300133EC50092
:100810003DFDC501910F6742D507BD0200D307BF5B
:100820005CACE307ACC5003DFD910200D307CC09E9
:100830005CE307C1130A130D3DFD380200D307DC4A
:1008400013301378C502B1E7E7E7E74030023ADF3B
:1008500007EC400709FBD307F7B1BD0FE307E33D02
:10086000FDB5C380910223D30817022AD308260FAF
:100870006742D508240200D3082A5CACE307FC6772
:100880000200D30824375CACF8E307FCC500A60ED1
:100890006F0FCB3DFDB10130C2BD10B1D30839019E
:1008A00007BD0FF0F0F0F0C2380130C4BD1038D3EE
:1008B000084C0107BD0FB29BC43DFD57656C636FCB
:1008C0006D6520746F2044756E636174726F6E2065
:1008D00076312E30202D2074797065202268656C69
:1008E000702220666F7220636F6D6D616E6473009D
:1008F0005245414459004E455320636F6E74726FE8
:100900006C6C657220666F756E642100496E74654B
:10091000727570742063616C6C6564210042796546
:1009200021004552524F5200202020205F5F5F5F20
:1009300020202020202020202020202020202020B7
:100940002020202020202020205F5F002020202F3A
:10095000205F5F205C5F5F20205F5F5F5F5F5F20E5
:10096000205F5F5F5F5F5F5F5F5F205F2F202F5FB4
:100970005F5F5F5F5F5F5F5F5F20205F5F5F5F0064
:1009800020202F202F202F202F202F202F202F20FE
:100990005F5F205C2F205F5F5F2F205F5F20602FF5
:1009A000205F5F2F205F5F5F2F205F5F205C2F2025
:1009B0005F5F205C00202F202F5F2F202F202F5FD4
:1009C0002F202F202F202F202F202F5F5F2F202F31
:1009D0005F2F202F202F5F2F202F20202F202F5FF1
:1009E0002F202F202F202F202F002F5F5F5F5F5F92
:1009F0002F5C5F5F2C5F2F5F2F202F5F2F5C5F5F6F
:100A00005F2F5C5F5F2C5F2F5C5F5F2F5F2F20206D
:100A1000205C5F5F5F5F2F5F2F202F5F2F000047FD
:100A200010115820FF004401013804043901013A33
:100A300001013B01013C01013D01013E01013F017A
:100A4000014001014101014201014301014401FF53
:100A5000004020004820003720603C200043200058
:100A6000342060374000404000304040452A00417B
:100A7000800035802B472A2B452A2A44400041809C
:100A80000031804146403F444041402000438000C7
:100A90003080203E20204080FF004220004C20007B
:100AA0003220214220004C20003220404220004CC5
:100AB00020003220414220004820003220204220E5
:100AC000004C200032203F4320004720004F208070
:100AD0004320003720804020004820003720603C21
:100AE00020004320003420603720004020003020C8
:100AF000603C20004520003520403E20004720007B
:100B00003720413D20004620003620203C20004573
:100B1000200035203F3C150043150034152B4315AC
:100B2000004C15003C152B4715004F15004015FFD4
:100B300000AEAEAEAEAEAEAEAEAEAEAEAEAEAEAE83
:100B4000AEAEAEAEAEAEAEAEAEAEAEAEAEAEAEAEC5
:100B5000AEAEAEAEAEAEAEAEAEAEAEAEAEAEAEAEB5
:100B6000AEAEAEAEAEAEAEAEAEAEAEAEAEAEAEAEA5
:100B7000AEAEAEAEAEAEAEAEAEAEAEAEAEAEAEAE95
:100B8000AEAEAEAEAEAEAEAEAEAEAEAEAEAEAEAE85
:100B9000AEAEAEAEAEAEAEAEAEAEAEAEAEAEAEAE75
:100BA000AEAEAEAEAEAEAEAEAEAEAEAEAEAEAEAE65
:100BB000AEAEAEAEAEAEAEAEAEAEAEAEAEAEAEAE55
:100BC000AEAEAEAEAEAEAEAEAEAEAEAEAEAEAEAE45
:100BD000AEAEAEAEAEAEAEAEAEAEAEAEAEAEAEAE35
:100BE000AEAEAEAEAEAEAEAEAEAEAEAEAEAEAEAE25
:100BF000AEAEAEAEAEAEAEAEAEAEAEAEAEAEAEAE15
:100C0000AEAEAEAEAEAEAEAEAEAEAEAEAEAEAEAE04
:100C1000AEAEAEAEAEAEAEAEAEAEAEAEAEAEAEAEF4
:100C2000AEAEAEAEAEAEAEAEAEAEAEAEAEAEAEAEE4
:100C3000AEAEAEAEAEAEAEAEAEAEAEAEAEAEAEAED4
:100C4000AEAEAEAEAEAEAEAEAEAEAEAEAEAEAEAEC4
:100C5000AEAEAEAEAEAEAEAEAEAEAEAEAEAEAEAEB4
:100C6000AEAEAEAEAEAEAEAEAEAEAEAEAEAEAEAEA4
:100C7000AEAEAEAEAEAEAEAEAEAEAEAEAEAEAEAE94
:100C8000AEAEAEAEAEAEAEAEAEAEAEAEAEAEAEAE84
:100C9000AEAEAEAEAEAEAEAEAEAEAEAEAEAEAEAE74
:100CA000AEAEAEAEAEAEAEAEAEAEAEAEAEAEAEAE64
:100CB000AEAEAEAEAEAEAEAEAEAEAEAEAEAEAEAE54
:100CC000AEAEAEAEAEAEAEAEAEAEAEAEAEAEAEAE44
:100CD000AEAEAEAEAEAEAEAEAEAEAEAEAEAEAEAE34
:100CE000AEAEAEAEAEAEAEAEAEAEAEAEAEAEAEAE24
:100CF000AEAEAEAEAEAEAEAEAEAEAEAEAEAEAEAE14
:100D0000AEAEAEAEAEAEAEAEAEAEAEAEAEAEAEAE03
:100D1000AEAEAEAEAEAEAEAEAEAEAEAEAEAEAEAEF3
:100D2000AEAEAEAEAEAEAEAEAEAEAEAEAEAEAEAEE3
:100D3000AEBEAEAEAEAEAEAEA6BEA42EAAA6AEAA55
:100D4000ACAAAAAAAEAAAAAAAEBABABAAAAAAEAEC1
:100D5000AEAAAAAAAEAAAAAAAAAAAA2EAEAEAE2ED7
:100D6000AEAAAAAAAEAAAAAAAAAAAAAEAEAE2EAE47
:100D7000AEAEAEAEB2AEAEAEA4AEA4A2AEA2AEAEBB
:100D8000AEBEBABAAABABABAAABEA2B2AAAA2EAEBF
:100D9000AEBABABAB2BABABAAAA2B2AEAEB2A2AE3B
:100DA000AEBABABAB2BABABAAAA2B22EAEB2A2AEAB
:100DB000AEAEB2AEA4A42EAEAEA2AEAEAEA2AE2E7B
:100DC000AEBAAAB2AAAAA2AEAEA22EAEAEB2A2AEDF
:100DD0008EBEAAAAAAA2AEAEAEBEA2AEAAAAAEAE5F
:100DE0002EB2AAAAA2A2AEAEAEA2AEAEAEA2AEAED7
:100DF000AEB2AEA4AEA4AEAEAEA2AEAE2EA22EAE3B
:100E0000AEB2A2AEAEA2AEAEAEA2AEAEAEA2AEAE2E
:100E1000AEB2A2AEAEA2AEAEACA2AEAEAEA2AEAE20
:100E2000AEBEAEAEAABEA2AEAEBEA2AEAAAA2EEE16
:100E3000AEAEAEAEAEAEAEAEAEBEAEAEBEAEAEAEB2
:100E4000AEAEAEAEA6AEAEAEAEAAAAAAAEAEAEAED6
:100E5000AEAEAEAEAEAEAEAEBAAEAEAEAEAEAEAEA6
:100E60002EAEAEAEAEAEAEAEBAAEAEAEAEAEAE2E96
:100E7000AEAEAEAEA4AEAEAEAEA6AEAEA6AEA6AEB4
:100E8000AEAAAEAEA6AEAEAEBAAAAEAEB6BEA62EF6
:100E9000AEAEAEAEA2AEAEAEBAAEAEAEAEAEAE2EF2
:100EA000AEAEAEAEA2AEAEAEBAAEAEA6AEAEAEAE6A
:100EB000AEAEA4A6AEAEAEA6AEAEA6AEAEAEAEA67C
:100EC0002EAEBAA2AEAEAE2EAEAEA6AEAEAEAEAE4A
:100ED000AEAAAEAEA6AE2EAEAEAAAEAEB6BEAE2E2A
:100EE000AEA2AEAEAEAE2EAEAEAEAEAEAEAEAE2E2E
:100EF000AEA4A6AEA6AEA6AEAEAEAEAEA6AEA6AE44
:100F0000AEA2AEAEAEAEAEAEAEAEAEAEAEAEAEAE0D
:100F1000AEA2AEAEAEAEAEAEBEAEAEAEAEAEAEAEED
:100F2000AEAEAEAEA6AAAEAEAEAAAEAEB6BEAFAED8
:100F3000AEAEAEAEAEAEAEAEAEAEAE2EAEAEAEAE51
:100F4000AEAEAEAEAEAEAEAEAAAEAEAEAEAEAEAEC5
:100F5000AEAEAEAEAAAEAEAEACAEAEAEAEAEAEAEB7
:100F6000ACAEAEAEAAAEAEAEACAEAEACAE2EAEAA2F
:100F7000AAAEAEAEAEAEAEAEAEAEAEAEAEAEAEA69D
:100F8000AEA6AEAEAEAEAEAEACB6AEAEAEA6AEAA8F
:100F9000AAAEAEAEAEAEAEAEAEAEAEA6AEAEAEAA81
:100FA000AAAEAEAEAEAEAEAEAEAEAEAEAEAEAEAE65
:100FB000AEAEAEAEAEAE2EAEA6AEAEA6AEAEAEAEE1
:100FC000AAAEAEAEAEAEAEAAAAAEAEAEAEAEAEAE4D
:100FD000AEA6AEAEAEAEAAAAAEB6AEAEAEA6AE8E61
:100FE000AEAEAEAEAEAEAAAAAEAEAEAEAEAEAEAE29
:100FF000BEAEAEAEAEAEAEA6AEAEA6AEAEAEAEAA15
:10100000AEAEAEAEAEAEAEAEAEAEAEAEAEAEAEAE00
:10101000AEAEAEAEAEAEAEAEAEAEAEAEAEAEAEAEF0
:10102000AEAEAEAEAEB6AEAEAEB6AEAEAEA6AEAED8
:10103000AEAEAEAEAEAEAEAEAEAEAEAEAEAEAEAED0
:10104000AEAEAEAEAEAEAEAEBAAEAEAEAEAEAEAEB4
:10105000AEAEAEAEBAAEAEAEAEAEAEAEAEAEAEAEA4
:10106000AEAEAEAEBAAEAEAEAEAEAEAEAEAEAEAE94
:10107000AEAEAEAEAEAEAEAEAEB6AEAEAEAEAEAE88
:10108000AEAEAEAEAEAEAEAEAEAEAEAEAEBAAEAE74
:10109000AEAEAEAEAEAEAEAEAEAEAEAEAEAEAEAE70
:1010A000AEAEAEAEAEAEAEAEAEAEAEAEAEAEAEAE60
:1010B000AEAEAEB6AEAEAFAEAEAEAEAEAEAEAEAE47
:1010C000AEAEAEAEAEAEAEAEAEAEAEAEAEAEAEAE40
:1010D000AEAEAEAEAEAEAEAEAEAEAEAEAEBAAEAE24
:1010E000AEAEAEAEAEAEAEAEAEAEAEAEAEAEAE2EA0
:1010F000AFAEB6AEAEAEAEAEAEAEAEAEAEAEAEAE07
:10110000AEAEAEAEAEAEAFAEAEAEAEAEAFAEAFAFFB
:10111000AEAEAEAEAFAEAFAEAEAEAEAFAEAEAFAFEA
:10112000AFAEAEAEAEAEAEAFAFAEAEAEAEBAAEAED0
:10113000AEAEAEAEAEAEAEAEAEAEAEABAEAEAEAED2
:10114000AEAEAEAEAEAEAEAEACAEAEAEAEAEAEAEC1
:10115000AEAEAEAEACAEAEAEAEAEAEAEAEAEAEAEB1
:10116000AEAEAEAEACAEAEAEAEAEAEAEACAEAEAEA3
:10117000AEAEAEAEAEAEAEAEAEAEAEAEAEAEAEAE8F
:10118000A6AEAEAEAEAEAEAEAEAEAEAEAEAEAEAE87
:10119000AEAEAEAEAEAEAEAEAEAEAEAEA6AEAEAE77
:1011A000AEAEAEAEAEAEAEAEAEAEAEAEAAAEAEAE63
:1011B000AEAEAEAEAEAEAAAEAEAEAEAEA6AEA6AE63
:1011C000AEAEAEAEAEAEAEAEAEAEAEAAAEAEAEAE43
:1011D000AEAEAEAEAEAEAEAEAAAEAEAAAEAEAEAE37
:1011E000AEAEAEAEAEAEAEAEAAAEAEAEAEAEAEAE23
:1011F000AEAEAEAEAEAEAEAEA6AEAEA6AEAEAEAE1F
:10120000AAAEAEAAAEAEAEAEAEAEAEAEAEAEAEAE06
:10121000AEAEAEAEAEAEAEAEAEAEAEAEAEAEAEAEEE
:10122000AEAEAEAEAEAEAEAEAEAEAEAEAEAEAEAEDE
:10123000AEAEAEAEAEAEAEAEAEAEAEAEAEAEAEAECE
:10124000AEAEAEAEAEAEAEAEAEAEAEAEAEAEAEAEBE
:10125000AEAEAEAEAEAEAEAEAEAEAEAEAEAEAEAEAE
:10126000AEAEAEAEAEAEAEAEAEAEAEAEAEAEAEAE9E
:10127000AEAEAEAEAEAEAEAEAEAEAEAEAEAEAEAE8E
:10128000AEAEAEAEAEAEAEAEAEAEAEAEAEB6AEAE76
:10129000AEAEAEAEAEAEAEAEAEAEAEAEAEAEAEAE6E
:1012A000AEAEAEAEAEAEAEAEAEAEAEAEAEAEAEAE5E
:1012B000AEAEAEAEAEAEAEAEAEAEAEAEAEAEAEAE4E
:1012C000AEAEAEAEAEAEAEAEAEAEAEAEAEAEAEAE3E
:1012D000AEAEAEAEAEAEAEAEAEAEAEAEAEB6AEAE26
:1012E000AEAEAEAEAEAEAEAEAEAEAEAEAEAEAEAE1E
:1012F000AEAEAEAEAEAEAEAEAEAEAEAEAEAEAEAE0E
:10130000AEAEAEAEAEAEAEAEAEAEAEAEAEAEAEAEFD
:10131000AEAEAEAEAEAEAEAEAEAEAEAEAEAEAEAEED
:10132000AEAEAEAEAEAEAEAEAEAEAEAEAEB6AEAED5
:10133000AEAEAEAEAEAEAEAEAEAEAEAEAEAEAEAECD
:10134000AEAEAEAEAEAEAEAEAEAEAEAEAEAEAEAEBD
:10135000AEAEAEAEAEAEAEAEAEAEAEAEAEAEAEAEAD
:10136000AEAEAEAEAEAEAEAEAEAEAEAEAEAEAEAE9D
:10137000AEAEAEAEAEAEAEAEAEAEAEAEAEAEAEAE8D
:10138000AEAEAEAEAEAEAEAEAEAEAEAEAEAEAEAE7D
:10139000AEAEAEAEAEAEAEAEAEAEAEAEAEAEAEAE6D
:1013A000AEAEAEAEAEAEAEAEAEAEAEAEAEAEAEAE5D
:1013B000AEAEAEAEAEAEAEAEAEAEAEAEAEAEAEAE4D
:1013C000AEAEAEAEAEAEAEAEAEAEAEAEAEAEAEAE3D
:1013D000AEAEAEAEAEAEAEAEAEAEAEAEAEAEAEAE2D
:1013E000AEAEAEAEAEAEAEAEAEAEAEAEAEAEAEAE1D
:1013F000AEAEAEAEAEAEAEAEAEAEAEAEAEAEAEAE0D
:10140000AEAEAEAEAEAEAEAEAEAEAEAEAEAEAEAEFC
:10141000AEAEAEAEAEAEAEAEAEAEAEAEAEAEAEAEEC
:10142000AEAEAEAEAEAEAEAEAEAEAEAEAEAEAEAEDC
:10143000AEAEAEAEAEAEAEAEAEAEAEAEAEAEAEAECC
:10144000AEAEAEAEAEAEAEAEAEAEAEAEAEAEAEAEBC
:10145000AEAEAEAEAEAEAEAEAEAEAEAEAEAEAEAEAC
:10146000AEAEAEAEAEAEAEAEAEAEAEAEAEAEAEAE9C
:10147000AEAEAEAEAEAEAEAEAEAEAEAEAEAEAEAE8C
:10148000AEAEAEAEAEAEAEAEAEAEAEAEAEAEAEAE7C
:10149000AEAEAEAEAEAEAEAEAEAEAEAEAEAEAEAE6C
:1014A000AEAEAEAEAEAEAEAEAEAEAEAEAEAEAEAE5C
:1014B000AEAEAEAEAEAEAEAEAEAEAEAEAEAEAEAE4C
:1014C000AEAEAEAEAEAEAEAEAEAEAEAEAEAEAEAE3C
:1014D000AEAEAEAEAEAEAEAEAEAEAEAEAEAEAEAE2C
:1014E000AEAEAEAEAEAEAEAEAEAEAEAEAEAEAEAE1C
:1014F000AEAEAEAEAEAEAEAEAEAEAEAEAEAEAEAE0C
:10150000AEAEAEAEAEAEAEAEAEAEAEAEAEAEAEAEFB
:10151000AEAEAEAEAEAEAEAEAEAEAEAEAEAEAEAEEB
:10152000AEAEAEAEAEAEAEAEAEAEAEAEAEAEAEAEDB
:10153000AEBEAEAEAEAEAEAEA6BEA42EAAA6AEAA4D
:10154000ACAAAAAAAEAAAAAAAEBABABAAAAAAEAEB9
:10155000AEAAAAAAAEAAAAAAAAAAAA2EAEAEAE2ECF
:10156000AEAAAAAAAEAAAAAAAAAAAAAEAEAE2EAE3F
:10157000AEAEAEAEB2AEAEAEA4AEA4A2AEA2AEAEB3
:10158000AEBEBABAAABABABAAABEA2B2AAAA2EAEB7
:10159000AEBABABAB2BABABAAAA2B2AEAEB2A2AE33
:1015A000AEBABABAB2BABABAAAA2B22EAEB2A2AEA3
:1015B000AEAEB2AEA4A42EAEAEA2AEAEAEA2AE2E73
:1015C000AEBAAAB2AAAAA2AEAEA22EAEAEB2A2AED7
:1015D0008EBEAAAAAAA2AEAEAEBEA2AEAAAAAEAE57
:1015E0002EB2AAAAA2A2AEAEAEA2AEAEAEA2AEAECF
:1015F000AEB2AEA4AEA4AEAEAEA2AEAE2EA22EAE33
:10160000AEB2A2AEAEA2AEAEAEA2AEAEAEA2AEAE26
:10161000AEB2A2AEAEA2AEAEACA2AEAEAEA2AEAE18
:10162000AEBEAEAEAABEA2AEAEBEA2AEAAAA2EEE0E
:10163000AEAEAEAEAEAEAEAEAEBEAEAEBEAEAEAEAA
:10164000AEAEAEAEA6AEAEAEAEAAAAAAAEAEAEAECE
:10165000AEAEAEAEAEAEAEAEBAAEAEAEAEAEAEAE9E
:101660002EAEAEAEAEAEAEAEBAAEAEAEAEAEAE2E8E
:10167000AEAEAEAEA4AEAEAEAEA6AEAEA6AEA6AEAC
:10168000AEAAAEAEA6AEAEAEBAAAAEAEB6BEA62EEE
:10169000AEAEAEAEA2AEAEAEBAAEAEAEAEAEAE2EEA
:1016A000AEAEAEAEA2AEAEAEBAAEAEA6AEAEAEAE62
:1016B000AEAEA4A6AEAEAEA6AEAEA6AEAEAEAEA674
:1016C0002EAEBAA2AEAEAE2EAEAEA6AEAEAEAEAE42
:1016D000AEAAAEAEA6AE2EAEAEAAAEAEB6BEAE2E22
:1016E000AEA2AEAEAEAE2EAEAEAEAEAEAEAEAE2E26
:1016F000AEA4A6AEA6AEA6AEAEAEAEAEA6AEA6AE3C
:10170000AEA2AEAEAEAEAEAEAEAEAEAEAEAEAEAE05
:10171000AEA2AEAEAEAEAEAEBEAEAEAEAEAEAEAEE5
:10172000AEAEAEAEA6AAAEAEAEAAAEAEB6BEAFAED0
:10173000AEAEAEAEAEAEAEAEAEAEAE2EAEAEAEAE49
:10174000AEAEAEAEAEAEAEAEAAAEAEAEAEAEAEAEBD
:10175000AEAEAEAEAAAEAEAEACAEAEAEAEAEAEAEAF
:10176000ACAEAEAEAAAEAEAEACAEAEACAE2EAEAA27
:10177000AAAEAEAEAEAEAEAEAEAEAEAEAEAEAEA695
:10178000AEA6AEAEAEAEAEAEACB6AEAEAEA6AEAA87
:10179000AAAEAEAEAEAEAEAEAEAEAEA6AEAEAEAA79
:1017A000AAAEAEAEAEAEAEAEAEAEAEAEAEAEAEAE5D
:1017B000AEAEAEAEAEAE2EAEA6AEAEA6AEAEAEAED9
:1017C000AAAEAEAEAEAEAEAAAAAEAEAEAEAEAEAE45
:1017D000AEA6AEAEAEAEAAAAAEB6AEAEAEA6AE8E59
:1017E000AEAEAEAEAEAEAAAAAEAEAEAEAEAEAEAE21
:1017F000BEAEAEAEAEAEAEA6AEAEA6AEAEAEAEAA0D
:10180000AEAEAEAEAEAEAEAEAEAEAEAEAEAEAEAEF8
:10181000AEAEAEAEAEAEAEAEAEAEAEAEAEAEAEAEE8
:10182000AEAEAEAEAEB6AEAEAEB6AEAEAEA6AEAED0
:10183000AEAEAEAEAEAEAEAEAEAEAEAEAEAEAEAEC8
:10184000AEAEAEAEAEAEAEAEBAAEAEAEAEAEAEAEAC
:10185000AEAEAEAEBAAEAEAEAEAEAEAEAEAEAEAE9C
:10186000AEAEAEAEBAAEAEAEAEAEAEAEAEAEAEAE8C
:10187000AEAEAEAEAEAEAEAEAEB6AEAEAEAEAEAE80
:10188000AEAEAEAEAEAEAEAEAEAEAEAEAEBAAEAE6C
:10189000AEAEAEAEAEAEAEAEAEAEAEAEAEAEAEAE68
:1018A000AEAEAEAEAEAEAEAEAEAEAEAEAEAEAEAE58
:1018B000AEAEAEB6AEAEAFAEAEAEAEAEAEAEAEAE3F
:1018C000AEAEAEAEAEAEAEAEAEAEAEAEAEAEAEAE38
:1018D000AEAEAEAEAEAEAEAEAEAEAEAEAEBAAEAE1C
:1018E000AEAEAEAEAEAEAEAEAEAEAEAEAEAEAE2E98
:1018F000AFAEB6AEAEAEAEAEAEAEAEAEAEAEAEAEFF
:10190000AEAEAEAEAEAEAFAEAEAEAEAEAFAEAEAEF5
:10191000AFAEAEAFAFAEAEAFAEAEAEAFAEAEAFAEE1
:10192000AEAEAFAFAEAEAEAFAEAEAEAFAEBAAEAEC7
:10193000AEAEAEAEAEAEAEAEAEAEAEABAEAEAEAECA
:10194000AEAEAEAEAEAEAEAEACAEAEAEAEAEAEAEB9
:10195000AEAEAEAEACAEAEAEAEAEAEAEAEAEAEAEA9
:10196000AEAEAEAEACAEAEAEAEAEAEAEACAEAEAE9B
:10197000AEAEAEAEAEAEAEAEAEAEAEAEAEAEAEAE87
:10198000A6AEAEAEAEAEAEAEAEAEAEAEAEAEAEAE7F
:10199000AEAEAEAEAEAEAEAEAEAEAEAEA6AEAEAE6F
:1019A000AEAEAEAEAEAEAEAEAEAEAEAEAAAEAEAE5B
:1019B000AEAEAEAEAEAEAAAEAEAEAEAEA6AEA6AE5B
:1019C000AEAEAEAEAEAEAEAEAEAEAEAAAEAEAEAE3B
:1019D000AEAEAEAEAEAEAEAEAAAEAEAAAEAEAEAE2F
:1019E000AEAEAEAEAEAEAEAEAAAEAEAEAEAEAEAE1B
:1019F000AEAEAEAEAEAEAEAEA6AEAEA6AEAEAEAE17
:101A0000AAAEAEAAAEAEAEAEAEAEAEAEAEAEAEAEFE
:101A1000AEAEAEAEAEAEAEAEAEAEAEAEAEAEAEAEE6
:101A2000AEAEAEAEAEAEAEAEAEAEAEAEAEAEAEAED6
:101A3000AEAEAEAEAEAEAEAEAEAEAEAEAEAEAEAEC6
:101A4000AEAEAEAEAEAEAEAEAEAEAEAEAEAEAEAEB6
:101A5000AEAEAEAEAEAEAEAEAEAEAEAEAEAEAEAEA6
:101A6000AEAEAEAEAEAEAEAEAEAEAEAEAEAEAEAE96
:101A7000AEAEAEAEAEAEAEAEAEAEAEAEAEAEAEAE86
:101A8000AEAEAEAEAEAEAEAEAEAEAEAEAEB6AEAE6E
:101A9000AEAEAEAEAEAEAEAEAEAEAEAEAEAEAEAE66
:101AA000AEAEAEAEAEAEAEAEAEAEAEAEAEAEAEAE56
:101AB000AEAEAEAEAEAEAEAEAEAEAEAEAEAEAEAE46
:101AC000AEAEAEAEAEAEAEAEAEAEAEAEAEAEAEAE36
:101AD000AEAEAEAEAEAEAEAEAEAEAEAEAEB6AEAE1E
:101AE000AEAEAEAEAEAEAEAEAEAEAEAEAEAEAEAE16
:101AF000AEAEAEAEAEAEAEAEAEAEAEAEAEAEAEAE06
:101B0000AEAEAEAEAEAEAEAEAEAEAEAEAEAEAEAEF5
:101B1000AEAEAEAEAEAEAEAEAEAEAEAEAEAEAEAEE5
:101B2000AEAEAEAEAEAEAEAEAEAEAEAEAEB6AEAECD
:101B3000AEAEAEAEAEAEAEAEAEAEAEAEAEAEAEAEC5
:101B4000AEAEAEAEAEAEAEAEAEAEAEAEAEAEAEAEB5
:101B5000AEAEAEAEAEAEAEAEAEAEAEAEAEAEAEAEA5
:101B6000AEAEAEAEAEAEAEAEAEAEAEAEAEAEAEAE95
:101B7000AEAEAEAEAEAEAEAEAEAEAEAEAEAEAEAE85
:101B8000AEAEAEAEAEAEAEAEAEAEAEAEAEAEAEAE75
:101B9000AEAEAEAEAEAEAEAEAEAEAEAEAEAEAEAE65
:101BA000AEAEAEAEAEAEAEAEAEAEAEAEAEAEAEAE55
:101BB000AEAEAEAEAEAEAEAEAEAEAEAEAEAEAEAE45
:101BC000AEAEAEAEAEAEAEAEAEAEAEAEAEAEAEAE35
:101BD000AEAEAEAEAEAEAEAEAEAEAEAEAEAEAEAE25
:101BE000AEAEAEAEAEAEAEAEAEAEAEAEAEAEAEAE15
:101BF000AEAEAEAEAEAEAEAEAEAEAEAEAEAEAEAE05
:101C0000AEAEAEAEAEAEAEAEAEAEAEAEAEAEAEAEF4
:101C1000AEAEAEAEAEAEAEAEAEAEAEAEAEAEAEAEE4
:101C2000AEAEAEAEAEAEAEAEAEAEAEAEAEAEAEAED4
:101C3000AEAEAEAEAEAEAEAEAEAEAEAEAEAEAEAEC4
:101C4000AEAEAEAEAEAEAEAEAEAEAEAEAEAEAEAEB4
:101C5000AEAEAEAEAEAEAEAEAEAEAEAEAEAEAEAEA4
:101C6000AEAEAEAEAEAEAEAEAEAEAEAEAEAEAEAE94
:101C7000AEAEAEAEAEAEAEAEAEAEAEAEAEAEAEAE84
:101C8000AEAEAEAEAEAEAEAEAEAEAEAEAEAEAEAE74
:101C9000AEAEAEAEAEAEAEAEAEAEAEAEAEAEAEAE64
:101CA000AEAEAEAEAEAEAEAEAEAEAEAEAEAEAEAE54
:101CB000AEAEAEAEAEAEAEAEAEAEAEAEAEAEAEAE44
:101CC000AEAEAEAEAEAEAEAEAEAEAEAEAEAEAEAE34
:101CD000AEAEAEAEAEAEAEAEAEAEAEAEAEAEAEAE24
:101CE000AEAEAEAEAEAEAEAEAEAEAEAEAEAEAEAE14
:101CF000AEAEAEAEAEAEAEAEAEAEAEAEAEAEAEAE04
:101D0000AEAEAEAEAEAEAEAEAEAEAEAEAEAEAEAEF3
:101D1000AEAEAEAEAEAEAEAEAEAEAEAEAEAEAEAEE3
:101D2000AEAEAEAEAEAEAEAEAEAEAEAEAEAEAEAED3
:101D3000AEBEAEAEAEAEAEAEA6BEA42EAAA6AEAA45
:101D4000ACAAAAAAAEAAAAAAAEBABABAAAAAAEAEB1
:101D5000AEAAAAAAAEAAAAAAAAAAAA2EAEAEAE2EC7
:101D6000AEAAAAAAAEAAAAAAAAAAAAAEAEAE2EAE37
:101D7000AEAEAEAEB2AEAEAEA4AEA4A2AEA2AEAEAB
:101D8000AEBEBABAAABABABAAABEA2B2AAAA2EAEAF
:101D9000AEBABABAB2BABABAAAA2B2AEAEB2A2AE2B
:101DA000AEBABABAB2BABABAAAA2B22EAEB2A2AE9B
:101DB000AEAEB2AEA4A42EAEAEA2AEAEAEA2AE2E6B
:101DC000AEBAAAB2AAAAA2AEAEA22EAEAEB2A2AECF
:101DD0008EBEAAAAAAA2AEAEAEBEA2AEAAAAAEAE4F
:101DE0002EB2AAAAA2A2AEAEAEA2AEAEAEA2AEAEC7
:101DF000AEB2AEA4AEA4AEAEAEA2AEAE2EA22EAE2B
:101E0000AEB2A2AEAEA2AEAEAEA2AEAEAEA2AEAE1E
:101E1000AEB2A2AEAEA2AEAEACA2AEAEAEA2AEAE10
:101E2000AEBEAEAEAABEA2AEAEBEA2AEAAAA2EEE06
:101E3000AEAEAEAEAEAEAEAEAEBEAEAEBEAEAEAEA2
:101E4000AEAEAEAEA6AEAEAEAEAAAAAAAEAEAEAEC6
:101E5000AEAEAEAEAEAEAEAEBAAEAEAEAEAEAEAE96
:101E60002EAEAEAEAEAEAEAEBAAEAEAEAEAEAE2E86
:101E7000AEAEAEAEA4AEAEAEAEA6AEAEA6AEA6AEA4
:101E8000AEAAAEAEA6AEAEAEBAAAAEAEB6BEA62EE6
:101E9000AEAEAEAEA2AEAEAEBAAEAEAEAEAEAE2EE2
:101EA000AEAEAEAEA2AEAEAEBAAEAEA6AEAEAEAE5A
:101EB000AEAEA4A6AEAEAEA6AEAEA6AEAEAEAEA66C
:101EC0002EAEBAA2AEAEAE2EAEAEA6AEAEAEAEAE3A
:101ED000AEAAAEAEA6AE2EAEAEAAAEAEB6BEAE2E1A
:101EE000AEA2AEAEAEAE2EAEAEAEAEAEAEAEAE2E1E
:101EF000AEA4A6AEA6AEA6AEAEAEAEAEA6AEA6AE34
:101F0000AEA2AEAEAEAEAEAEAEAEAEAEAEAEAEAEFD
:101F1000AEA2AEAEAEAEAEAEBEAEAEAEAEAEAEAEDD
:101F2000AEAEAEAEA6AAAEAEAEAAAEAEB6BEAFAEC8
:101F3000AEAEAEAEAEAEAEAEAEAEAE2EAEAEAEAE41
:101F4000AEAEAEAEAEAEAEAEAAAEAEAEAEAEAEAEB5
:101F5000AEAEAEAEAAAEAEAEACAEAEAEAEAEAEAEA7
:101F6000ACAEAEAEAAAEAEAEACAEAEACAE2EAEAA1F
:101F7000AAAEAEAEAEAEAEAEAEAEAEAEAEAEAEA68D
:101F8000AEA6AEAEAEAEAEAEACB6AEAEAEA6AEAA7F
:101F9000AAAEAEAEAEAEAEAEAEAEAEA6AEAEAEAA71
:101FA000AAAEAEAEAEAEAEAEAEAEAEAEAEAEAEAE55
:101FB000AEAEAEAEAEAE2EAEA6AEAEA6AEAEAEAED1
:101FC000AAAEAEAEAEAEAEAAAAAEAEAEAEAEAEAE3D
:101FD000AEA6AEAEAEAEAAAAAEB6AEAEAEA6AE8E51
:101FE000AEAEAEAEAEAEAAAAAEAEAEAEAEAEAEAE19
:101FF000BEAEAEAEAEAEAEA6AEAEA6AEAEAEAEAA05
:10200000AEAEAEAEAEAEAEAEAEAEAEAEAEAEAEAEF0
:10201000AEAEAEAEAEAEAEAEAEAEAEAEAEAEAEAEE0
:10202000AEAEAEAEAEB6AEAEAEB6AEAEAEA6AEAEC8
:10203000AEAEAEAEAEAEAEAEAEAEAEAEAEAEAEAEC0
:10204000AEAEAEAEAEAEAEAEBAAEAEAEAEAEAEAEA4
:10205000AEAEAEAEBAAEAEAEAEAEAEAEAEAEAEAE94
:10206000AEAEAEAEBAAEAEAEAEAEAEAEAEAEAEAE84
:10207000AEAEAEAEAEAEAEAEAEB6AEAEAEAEAEAE78
:10208000AEAEAEAEAEAEAEAEAEAEAEAEAEBAAEAE64
:10209000AEAEAEAEAEAEAEAEAEAEAEAEAEAEAEAE60
:1020A000AEAEAEAEAEAEAEAEAEAEAEAEAEAEAEAE50
:1020B000AEAEAEB6AEAEAFAEAEAEAEAEAEAEAEAE37
:1020C000AEAEAEAEAEAEAEAEAEAEAEAEAEAEAEAE30
:1020D000AEAEAEAEAEAEAEAEAEAEAEAEAEBAAEAE14
:1020E000AEAEAEAEAEAEAEAEAEAEAEAEAEAEAE2E90
:1020F000AFAEB6AEAEAEAEAEAEAEAEAEAEAEAEAEF7
:10210000AEAEAEAEAFAEAEAFAEAEAEAEAEAEAEAFEC
:10211000AEAEAEAFAFAEAFAEAEAEAFAEAFAEAEAEDA
:10212000AFAEAEAFAEAEAEAFAFAEAEAEAEBAAEAEBF
:10213000AEAEAEAEAEAEAEAEAEAEAEABAEAEAEAEC2
:10214000AEAEAEAEAEAEAEAEACAEAEAEAEAEAEAEB1
:10215000AEAEAEAEACAEAEAEAEAEAEAEAEAEAEAEA1
:10216000AEAEAEAEACAEAEAEAEAEAEAEACAEAEAE93
:10217000AEAEAEAEAEAEAEAEAEAEAEAEAEAEAEAE7F
:10218000A6AEAEAEAEAEAEAEAEAEAEAEAEAEAEAE77
:10219000AEAEAEAEAEAEAEAEAEAEAEAEA6AEAEAE67
:1021A000AEAEAEAEAEAEAEAEAEAEAEAEAAAEAEAE53
:1021B000AEAEAEAEAEAEAAAEAEAEAEAEA6AEA6AE53
:1021C000AEAEAEAEAEAEAEAEAEAEAEAAAEAEAEAE33
:1021D000AEAEAEAEAEAEAEAEAAAEAEAAAEAEAEAE27
:1021E000AEAEAEAEAEAEAEAEAAAEAEAEAEAEAEAE13
:1021F000AEAEAEAEAEAEAEAEA6AEAEA6AEAEAEAE0F
:10220000AAAEAEAAAEAEAEAEAEAEAEAEAEAEAEAEF6
:10221000AEAEAEAEAEAEAEAEAEAEAEAEAEAEAEAEDE
:10222000AEAEAEAEAEAEAEAEAEAEAEAEAEAEAEAECE
:10223000AEAEAEAEAEAEAEAEAEAEAEAEAEAEAEAEBE
:10224000AEAEAEAEAEAEAEAEAEAEAEAEAEAEAEAEAE
:10225000AEAEAEAEAEAEAEAEAEAEAEAEAEAEAEAE9E
:10226000AEAEAEAEAEAEAEAEAEAEAEAEAEAEAEAE8E
:10227000AEAEAEAEAEAEAEAEAEAEAEAEAEAEAEAE7E
:10228000AEAEAEAEAEAEAEAEAEAEAEAEAEB6AEAE66
:10229000AEAEAEAEAEAEAEAEAEAEAEAEAEAEAEAE5E
:1022A000AEAEAEAEAEAEAEAEAEAEAEAEAEAEAEAE4E
:1022B000AEAEAEAEAEAEAEAEAEAEAEAEAEAEAEAE3E
:1022C000AEAEAEAEAEAEAEAEAEAEAEAEAEAEAEAE2E
:1022D000AEAEAEAEAEAEAEAEAEAEAEAEAEB6AEAE16
:1022E000AEAEAEAEAEAEAEAEAEAEAEAEAEAEAEAE0E
:1022F000AEAEAEAEAEAEAEAEAEAEAEAEAEAEAEAEFE
:10230000AEAEAEAEAEAEAEAEAEAEAEAEAEAEAEAEED
:10231000AEAEAEAEAEAEAEAEAEAEAEAEAEAEAEAEDD
:10232000AEAEAEAEAEAEAEAEAEAEAEAEAEB6AEAEC5
:10233000AEAEAEAEAEAEAEAEAEAEAEAEAEAEAEAEBD
:10234000AEAEAEAEAEAEAEAEAEAEAEAEAEAEAEAEAD
:10235000AEAEAEAEAEAEAEAEAEAEAEAEAEAEAEAE9D
:10236000AEAEAEAEAEAEAEAEAEAEAEAEAEAEAEAE8D
:10237000AEAEAEAEAEAEAEAEAEAEAEAEAEAEAEAE7D
:10238000AEAEAEAEAEAEAEAEAEAEAEAEAEAEAEAE6D
:10239000AEAEAEAEAEAEAEAEAEAEAEAEAEAEAEAE5D
:1023A000AEAEAEAEAEAEAEAEAEAEAEAEAEAEAEAE4D
:1023B000AEAEAEAEAEAEAEAEAEAEAEAEAEAEAEAE3D
:1023C000AEAEAEAEAEAEAEAEAEAEAEAEAEAEAEAE2D
:1023D000AEAEAEAEAEAEAEAEAEAEAEAEAEAEAEAE1D
:1023E000AEAEAEAEAEAEAEAEAEAEAEAEAEAEAEAE0D
:1023F000AEAEAEAEAEAEAEAEAEAEAEAEAEAEAEAEFD
:10240000AEAEAEAEAEAEAEAEAEAEAEAEAEAEAEAEEC
:10241000AEAEAEAEAEAEAEAEAEAEAEAEAEAEAEAEDC
:10242000AEAEAEAEAEAEAEAEAEAEAEAEAEAEAEAECC
:10243000AEAEAEAEAEAEAEAEAEAEAEAEAEAEAEAEBC
:10244000AEAEAEAEAEAEAEAEAEAEAEAEAEAEAEAEAC
:10245000AEAEAEAEAEAEAEAEAEAEAEAEAEAEAEAE9C
:10246000AEAEAEAEAEAEAEAEAEAEAEAEAEAEAEAE8C
:10247000AEAEAEAEAEAEAEAEAEAEAEAEAEAEAEAE7C
:10248000AEAEAEAEAEAEAEAEAEAEAEAEAEAEAEAE6C
:10249000AEAEAEAEAEAEAEAEAEAEAEAEAEAEAEAE5C
:1024A000AEAEAEAEAEAEAEAEAEAEAEAEAEAEAEAE4C
:1024B000AEAEAEAEAEAEAEAEAEAEAEAEAEAEAEAE3C
:1024C000AEAEAEAEAEAEAEAEAEAEAEAEAEAEAEAE2C
:1024D000AEAEAEAEAEAEAEAEAEAEAEAEAEAEAEAE1C
:1024E000AEAEAEAEAEAEAEAEAEAEAEAEAEAEAEAE0C
:1024F000AEAEAEAEAEAEAEAEAEAEAEAEAEAEAEAEFC
:10250000AEAEAEAEAEAEAEAEAEAEAEAEAEAEAEAEEB
:10251000AEAEAEAEAEAEAEAEAEAEAEAEAEAEAEAEDB
:10252000AEAEAEAEAEAEAEAEAEAEAEAEAEAEAEAECB
:10253000AEBEAEAEAEAEAEAEA6BEA42EAAA6AEAA3D
:10254000ACAAAAAAAEAAAAAAAEBABABAAAAAAEAEA9
:10255000AEAAAAAAAEAAAAAAAAAAAA2EAEAEAE2EBF
:10256000AEAAAAAAAEAAAAAAAAAAAAAEAEAE2EAE2F
:10257000AEAEAEAEB2AEAEAEA4AEA4A2AEA2AEAEA3
:10258000AEBEBABAAABABABAAABEA2B2AAAA2EAEA7
:10259000AEBABABAB2BABABAAAA2B2AEAEB2A2AE23
:1025A000AEBABABAB2BABABAAAA2B22EAEB2A2AE93
:1025B000AEAEB2AEA4A42EAEAEA2AEAEAEA2AE2E63
:1025C000AEBAAAB2AAAAA2AEAEA22EAEAEB2A2AEC7
:1025D0008EBEAAAAAAA2AEAEAEBEA2AEAAAAAEAE47
:1025E0002EB2AAAAA2A2AEAEAEA2AEAEAEA2AEAEBF
:1025F000AEB2AEA4AEA4AEAEAEA2AEAE2EA22EAE23
:10260000AEB2A2AEAEA2AEAEAEA2AEAEAEA2AEAE16
:10261000AEB2A2AEAEA2AEAEACA2AEAEAEA2AEAE08
:10262000AEBEAEAEAABEA2AEAEBEA2AEAAAA2EEEFE
:10263000AEAEAEAEAEAEAEAEAEBEAEAEBEAEAEAE9A
:10264000AEAEAEAEA6AEAEAEAEAAAAAAAEAEAEAEBE
:10265000AEAEAEAEAEAEAEAEBAAEAEAEAEAEAEAE8E
:102660002EAEAEAEAEAEAEAEBAAEAEAEAEAEAE2E7E
:10267000AEAEAEAEA4AEAEAEAEA6AEAEA6AEA6AE9C
:10268000AEAAAEAEA6AEAEAEBAAAAEAEB6BEA62EDE
:10269000AEAEAEAEA2AEAEAEBAAEAEAEAEAEAE2EDA
:1026A000AEAEAEAEA2AEAEAEBAAEAEA6AEAEAEAE52
:1026B000AEAEA4A6AEAEAEA6AEAEA6AEAEAEAEA664
:1026C0002EAEBAA2AEAEAE2EAEAEA6AEAEAEAEAE32
:1026D000AEAAAEAEA6AE2EAEAEAAAEAEB6BEAE2E12
:1026E000AEA2AEAEAEAE2EAEAEAEAEAEAEAEAE2E16
:1026F000AEA4A6AEA6AEA6AEAEAEAEAEA6AEA6AE2C
:10270000AEA2AEAEAEAEAEAEAEAEAEAEAEAEAEAEF5
:10271000AEA2AEAEAEAEAEAEBEAEAEAEAEAEAEAED5
:10272000AEAEAEAEA6AAAEAEAEAAAEAEB6BEAFAEC0
:10273000AEAEAEAEAEAEAEAEAEAEAE2EAEAEAEAE39
:10274000AEAEAEAEAEAEAEAEAAAEAEAEAEAEAEAEAD
:10275000AEAEAEAEAAAEAEAEACAEAEAEAEAEAEAE9F
:10276000ACAEAEAEAAAEAEAEACAEAEACAE2EAEAA17
:10277000AAAEAEAEAEAEAEAEAEAEAEAEAEAEAEA685
:10278000AEA6AEAEAEAEAEAEACB6AEAEAEA6AEAA77
:10279000AAAEAEAEAEAEAEAEAEAEAEA6AEAEAEAA69
:1027A000AAAEAEAEAEAEAEAEAEAEAEAEAEAEAEAE4D
:1027B000AEAEAEAEAEAE2EAEA6AEAEA6AEAEAEAEC9
:1027C000AAAEAEAEAEAEAEAAAAAEAEAEAEAEAEAE35
:1027D000AEA6AEAEAEAEAAAAAEB6AEAEAEA6AE8E49
:1027E000AEAEAEAEAEAEAAAAAEAEAEAEAEAEAEAE11
:1027F000BEAEAEAEAEAEAEA6AEAEA6AEAEAEAEAAFD
:10280000AEAEAEAEAEAEAEAEAEAEAEAEAEAEAEAEE8
:10281000AEAEAEAEAEAEAEAEAEAEAEAEAEAEAEAED8
:10282000AEAEAEAEAEB6AEAEAEB6AEAEAEA6AEAEC0
:10283000AEAEAEAEAEAEAEAEAEAEAEAEAEAEAEAEB8
:10284000AEAEAEAEAEAEAEAEBAAEAEAEAEAEAEAE9C
:10285000AEAEAEAEBAAEAEAEAEAEAEAEAEAEAEAE8C
:10286000AEAEAEAEBAAEAEAEAEAEAEAEAEAEAEAE7C
:10287000AEAEAEAEAEAEAEAEAEB6AEAEAEAEAEAE70
:10288000AEAEAEAEAEAEAEAEAEAEAEAEAEBAAEAE5C
:10289000AEAEAEAEAEAEAEAEAEAEAEAEAEAEAEAE58
:1028A000AEAEAEAEAEAEAEAEAEAEAEAEAEAEAEAE48
:1028B000AEAEAEB6AEAEAFAEAEAEAEAEAEAEAEAE2F
:1028C000AEAEAEAEAEAEAEAEAEAEAEAEAEAEAEAE28
:1028D000AEAEAEAEAEAEAEAEAEAEAEAEAEBAAEAE0C
:1028E000AEAEAEAEAEAEAEAEAEAEAEAEAEAEAE2E88
:1028F000AFAEB6AEAEAEAEAEAEAEAEAEAEAEAEAEEF
:10290000AEAEAEAEAFAEAEAEAEAEAEAEAEAEAEAEE6
:10291000AEAEAEAEAFAEAEAFAEAEAFAEAEAEAEAED4
:10292000AEAEAEAEAEAEAEAFAEAEAEAFAEBAAEAEB9
:10293000AEAEAEAEAEAEAEAEAEAEAEABAEAEAEAEBA
:10294000AEAEAEAEAEAEAEAEACAEAEAEAEAEAEAEA9
:10295000AEAEAEAEACAEAEAEAEAEAEAEAEAEAEAE99
:10296000AEAEAEAEACAEAEAEAEAEAEAEACAEAEAE8B
:10297000AEAEAEAEAEAEAEAEAEAEAEAEAEAEAEAE77
:10298000A6AEAEAEAEAEAEAEAEAEAEAEAEAEAEAE6F
:10299000AEAEAEAEAEAEAEAEAEAEAEAEA6AEAEAE5F
:1029A000AEAEAEAEAEAEAEAEAEAEAEAEAAAEAEAE4B
:1029B000AEAEAEAEAEAEAAAEAEAEAEAEA6AEA6AE4B
:1029C000AEAEAEAEAEAEAEAEAEAEAEAAAEAEAEAE2B
:1029D000AEAEAEAEAEAEAEAEAAAEAEAAAEAEAEAE1F
:1029E000AEAEAEAEAEAEAEAEAAAEAEAEAEAEAEAE0B
:1029F000AEAEAEAEAEAEAEAEA6AEAEA6AEAEAEAE07
:102A0000AAAEAEAAAEAEAEAEAEAEAEAEAEAEAEAEEE
:102A1000AEAEAEAEAEAEAEAEAEAEAEAEAEAEAEAED6
:102A2000AEAEAEAEAEAEAEAEAEAEAEAEAEAEAEAEC6
:102A3000AEAEAEAEAEAEAEAEAEAEAEAEAEAEAEAEB6
:102A4000AEAEAEAEAEAEAEAEAEAEAEAEAEAEAEAEA6
:102A5000AEAEAEAEAEAEAEAEAEAEAEAEAEAEAEAE96
:102A6000AEAEAEAEAEAEAEAEAEAEAEAEAEAEAEAE86
:102A7000AEAEAEAEAEAEAEAEAEAEAEAEAEAEAEAE76
:102A8000AEAEAEAEAEAEAEAEAEAEAEAEAEB6AEAE5E
:102A9000AEAEAEAEAEAEAEAEAEAEAEAEAEAEAEAE56
:102AA000AEAEAEAEAEAEAEAEAEAEAEAEAEAEAEAE46
:102AB000AEAEAEAEAEAEAEAEAEAEAEAEAEAEAEAE36
:102AC000AEAEAEAEAEAEAEAEAEAEAEAEAEAEAEAE26
:102AD000AEAEAEAEAEAEAEAEAEAEAEAEAEB6AEAE0E
:102AE000AEAEAEAEAEAEAEAEAEAEAEAEAEAEAEAE06
:102AF000AEAEAEAEAEAEAEAEAEAEAEAEAEAEAEAEF6
:102B0000AEAEAEAEAEAEAEAEAEAEAEAEAEAEAEAEE5
:102B1000AEAEAEAEAEAEAEAEAEAEAEAEAEAEAEAED5
:102B2000AEAEAEAEAEAEAEAEAEAEAEAEAEB6AEAEBD
:102B3000AE90909090909090909090909090909077
:102B40009090909090909090909090909090909085
:102B50009090909090909090909090909090909075
:102B60009090909090909090909090909090909065
:102B70009090909090909090909090909090909055
:102B80009090909090909090909090909090909045
:102B90009090909090909090909090909090909035
:102BA0009090909090909090909090909090909025
:102BB0009090909090909090909090909090909015
:102BC0009090909090909090909090909090909005
:102BD00090909090909090909090909090909090F5
:102BE00090909090909090909090909090909090E5
:102BF00090909090909090909090909090909090D5
:102C000090909090909090909090909090909090C4
:102C100090909090909090909090909090909090B4
:102C200090909090909090909090909090909090A4
:102C30009090909090909090909090909090909094
:102C40009090909090909090909090909090909084
:102C50009090909090909090909090909090909074
:102C60009090909090909090909090909090909064
:102C70009090909090909090909090909090909054
:102C80009090909090909090909090909090909044
:102C90009090909090909090909090909090909034
:102CA0009090909090909090909090909090909024
:102CB0009090909090909090909090909090909014
:102CC0009090909090909090909090909090909004
:102CD00090909090909090909090909090909090F4
:102CE00090909090909090909090909090909090E4
:102CF00090909090909090909090909090909090D4
:102D000090909090909090909090909090909090C3
:102D100090909090909090909090909090909090B3
:102D200090909090909090909090909090909090A3
:102D300090109090829090909090909090109090A1
:102D40001010101090101010901010109010909003
:102D500090101010901010109490109090909090EF
:102D6000B0101010901010109490109090B090B07F
:102D70009090828290828282909090909090909099
:102D8000901010109010101094109090909090B09F
:102D9000901010109010101094909090909090B00F
:102DA000901010109010101094909090909090822D
:102DB000828290909090909090909090909090902F
:102DC000B0109490901090B09090909082909090CD
:102DD000901090109090B09090109090909082B041
:102DE000909090109090B09090908282909090B03F
:102DF00090909090909090909090909090909090D3
:102E000090909090909090908290909090909090D0
:102E100090909090909090909490D090D09090902E
:102E20009082D0D090109090901090D090909090F0
:102E3000908210109010101090029050029090907C
:102E400090828282908282829090909090909090D6
:102E50009482828290828282979090D01090945037
:102E60009082828290828282979090909494D49063
:102E700090109090909090909090909090909090D2
:102E80009490828282828282979090908210D090D9
:102E9000908282829082828297909090949090907B
:102EA0009082828290828282979090D0949090902B
:102EB000909090909090D49090909090949094D086
:102EC00090829790909090909090D0949090901045
:102ED0009090909082909090949090948210909086
:102EE000C0909090909090909490909010901090AE
:102EF000949090909090909094909094D090D09046
:102F000094909094909094909090101094909494A9
:102F100090909090949094909490D094D090949419
:102F20009490D0D082909094949090D08210D7902A
:102F300090908282908282829090909090909090D7
:102F4000909090909090909094909090909090907D
:102F500090909090949090909890909090109090E5
:102F6000989090909490909098909098909090983D
:102F70009882909090909090909090909090909057
:102F8000908290909090909098829090908290985B
:102F90009890909090909090909090909090909821
:102FA0009890909090909090909090909090909019
:102FB0009090909090909090909090909090909011
:102FC00098909090909090989890909090909082F7
:102FD0009082909090909898908290909082909803
:102FE000909090909090989890909090829082BDC0
:102FF00090909090909090909090909090909098C9
:1030000090909090909090909090828290909090DC
:1030100090909090909090909690909090909090AA
:1030200090909090908290909082909090829090CA
:103030009090909090909090909090D490901090CC
:103040009090909090909090979090909090909079
:10305000979090909790909090909090909097905B
:10306000909090909790909090909090979E909044
:103070009090909090909090909090909090909050
:103080009790909090909090909090909090909039
:103090009090909090909090909090909790909029
:1030A0009090909090909090909090909790909019
:1030B000909090909090D7909090909097909790BB
:1030C00090909090909090909090909790909090F9
:1030D00090909090909090909790909790909090E2
:1030E00090909090909090909790909090909090D9
:1030F00097909090909090909790909790909090BB
:103100009790909790909790909090909790979795
:10311000909090909790979090909097909097978C
:10312000979090909090909797909090909090908A
:103130009090909090909090909090979090909088
:103140009090909090909090989090909090909077
:1031500090909090989090909090909090901090E7
:10316000909090909890909090909090989090904F
:10317000909090909090909090909090909090904F
:1031800090909090909090909090909090109090BF
:10319000909090909090909090909090909090902F
:1031A0009090909090909090909090909890909017
:1031B000909090909090909090909090909090900F
:1031C00090909090909090909090909890909090F7
:1031D000909090909090909098909098901090905F
:1031E0009090909090909090989090909090909EC9
:1031F00090909090909090909090909090909090CF
:1032000098909098909090909090909090909090AE
:1032100090909090909090909090909090909090AE
:10322000909090909090909090909090901090901E
:10323000909090909090909090909090909090908E
:10324000909090909090909090909090909090907E
:10325000909090909090909090909090909090906E
:10326000909090909090909090909090909090905E
:10327000909090909090909090909090909090904E
:10328000909090909090909090909090908290904C
:10329000909090909090909090909090909090902E
:1032A000909090909090909090909090909090901E
:1032B000909090909090909090909090909090900E
:1032C00090909090909090909090909090909090FE
:1032D00090909090909090909090909090829090FC
:1032E00090909090909090909090909090909090DE
:1032F00090909090909090909090909090909090CE
:1033000090909090909090909090909090909090BD
:1033100090909090909090909090909090909090AD
:1033200090909090909090909090909090829090AB
:10333000909090909090909090909090909090908D
:10334000909090909090909090909090909090907D
:10335000909090909090909090909090909090906D
:10336000909090909090909090909090909090905D
:10337000909090909090909090909090909090904D
:10338000909090909090909090909090909090903D
:10339000909090909090909090909090909090902D
:1033A000909090909090909090909090909090901D
:1033B000909090909090909090909090909090900D
:1033C00090909090909090909090909090909090FD
:1033D00090909090909090909090909090909090ED
:1033E00090909090909090909090909090909090DD
:1033F00090909090909090909090909090909090CD
:1034000090909090909090909090909090909090BC
:1034100090909090909090909090909090909090AC
:10342000909090909090909090909090909090909C
:10343000909090909090909090909090909090908C
:10344000909090909090909090909090909090907C
:10345000909090909090909090909090909090906C
:10346000909090909090909090909090909090905C
:10347000909090909090909090909090909090904C
:10348000909090909090909090909090909090903C
:10349000909090909090909090909090909090902C
:1034A000909090909090909090909090909090901C
:1034B000909090909090909090909090909090900C
:1034C00090909090909090909090909090909090FC
:1034D00090909090909090909090909090909090EC
:1034E00090909090909090909090909090909090DC
:1034F00090909090909090909090909090909090CC
:1035000090909090909090909090909090909090BB
:1035100090909090909090909090909090909090AB
:10352000909090909090909090909090909090909B
:103530009010909082909090909090909010909099
:1035400010101010901010109010101090109090FB
:1035500090101010901010109490109090909090E7
:10356000B0101010901010109490109090B090B077
:103570009090828290828282909090909090909091
:10358000901010109010101094109090909090B097
:10359000901010109010101094909090909090B007
:1035A0009010101090101010949090909090908225
:1035B0008282909090909090909090909090909027
:1035C000B0109490901090B09090909082909090C5
:1035D000901090109090B09090109090909082B039
:1035E000909090109090B09090908282909090B037
:1035F00090909090909090909090909090909090CB
:1036000090909090909090908290909090909090C8
:1036100090909090909090909490D090D09090D0E6
:10362000D082909090109090D01090909090909028
:103630009082101090101010900290500290909074
:1036400090828282908282829090909090909090CE
:103650009482828290828282979090D0109094502F
:103660009082828290828282979090909494D4905B
:1036700090109090909090909090909090909090CA
:103680009490828282828282979090908210D090D1
:103690009082828290828282979090909490909073
:1036A0009082828290828282979090D09490909023
:1036B000909090909090D49090909090949094D07E
:1036C00090829790909090909090D094909090103D
:1036D000909090908290909094909094821090907E
:1036E000C0909090909090909490909010901090A6
:1036F000949090909090909094909094D090D0903E
:1037000094909094909094909090101094909090A9
:1037100094909094949090949490D094D09094D0CD
:10372000D090949482909094D09090948210D7905E
:1037300090908282908282829090909090909090CF
:103740009090909090909090949090909090909075
:1037500090909090949090909890909090109090DD
:103760009890909094909090989090989090909835
:10377000988290909090909090909090909090904F
:103780009082909090909090988290909082909853
:103790009890909090909090909090909090909819
:1037A0009890909090909090909090909090909011
:1037B0009090909090909090909090909090909009
:1037C00098909090909090989890909090909082EF
:1037D00090829090909098989082909090829098FB
:1037E000909090909090989890909090829082BDB8
:1037F00090909090909090909090909090909098C1
:1038000090909090909090909090828290909090D4
:1038100090909090909090909690909090909090A2
:1038200090909090908290909082909090829090C2
:103830009090909090909090909090D490901090C4
:103840009090909090909090979090909090909071
:103850009790909097909090909090909090979053
:10386000909090909790909090909090979E90903C
:103870009090909090909090909090909090909048
:103880009790909090909090909090909090909031
:103890009090909090909090909090909790909021
:1038A0009090909090909090909090909790909011
:1038B000909090909090D7909090909097909790B3
:1038C00090909090909090909090909790909090F1
:1038D00090909090909090909790909790909090DA
:1038E00090909090909090909790909090909090D1
:1038F00097909090909090909790909790909090B3
:10390000979090979090979090909090979090909B
:10391000979090979790909790909097909097907D
:10392000909097979090909790909097909090907B
:103930009090909090909090909090979090909080
:10394000909090909090909098909090909090906F
:1039500090909090989090909090909090901090DF
:103960009090909098909090909090909890909047
:103970009090909090909090909090909090909047
:1039800090909090909090909090909090109090B7
:103990009090909090909090909090909090909027
:1039A000909090909090909090909090989090900F
:1039B0009090909090909090909090909090909007
:1039C00090909090909090909090909890909090EF
:1039D0009090909090909090989090989010909057
:1039E0009090909090909090989090909090909EC1
:1039F00090909090909090909090909090909090C7
:103A000098909098909090909090909090909090A6
:103A100090909090909090909090909090909090A6
:103A20009090909090909090909090909010909016
:103A30009090909090909090909090909090909086
:103A40009090909090909090909090909090909076
:103A50009090909090909090909090909090909066
:103A60009090909090909090909090909090909056
:103A70009090909090909090909090909090909046
:103A80009090909090909090909090909082909044
:103A90009090909090909090909090909090909026
:103AA0009090909090909090909090909090909016
:103AB0009090909090909090909090909090909006
:103AC00090909090909090909090909090909090F6
:103AD00090909090909090909090909090829090F4
:103AE00090909090909090909090909090909090D6
:103AF00090909090909090909090909090909090C6
:103B000090909090909090909090909090909090B5
:103B100090909090909090909090909090909090A5
:103B200090909090909090909090909090829090A3
:103B30009090909090909090909090909090909085
:103B40009090909090909090909090909090909075
:103B50009090909090909090909090909090909065
:103B60009090909090909090909090909090909055
:103B70009090909090909090909090909090909045
:103B80009090909090909090909090909090909035
:103B90009090909090909090909090909090909025
:103BA0009090909090909090909090909090909015
:103BB0009090909090909090909090909090909005
:103BC00090909090909090909090909090909090F5
:103BD00090909090909090909090909090909090E5
:103BE00090909090909090909090909090909090D5
:103BF00090909090909090909090909090909090C5
:103C000090909090909090909090909090909090B4
:103C100090909090909090909090909090909090A4
:103C20009090909090909090909090909090909094
:103C30009090909090909090909090909090909084
:103C40009090909090909090909090909090909074
:103C50009090909090909090909090909090909064
:103C60009090909090909090909090909090909054
:103C70009090909090909090909090909090909044
:103C80009090909090909090909090909090909034
:103C90009090909090909090909090909090909024
:103CA0009090909090909090909090909090909014
:103CB0009090909090909090909090909090909004
:103CC00090909090909090909090909090909090F4
:103CD00090909090909090909090909090909090E4
:103CE00090909090909090909090909090909090D4
:103CF00090909090909090909090909090909090C4
:103D000090909090909090909090909090909090B3
:103D100090909090909090909090909090909090A3
:103D20009090909090909090909090909090909093
:103D30009010909082909090909090909010909091
:103D400010101010901010109010101090109090F3
:103D500090101010901010109490109090909090DF
:103D6000B0101010901010109490109090B090B06F
:103D70009090828290828282909090909090909089
:103D8000901010109010101094109090909090B08F
:103D9000901010109010101094909090909090B0FF
:103DA000901010109010101094909090909090821D
:103DB000828290909090909090909090909090901F
:103DC000B0109490901090B09090909082909090BD
:103DD000901090109090B09090109090909082B031
:103DE000909090109090B09090908282909090B02F
:103DF00090909090909090909090909090909090C3
:103E000090909090909090908290909090909090C0
:103E10009090909090909090949090D09090D0D0DE
:103E20009082D09090109090901090D09090909020
:103E3000908210109010101090029050029090906C
:103E400090828282908282829090909090909090C6
:103E50009482828290828282979090D01090945027
:103E60009082828290828282979090909494D49053
:103E700090109090909090909090909090909090C2
:103E80009490828282828282979090908210D090C9
:103E9000908282829082828297909090949090906B
:103EA0009082828290828282979090D0949090901B
:103EB000909090909090D49090909090949094D076
:103EC00090829790909090909090D0949090901035
:103ED0009090909082909090949090948210909076
:103EE000C09090909090909094909090109010909E
:103EF000949090909090909094909094D090D09036
:103F0000949090949490909490901010909090949D
:103F10009090909494909490949094D09490D0D0C9
:103F20009490D09482909094949090D08210D79056
:103F300090908282908282829090909090909090C7
:103F4000909090909090909094909090909090906D
:103F500090909090949090909890909090109090D5
:103F6000989090909490909098909098909090982D
:103F70009882909090909090909090909090909047
:103F8000908290909090909098829090908290984B
:103F90009890909090909090909090909090909811
:103FA0009890909090909090909090909090909009
:103FB0009090909090909090909090909090909001
:103FC00098909090909090989890909090909082E7
:103FD00090829090909098989082909090829098F3
:103FE000909090909090989890909090829082BDB0
:103FF00090909090909090909090909090909098B9
:1040000090909090909090909090828290909090CC
:10401000909090909090909096909090909090909A
:1040200090909090908290909082909090829090BA
:104030009090909090909090909090D490901090BC
:104040009090909090909090979090909090909069
:10405000979090909790909090909090909097904B
:10406000909090909790909090909090979E909034
:104070009090909090909090909090909090909040
:104080009790909090909090909090909090909029
:104090009090909090909090909090909790909019
:1040A0009090909090909090909090909790909009
:1040B000909090909090D7909090909097909790AB
:1040C00090909090909090909090909790909090E9
:1040D00090909090909090909790909790909090D2
:1040E00090909090909090909790909090909090C9
:1040F00097909090909090909790909790909090AB
:10410000979090979790909790909090909090978C
:10411000909090979790979090909790979090907C
:104120009790909790909097979090909090909073
:104130009090909090909090909090979090909078
:104140009090909090909090989090909090909067
:1041500090909090989090909090909090901090D7
:10416000909090909890909090909090989090903F
:10417000909090909090909090909090909090903F
:1041800090909090909090909090909090109090AF
:10419000909090909090909090909090909090901F
:1041A0009090909090909090909090909890909007
:1041B00090909090909090909090909090909090FF
:1041C00090909090909090909090909890909090E7
:1041D000909090909090909098909098901090904F
:1041E0009090909090909090989090909090909EB9
:1041F00090909090909090909090909090909090BF
:10420000989090989090909090909090909090909E
:10421000909090909090909090909090909090909E
:10422000909090909090909090909090901090900E
:10423000909090909090909090909090909090907E
:10424000909090909090909090909090909090906E
:10425000909090909090909090909090909090905E
:10426000909090909090909090909090909090904E
:10427000909090909090909090909090909090903E
:10428000909090909090909090909090908290903C
:10429000909090909090909090909090909090901E
:1042A000909090909090909090909090909090900E
:1042B00090909090909090909090909090909090FE
:1042C00090909090909090909090909090909090EE
:1042D00090909090909090909090909090829090EC
:1042E00090909090909090909090909090909090CE
:1042F00090909090909090909090909090909090BE
:1043000090909090909090909090909090909090AD
:10431000909090909090909090909090909090909D
:10432000909090909090909090909090908290909B
:10433000909090909090909090909090909090907D
:10434000909090909090909090909090909090906D
:10435000909090909090909090909090909090905D
:10436000909090909090909090909090909090904D
:10437000909090909090909090909090909090903D
:10438000909090909090909090909090909090902D
:10439000909090909090909090909090909090901D
:1043A000909090909090909090909090909090900D
:1043B00090909090909090909090909090909090FD
:1043C00090909090909090909090909090909090ED
:1043D00090909090909090909090909090909090DD
:1043E00090909090909090909090909090909090CD
:1043F00090909090909090909090909090909090BD
:1044000090909090909090909090909090909090AC
:10441000909090909090909090909090909090909C
:10442000909090909090909090909090909090908C
:10443000909090909090909090909090909090907C
:10444000909090909090909090909090909090906C
:10445000909090909090909090909090909090905C
:10446000909090909090909090909090909090904C
:10447000909090909090909090909090909090903C
:10448000909090909090909090909090909090902C
:10449000909090909090909090909090909090901C
:1044A000909090909090909090909090909090900C
:1044B00090909090909090909090909090909090FC
:1044C00090909090909090909090909090909090EC
:1044D00090909090909090909090909090909090DC
:1044E00090909090909090909090909090909090CC
:1044F00090909090909090909090909090909090BC
:1045000090909090909090909090909090909090AB
:10451000909090909090909090909090909090909B
:10452000909090909090909090909090909090908B
:104530009010909082909090909090909010909089
:1045400010101010901010109010101090109090EB
:1045500090101010901010109490109090909090D7
:10456000B0101010901010109490109090B090B067
:104570009090828290828282909090909090909081
:10458000901010109010101094109090909090B087
:10459000901010109010101094909090909090B0F7
:1045A0009010101090101010949090909090908215
:1045B0008282909090909090909090909090909017
:1045C000B0109490901090B09090909082909090B5
:1045D000901090109090B09090109090909082B029
:1045E000909090109090B09090908282909090B027
:1045F00090909090909090909090909090909090BB
:1046000090909090909090908290909090909090B8
:104610009090909090909090949090D0D090D0D096
:10462000D082D0D090109090D01090909090909098
:104630009082101090101010900290500290909064
:1046400090828282908282829090909090909090BE
:104650009482828290828282979090D0109094501F
:104660009082828290828282979090909494D4904B
:1046700090109090909090909090909090909090BA
:104680009490828282828282979090908210D090C1
:104690009082828290828282979090909490909063
:1046A0009082828290828282979090D09490909013
:1046B000909090909090D49090909090949094D06E
:1046C00090829790909090909090D094909090102D
:1046D000909090908290909094909094821090906E
:1046E000C090909090909090949090901090109096
:1046F000949090909090909094909094D090D0902E
:10470000949090949490909090901010909090909D
:104710009090909094909094949094D0D090D0D089
:10472000D090D0D082909094D09090948210D790D6
:1047300090908282908282829090909090909090BF
:104740009090909090909090949090909090909065
:1047500090909090949090909890909090109090CD
:104760009890909094909090989090989090909825
:10477000988290909090909090909090909090903F
:104780009082909090909090988290909082909843
:104790009890909090909090909090909090909809
:1047A0009890909090909090909090909090909001
:1047B00090909090909090909090909090909090F9
:1047C00098909090909090989890909090909082DF
:1047D00090829090909098989082909090829098EB
:1047E000909090909090989890909090829082BDA8
:1047F00090909090909090909090909090909098B1
:1048000090909090909090909090828290909090C4
:104810009090909090909090969090909090909092
:1048200090909090908290909082909090829090B2
:104830009090909090909090909090D490901090B4
:104840009090909090909090979090909090909061
:104850009790909097909090909090909090979043
:10486000909090909790909090909090979E90902C
:104870009090909090909090909090909090909038
:104880009790909090909090909090909090909021
:104890009090909090909090909090909790909011
:1048A0009090909090909090909090909790909001
:1048B000909090909090D7909090909097909790A3
:1048C00090909090909090909090909790909090E1
:1048D00090909090909090909790909790909090CA
:1048E00090909090909090909790909090909090C1
:1048F00097909090909090909790909790909090A3
:104900009790909797909090909090909090909092
:104910009090909097909097909097909090909082
:104920009090909090909097909090979090909079
:104930009090909090909090909090979090909070
:10494000909090909090909098909090909090905F
:1049500090909090989090909090909090901090CF
:104960009090909098909090909090909890909037
:104970009090909090909090909090909090909037
:1049800090909090909090909090909090109090A7
:104990009090909090909090909090909090909017
:1049A00090909090909090909090909098909090FF
:1049B00090909090909090909090909090909090F7
:1049C00090909090909090909090909890909090DF
:1049D0009090909090909090989090989010909047
:1049E0009090909090909090989090909090909EB1
:1049F00090909090909090909090909090909090B7
:104A00009890909890909090909090909090909096
:104A10009090909090909090909090909090909096
:104A20009090909090909090909090909010909006
:104A30009090909090909090909090909090909076
:104A40009090909090909090909090909090909066
:104A50009090909090909090909090909090909056
:104A60009090909090909090909090909090909046
:104A70009090909090909090909090909090909036
:104A80009090909090909090909090909082909034
:104A90009090909090909090909090909090909016
:104AA0009090909090909090909090909090909006
:104AB00090909090909090909090909090909090F6
:104AC00090909090909090909090909090909090E6
:104AD00090909090909090909090909090829090E4
:104AE00090909090909090909090909090909090C6
:104AF00090909090909090909090909090909090B6
:104B000090909090909090909090909090909090A5
:104B10009090909090909090909090909090909095
:104B20009090909090909090909090909082909093
:104B300090474747474747474747474747474747BC
:104B400047474747474747474747474747474747F5
:104B500047474747474747474747474747474747E5
:104B600047474747474747474747474747474747D5
:104B700047474747474747474747474747474747C5
:104B800047474747474747474747474747474747B5
:104B900047474747474747474747474747474747A5
:104BA0004747474747474747474747474747474795
:104BB0004747474747474747474747474747474785
:104BC0004747474747474747474747474747474775
:104BD0004747474747474747474747474747474765
:104BE0004747474747474747474747474747474755
:104BF0004747474747474747474747474747474745
:104C00004747474747474747474747474747474734
:104C10004747474747474747474747474747474724
:104C20004747474747474747474747474747474714
:104C3000473B3B3B3B3B3B3B3B3B3B3B3B3B3B3BB8
:104C40003B3B3B3B3B3B3B3B3B3B3B3B3B3B3B3BB4
:104C50003B3B3B3B3B3B3B3B3B3B3B3B3B3B3B3BA4
:104C60003B3B3B3B3B3B3B3B3B3B3B3B3B3B3B3B94
:104C70003B3B3B3B3B3B3B3B3B3B3B3B3B3B3B3B84
:104C80003B3B3B3B3B3B3B3B3B3B3B3B3B3B3B3B74
:104C90003B3B3B3B3B3B3B3B3B3B3B3B3B3B3B3B64
:104CA0003B3B3B3B3B3B3B3B3B3B3B3B3B3B3B3B54
:104CB0003B3B3B3B3B3B3B3B3B3B3B3B3B3B3B3B44
:104CC0003B3B3B3B3B3B3B3B3B3B3B3B3B3B3B3B34
:104CD0003B3B3B3B3B3B3B3B3B3B3B3B3B3B3B3B24
:104CE0003B3B3B3B3B3B3B3B3B3B3B3B3B3B3B3B14
:104CF0003B3B3B3B3B3B3B3B3B3B3B3B3B3B3B3B04
:104D00003B3B3B3B3B3B3B3B3B3B3B3B3B3B3B3BF3
:104D10003B3B3B3B3B3B3B3B3B3B3B3B3B3B3B3BE3
:104D20003B3B3B3B3B3B3B3B3B3B3B3B3B3B3B3BD3
:104D30003B6F4747EC474747EE6EEF4F6EEF47EE4E
:104D4000EF6F6F6F476F6F6F476F6F6FEEEF474794
:104D5000476F6F6F476F6F6F6FEEEF4F4747474F6C
:104D60006F6F6F6F476F6F6F6FEEEF4747474F6F14
:104D70004747ECEF6FECECEFEF47EFEF47EF4747BC
:104D8000476F6F6F6E6F6F6F6F6FEFEF6E6E4F6F7E
:104D9000476F6F6F6F6F6F6F6FEFEF4747EFEF6F9B
:104DA000476F6F6F6F6F6F6F6FEFEF4F47EFEFEC06
:104DB000ECEC6F47EFEF4F4747EF474747EF474F61
:104DC0006F6F6F6FEEEFEF6F47EF4F47ECEFEF470F
:104DD000EE6FEEEF6EEF6F47476FEF476E6EEC6F63
:104DE0004F6FEEEFEFEF6F4747EFECEC47EF476F9A
:104DF0004F6F47EF47EF474747EF47474FEF4F4763
:104E0000476FEF477FEF477FECEF474747EF474755
:104E10007F6FEF7F47EF477F6FEF7F477FEF47471A
:104E200047EC7F7F6E6FEF47476FEF7F6E6E4FEF00
:104E3000EFEC3F3F6F3F3F3F6FED6F2FED6F3E6FEA
:104E40006FECECEFBFECECEF3EEEEEEE6F6FBE1FE3
:104E50003FECECEF3EECECEF4F6F6FAEBF1F3FAFA0
:104E60004FECECEF3EECECEF4F6F6F1F3F3FAF4F5F
:104E70001F3F6F6FEF6F6F6F6F3F6F6FBF6FBF1F22
:104E80003F6EECEFEDECECEF4F6E6F6FED6FAF4FF1
:104E90001FECECEFEFECECEF4F6F6F1F3F6F6F4FBE
:104EA0001FECECEFEFECECEF4F6F6FAF3F6F6F6FFE
:104EB0006F6FEF3F6F6F2FBF1F6FBF1F3F6F3FAF12
:104EC0004FEC4FEF6F6F6F4F1F6FAF3F6F6F6F3FC5
:104ED0006F6E6F6FED6F4F1F3F6E6F3FED6F6F4FD8
:104EE000AFEF6F6F6F6F4F1F3F6F6F6F3F6F3F4F32
:104EF0002FEF3F6FBF6FBF1F3F6F1F3FAF6FAF1FE2
:104F00003FEF6F3FFF6F3FFF6F6F3F3F3F6F3F3F91
:104F1000FFEF6FFF3F6F3FFF6F6FFF3FFF6F3F3F41
:104F20003F6FFFFFED6E6F3F3F6E6FFFED6F2F6FB7
:104F30006F6FECEF6FECECEF6F6F6F4F6F6F476F52
:104F40006F6F6F6F6F6F6F6F6F6F6F6F6F6F6FAE32
:104F5000476F6F6F6F6F6F6FEF6F6F6F6FAF476FF1
:104F6000EF6F6F6F6F6F6F6FEF6F6FEF474F6FEF99
:104F7000EFEC6F6F6F6F6F6F6F476F6F6F6F6FAF2C
:104F800047ED6F6F6F6F6F6FEFED6F6F6F6D6FEF5F
:104F9000EF6F6F6F6F6F6F6FAE6F6FAF476F6FEFCA
:104FA000EF6F6F6F6F6F6F6FAE6F6F6F476F6F6F7A
:104FB0006F6F6F476F6F4F6FAF6F6FAF476F476F19
:104FC000EF6FAE6F6F6F6FEFEF6F6F476F6F6FECDD
:104FD0006FED6F6F6F6FEFEF47ED6F476F6D6FEFB7
:104FE0006F6F6F6F6F6FEFEF476F6F6FEC6FEC6707
:104FF0004F6F476F6F6F6FAF476FAF476F6F6FEF59
:10500000476F6F476F6F476F6F6FECEC476F4747A6
:105010006F6F6F6F476F476FEE6F6F476F6F4747E9
:10502000476F6F6F6FED6F4747ED6F6F6F6D7F6FFE
:105030006F6F6F6F6F6F6F6F6F6F6F2F6F6FBF6F70
:105040006F6F6F6F6F6F6F6F4F6F6F6F6F6F6F6F90
:105050001F6F6F6F4F6F6F6F6F6F6F6F6F6F1F6F20
:105060006F6F6F6F4F6F6F6F6F6F6F6F1FEF6F6F40
:105070006F6F6F6F6F6F6F6F6FBF6F6F6F6F6F6FF0
:105080001F6F6F6F6F6F6F6F6F6F6F6F6F6E6F6F81
:105090006F6F6F6F6F6F6F6F6F6F6F6F1F6F6F6F70
:1050A0006F6F6F6F6F6F6F6F6F6F6F6F1F6F6F6F60
:1050B0006F6F6FBF6F6F2F6F6F6F6F6F1F6F1F6F90
:1050C0006F6F6F6F6F6F6F6F6F6F6F1F6F6F6F6F40
:1050D0006F6F6F6F6F6F6F6F1F6F6F1F6F6E6F6F81
:1050E0006F6F6F6F6F6F6F6F1F6F6F6F6F6F6F4F40
:1050F000AF6FBF6F6F6F6F6F1F6F6F1F6F6F6F6FD0
:105100001F6F6F1F6F6FAF6F6F6F6F6FAF6FAFAF4F
:105110006F6F6F6FAF6FAF6F6F6F6FAF6F6FAFAF5F
:10512000AF6F6F6F6F6F6FAFAF6F6F6F6F6E7F6FC0
:105130006F6F6F6F6F6F6F6F6F6F6FEF6F6F6F6FFF
:105140006F6F6F6F6F6F6F6FEF6F6F6F6F6F6F6FEF
:10515000AE6F6F6FEF6F6F6F6F6F6F6F6F6FAF6F60
:105160006F6F6F6FEF6F6F6F6F6F6F6FEF6F6F6F4F
:105170006F6F6F6F6F6F6F6F6F6F6F6F6F6F6F6F3F
:10518000AF6F6F6F6F6F6F6F6F6F6F6F6F6F6F6FEF
:105190006F6F6F6F6F6F6F6F6F6F6F6FAF6F6F6FDF
:1051A0006F6F6F6F6F6F6F6F6F6F6F6FEF6F6F6F8F
:1051B0006F6F6F6F6F6FFF6F6F6F6F6FAF6FAF6FEF
:1051C0006F6F6F6F6F6F6F6F6F6F6FEF6F6F6F6F6F
:1051D0006F6F6F6F6F6F6F6FEF6F6FEF6F6F6F6FDF
:1051E0006F6F6F6F6F6F6F6FEF6F6F6F6F6F6FEFCF
:1051F0006F6F6F6F6F6F6F6FAF6F6FAF6F6F6F6F3F
:10520000EF6F6FEF6F6F6F6F6F6F6F6F6F6F6F6FAE
:105210006F6F6F6F6F6F6F6F6F6F6F6F6F6F6F6F9E
:105220006F6F6F6F6F6F6F6F6F6F6F6F6F6FFF6FFE
:105230006F6F6F6F6F6F6F6F6F6F6F6F6F6F6F6F7E
:105240006F6F6F6F6F6F6F6F6F6F6F6F6F6F6F6F6E
:105250006F6F6F6F6F6F6F6F6F6F6F6F6F6F6F6F5E
:105260006F6F6F6F6F6F6F6F6F6F6F6F6F6F6F6F4E
:105270006F6F6F6F6F6F6F6F6F6F6F6F6F6F6F6F3E
:105280006F6F6F6F6F6F6F6F6F6F6F6F6FED6F6FB0
:105290006F6F6F6F6F6F6F6F6F6F6F6F6F6F6F6F1E
:1052A0006F6F6F6F6F6F6F6F6F6F6F6F6F6F6F6F0E
:1052B0006F6F6F6F6F6F6F6F6F6F6F6F6F6F6F6FFE
:1052C0006F6F6F6F6F6F6F6F6F6F6F6F6F6F6F6FEE
:1052D0006F6F6F6F6F6F6F6F6F6F6F6F6FED6F6F60
:1052E0006F6F6F6F6F6F6F6F6F6F6F6F6F6F6F6FCE
:1052F0006F6F6F6F6F6F6F6F6F6F6F6F6F6F6F6FBE
:105300006F6F6F6F6F6F6F6F6F6F6F6F6F6F6F6FAD
:105310006F6F6F6F6F6F6F6F6F6F6F6F6F6F6F6F9D
:105320006F6F6F6F6F6F6F6F6F6F6F6F6FED6F6F0F
:105330006F474747474747474747474747474747D5
:1053400047474747474747474747474747474747ED
:1053500047474747474747474747474747474747DD
:1053600047474747474747474747474747474747CD
:1053700047474747474747474747474747474747BD
:1053800047474747474747474747474747474747AD
:10539000474747474747474747474747474747479D
:1053A000474747474747474747474747474747478D
:1053B000474747474747474747474747474747477D
:1053C000474747474747474747474747474747476D
:1053D000474747474747474747474747474747475D
:1053E000474747474747474747474747474747474D
:1053F000474747474747474747474747474747473D
:10540000474747474747474747474747474747472C
:10541000474747474747474747474747474747471C
:10542000474747474747474747474747474747470C
:10543000473B3B3B3B3B3B3B3B3B3B3B3B3B3B3BB0
:105440003B3B3B3B3B3B3B3B3B3B3B3B3B3B3B3BAC
:105450003B3B3B3B3B3B3B3B3B3B3B3B3B3B3B3B9C
:105460003B3B3B3B3B3B3B3B3B3B3B3B3B3B3B3B8C
:105470003B3B3B3B3B3B3B3B3B3B3B3B3B3B3B3B7C
:105480003B3B3B3B3B3B3B3B3B3B3B3B3B3B3B3B6C
:105490003B3B3B3B3B3B3B3B3B3B3B3B3B3B3B3B5C
:1054A0003B3B3B3B3B3B3B3B3B3B3B3B3B3B3B3B4C
:1054B0003B3B3B3B3B3B3B3B3B3B3B3B3B3B3B3B3C
:1054C0003B3B3B3B3B3B3B3B3B3B3B3B3B3B3B3B2C
:1054D0003B3B3B3B3B3B3B3B3B3B3B3B3B3B3B3B1C
:1054E0003B3B3B3B3B3B3B3B3B3B3B3B3B3B3B3B0C
:1054F0003B3B3B3B3B3B3B3B3B3B3B3B3B3B3B3BFC
:105500003B3B3B3B3B3B3B3B3B3B3B3B3B3B3B3BEB
:105510003B3B3B3B3B3B3B3B3B3B3B3B3B3B3B3BDB
:105520003B3B3B3B3B3B3B3B3B3B3B3B3B3B3B3BCB
:105530003B6F4747EC474747EE6EEF4F6EEF47EE46
:10554000EF6F6F6F476F6F6F476F6F6FEEEF47478C
:10555000476F6F6F476F6F6F6FEEEF4F4747474F64
:105560006F6F6F6F476F6F6F6FEEEF4747474F6F0C
:105570004747ECEF6FECECEFEF47EFEF47EF4747B4
:10558000476F6F6F6E6F6F6F6F6FEFEF6E6E4F6F76
:10559000476F6F6F6F6F6F6F6FEFEF4747EFEF6F93
:1055A000476F6F6F6F6F6F6F6FEFEF4F47EFEFECFE
:1055B000ECEC6F47EFEF4F4747EF474747EF474F59
:1055C0006F6F6F6FEEEFEF6F47EF4F47ECEFEF4707
:1055D000EE6FEEEF6EEF6F47476FEF476E6EEC6F5B
:1055E0004F6FEEEFEFEF6F4747EFECEC47EF476F92
:1055F0004F6F47EF47EF474747EF47474FEF4F475B
:10560000476FEF477FEF477FECEF474747EF7F7FDD
:10561000476FEF4747EF7F476FEF7F477FEF477F4A
:105620007FEC47476E6FEF477F6FEF476E6E4FEF30
:10563000EFEC3F3F6F3F3F3F6FED6F2FED6F3E6FE2
:105640006FECECEFBFECECEF3EEEEEEE6F6FBE1FDB
:105650003FECECEF3EECECEF4F6F6FAEBF1F3FAF98
:105660004FECECEF3EECECEF4F6F6F1F3F3FAF4F57
:105670001F3F6F6FEF6F6F6F6F3F6F6FBF6FBF1F1A
:105680003F6EECEFEDECECEF4F6E6F6FED6FAF4FE9
:105690001FECECEFEFECECEF4F6F6F1F3F6F6F4FB6
:1056A0001FECECEFEFECECEF4F6F6FAF3F6F6F6FF6
:1056B0006F6FEF3F6F6F2FBF1F6FBF1F3F6F3FAF0A
:1056C0004FEC4FEF6F6F6F4F1F6FAF3F6F6F6F3FBD
:1056D0006F6E6F6FED6F4F1F3F6E6F3FED6F6F4FD0
:1056E000AFEF6F6F6F6F4F1F3F6F6F6F3F6F3F4F2A
:1056F0002FEF3F6FBF6FBF1F3F6F1F3FAF6FAF1FDA
:105700003FEF6F3FFF6F3FFF6F6F3F3F3F6FFFFF09
:105710003FEF6F3F3F6FFF3F6F6FFF3FFF6F3FFFF9
:10572000FF6F3F3FED6E6F3FFF6E6F3FED6F2F6F6F
:105730006F6FECEF6FECECEF6F6F6F4F6F6F476F4A
:105740006F6F6F6F6F6F6F6F6F6F6F6F6F6F6FAE2A
:10575000476F6F6F6F6F6F6FEF6F6F6F6FAF476FE9
:10576000EF6F6F6F6F6F6F6FEF6F6FEF474F6FEF91
:10577000EFEC6F6F6F6F6F6F6F476F6F6F6F6FAF24
:1057800047ED6F6F6F6F6F6FEFED6F6F6F6D6FEF57
:10579000EF6F6F6F6F6F6F6FAE6F6FAF476F6FEFC2
:1057A000EF6F6F6F6F6F6F6FAE6F6F6F476F6F6F72
:1057B0006F6F6F476F6F4F6FAF6F6FAF476F476F11
:1057C000EF6FAE6F6F6F6FEFEF6F6F476F6F6FECD5
:1057D0006FED6F6F6F6FEFEF47ED6F476F6D6FEFAF
:1057E0006F6F6F6F6F6FEFEF476F6F6FEC6FEC67FF
:1057F0004F6F476F6F6F6FAF476FAF476F6F6FEF51
:10580000476F6F476F6F476F6F6FECEC476F6F6F4E
:10581000476F6F47476F6F47EE6F6F476F6F476F09
:105820006F6F47476FED6F476FED6F476F6D7F6F1E
:105830006F6F6F6F6F6F6F6F6F6F6F2F6F6FBF6F68
:105840006F6F6F6F6F6F6F6F4F6F6F6F6F6F6F6F88
:105850001F6F6F6F4F6F6F6F6F6F6F6F6F6F1F6F18
:105860006F6F6F6F4F6F6F6F6F6F6F6F1FEF6F6F38
:105870006F6F6F6F6F6F6F6F6FBF6F6F6F6F6F6FE8
:105880001F6F6F6F6F6F6F6F6F6F6F6F6F6E6F6F79
:105890006F6F6F6F6F6F6F6F6F6F6F6F1F6F6F6F68
:1058A0006F6F6F6F6F6F6F6F6F6F6F6F1F6F6F6F58
:1058B0006F6F6FBF6F6F2F6F6F6F6F6F1F6F1F6F88
:1058C0006F6F6F6F6F6F6F6F6F6F6F1F6F6F6F6F38
:1058D0006F6F6F6F6F6F6F6F1F6F6F1F6F6E6F6F79
:1058E0006F6F6F6F6F6F6F6F1F6F6F6F6F6F6F4F38
:1058F000AF6FBF6F6F6F6F6F1F6F6F1F6F6F6F6FC8
:105900001F6F6F1F6F6FAF6F6F6F6F6FAF6F6F6FC7
:10591000AF6F6FAFAF6F6FAF6F6F6FAF6F6FAF6F17
:105920006F6FAFAF6F6F6FAF6F6F6FAF6F6E7F6F78
:105930006F6F6F6F6F6F6F6F6F6F6FEF6F6F6F6FF7
:105940006F6F6F6F6F6F6F6FEF6F6F6F6F6F6F6FE7
:10595000AE6F6F6FEF6F6F6F6F6F6F6F6F6FAF6F58
:105960006F6F6F6FEF6F6F6F6F6F6F6FEF6F6F6F47
:105970006F6F6F6F6F6F6F6F6F6F6F6F6F6F6F6F37
:10598000AF6F6F6F6F6F6F6F6F6F6F6F6F6F6F6FE7
:105990006F6F6F6F6F6F6F6F6F6F6F6FAF6F6F6FD7
:1059A0006F6F6F6F6F6F6F6F6F6F6F6FEF6F6F6F87
:1059B0006F6F6F6F6F6FFF6F6F6F6F6FAF6FAF6FE7
:1059C0006F6F6F6F6F6F6F6F6F6F6FEF6F6F6F6F67
:1059D0006F6F6F6F6F6F6F6FEF6F6FEF6F6F6F6FD7
:1059E0006F6F6F6F6F6F6F6FEF6F6F6F6F6F6FEFC7
:1059F0006F6F6F6F6F6F6F6FAF6F6FAF6F6F6F6F37
:105A0000EF6F6FEF6F6F6F6F6F6F6F6F6F6F6F6FA6
:105A10006F6F6F6F6F6F6F6F6F6F6F6F6F6F6F6F96
:105A20006F6F6F6F6F6F6F6F6F6F6F6F6F6FFF6FF6
:105A30006F6F6F6F6F6F6F6F6F6F6F6F6F6F6F6F76
:105A40006F6F6F6F6F6F6F6F6F6F6F6F6F6F6F6F66
:105A50006F6F6F6F6F6F6F6F6F6F6F6F6F6F6F6F56
:105A60006F6F6F6F6F6F6F6F6F6F6F6F6F6F6F6F46
:105A70006F6F6F6F6F6F6F6F6F6F6F6F6F6F6F6F36
:105A80006F6F6F6F6F6F6F6F6F6F6F6F6FED6F6FA8
:105A90006F6F6F6F6F6F6F6F6F6F6F6F6F6F6F6F16
:105AA0006F6F6F6F6F6F6F6F6F6F6F6F6F6F6F6F06
:105AB0006F6F6F6F6F6F6F6F6F6F6F6F6F6F6F6FF6
:105AC0006F6F6F6F6F6F6F6F6F6F6F6F6F6F6F6FE6
:105AD0006F6F6F6F6F6F6F6F6F6F6F6F6FED6F6F58
