:100000000EC015C014C013C012C011C010C00FC064
:100010000EC00DC00CC00BC00AC009C008C011241E
:100020001FBECFE5D2E0DEBFCDBF4DD096C0E8CF3A
:100030001ABC19BE10BE1CBC18BE80E18CBD089550
:100040009B01AC01220F331F441F551F60E072E17A
:100050008AE790E060D02F3F31054105510581F0DE
:1000600078F081E08F5F56954795379527952F3F1C
:1000700031054105510529F020F08F3099F701C075
:1000800081E0806880BFDA01C9010197A109B10947
:100090008DBD089590E120E030E0877067E83798E3
:1000A00087B966B9369A3699FECF44B155B1240F57
:1000B000351F9150A1F7C901929582958F708927BC
:1000C0009F708927089580E187BBB2DFC0E888EC84
:1000D00090E00197F1F783E0DDDF8436910510F4BD
:1000E000C0BFF5CF893E23E0920730F060E472E4B0
:1000F0008FE090E0A5DFEBCFBC01645671097295EB
:1001000062956F7067277F7067276E5F7F4F80E013
:1001100090E096DFDCCFA1E21A2EAA1BBB1BFD01EB
:100120000DC0AA1FBB1FEE1FFF1FA217B307E407D6
:10013000F50720F0A21BB30BE40BF50B661F771F2E
:10014000881F991F1A9469F760957095809590950E
:0E0150009B01AC01BD01CF010895F894FFCFD3
:00000001FF
